{
  "_format": "hh-sol-artifact-1",
  "contractName": "AccessManager",
  "sourceName": "@openzeppelin/contracts/access/manager/AccessManager.sol",
  "abi": [
    {
      "inputs": [
        {
          "internalType": "address",
          "name": "initialAdmin",
          "type": "address"
        }
      ],
      "stateMutability": "nonpayable",
      "type": "constructor"
    },
    {
      "inputs": [
        {
          "internalType": "bytes32",
          "name": "operationId",
          "type": "bytes32"
        }
      ],
      "name": "AccessManagerAlreadyScheduled",
      "type": "error"
    },
    {
      "inputs": [],
      "name": "AccessManagerBadConfirmation",
      "type": "error"
    },
    {
      "inputs": [
        {
          "internalType": "bytes32",
          "name": "operationId",
          "type": "bytes32"
        }
      ],
      "name": "AccessManagerExpired",
      "type": "error"
    },
    {
      "inputs": [
        {
          "internalType": "address",
          "name": "initialAdmin",
          "type": "address"
        }
      ],
      "name": "AccessManagerInvalidInitialAdmin",
      "type": "error"
    },
    {
      "inputs": [
        {
          "internalType": "address",
          "name": "account",
          "type": "address"
        }
      ],
      "name": "AccessManagerLockedAccount",
      "type": "error"
    },
    {
      "inputs": [
        {
          "internalType": "uint64",
          "name": "roleId",
          "type": "uint64"
        }
      ],
      "name": "AccessManagerLockedRole",
      "type": "error"
    },
    {
      "inputs": [
        {
          "internalType": "bytes32",
          "name": "operationId",
          "type": "bytes32"
        }
      ],
      "name": "AccessManagerNotReady",
      "type": "error"
    },
    {
      "inputs": [
        {
          "internalType": "bytes32",
          "name": "operationId",
          "type": "bytes32"
        }
      ],
      "name": "AccessManagerNotScheduled",
      "type": "error"
    },
    {
      "inputs": [
        {
          "internalType": "address",
          "name": "msgsender",
          "type": "address"
        },
        {
          "internalType": "uint64",
          "name": "roleId",
          "type": "uint64"
        }
      ],
      "name": "AccessManagerUnauthorizedAccount",
      "type": "error"
    },
    {
      "inputs": [
        {
          "internalType": "address",
          "name": "caller",
          "type": "address"
        },
        {
          "internalType": "address",
          "name": "target",
          "type": "address"
        },
        {
          "internalType": "bytes4",
          "name": "selector",
          "type": "bytes4"
        }
      ],
      "name": "AccessManagerUnauthorizedCall",
      "type": "error"
    },
    {
      "inputs": [
        {
          "internalType": "address",
          "name": "msgsender",
          "type": "address"
        },
        {
          "internalType": "address",
          "name": "caller",
          "type": "address"
        },
        {
          "internalType": "address",
          "name": "target",
          "type": "address"
        },
        {
          "internalType": "bytes4",
          "name": "selector",
          "type": "bytes4"
        }
      ],
      "name": "AccessManagerUnauthorizedCancel",
      "type": "error"
    },
    {
      "inputs": [
        {
          "internalType": "address",
          "name": "target",
          "type": "address"
        }
      ],
      "name": "AccessManagerUnauthorizedConsume",
      "type": "error"
    },
    {
      "inputs": [
        {
          "internalType": "address",
          "name": "target",
          "type": "address"
        }
      ],
      "name": "AddressEmptyCode",
      "type": "error"
    },
    {
      "inputs": [
        {
          "internalType": "address",
          "name": "account",
          "type": "address"
        }
      ],
      "name": "AddressInsufficientBalance",
      "type": "error"
    },
    {
      "inputs": [],
      "name": "FailedInnerCall",
      "type": "error"
    },
    {
      "inputs": [
        {
          "internalType": "uint8",
          "name": "bits",
          "type": "uint8"
        },
        {
          "internalType": "uint256",
          "name": "value",
          "type": "uint256"
        }
      ],
      "name": "SafeCastOverflowedUintDowncast",
      "type": "error"
    },
    {
      "anonymous": false,
      "inputs": [
        {
          "indexed": true,
          "internalType": "bytes32",
          "name": "operationId",
          "type": "bytes32"
        },
        {
          "indexed": true,
          "internalType": "uint32",
          "name": "nonce",
          "type": "uint32"
        }
      ],
      "name": "OperationCanceled",
      "type": "event"
    },
    {
      "anonymous": false,
      "inputs": [
        {
          "indexed": true,
          "internalType": "bytes32",
          "name": "operationId",
          "type": "bytes32"
        },
        {
          "indexed": true,
          "internalType": "uint32",
          "name": "nonce",
          "type": "uint32"
        }
      ],
      "name": "OperationExecuted",
      "type": "event"
    },
    {
      "anonymous": false,
      "inputs": [
        {
          "indexed": true,
          "internalType": "bytes32",
          "name": "operationId",
          "type": "bytes32"
        },
        {
          "indexed": true,
          "internalType": "uint32",
          "name": "nonce",
          "type": "uint32"
        },
        {
          "indexed": false,
          "internalType": "uint48",
          "name": "schedule",
          "type": "uint48"
        },
        {
          "indexed": false,
          "internalType": "address",
          "name": "caller",
          "type": "address"
        },
        {
          "indexed": false,
          "internalType": "address",
          "name": "target",
          "type": "address"
        },
        {
          "indexed": false,
          "internalType": "bytes",
          "name": "data",
          "type": "bytes"
        }
      ],
      "name": "OperationScheduled",
      "type": "event"
    },
    {
      "anonymous": false,
      "inputs": [
        {
          "indexed": true,
          "internalType": "uint64",
          "name": "roleId",
          "type": "uint64"
        },
        {
          "indexed": true,
          "internalType": "uint64",
          "name": "admin",
          "type": "uint64"
        }
      ],
      "name": "RoleAdminChanged",
      "type": "event"
    },
    {
      "anonymous": false,
      "inputs": [
        {
          "indexed": true,
          "internalType": "uint64",
          "name": "roleId",
          "type": "uint64"
        },
        {
          "indexed": false,
          "internalType": "uint32",
          "name": "delay",
          "type": "uint32"
        },
        {
          "indexed": false,
          "internalType": "uint48",
          "name": "since",
          "type": "uint48"
        }
      ],
      "name": "RoleGrantDelayChanged",
      "type": "event"
    },
    {
      "anonymous": false,
      "inputs": [
        {
          "indexed": true,
          "internalType": "uint64",
          "name": "roleId",
          "type": "uint64"
        },
        {
          "indexed": true,
          "internalType": "address",
          "name": "account",
          "type": "address"
        },
        {
          "indexed": false,
          "internalType": "uint32",
          "name": "delay",
          "type": "uint32"
        },
        {
          "indexed": false,
          "internalType": "uint48",
          "name": "since",
          "type": "uint48"
        },
        {
          "indexed": false,
          "internalType": "bool",
          "name": "newMember",
          "type": "bool"
        }
      ],
      "name": "RoleGranted",
      "type": "event"
    },
    {
      "anonymous": false,
      "inputs": [
        {
          "indexed": true,
          "internalType": "uint64",
          "name": "roleId",
          "type": "uint64"
        },
        {
          "indexed": true,
          "internalType": "uint64",
          "name": "guardian",
          "type": "uint64"
        }
      ],
      "name": "RoleGuardianChanged",
      "type": "event"
    },
    {
      "anonymous": false,
      "inputs": [
        {
          "indexed": true,
          "internalType": "uint64",
          "name": "roleId",
          "type": "uint64"
        },
        {
          "indexed": false,
          "internalType": "string",
          "name": "label",
          "type": "string"
        }
      ],
      "name": "RoleLabel",
      "type": "event"
    },
    {
      "anonymous": false,
      "inputs": [
        {
          "indexed": true,
          "internalType": "uint64",
          "name": "roleId",
          "type": "uint64"
        },
        {
          "indexed": true,
          "internalType": "address",
          "name": "account",
          "type": "address"
        }
      ],
      "name": "RoleRevoked",
      "type": "event"
    },
    {
      "anonymous": false,
      "inputs": [
        {
          "indexed": true,
          "internalType": "address",
          "name": "target",
          "type": "address"
        },
        {
          "indexed": false,
          "internalType": "uint32",
          "name": "delay",
          "type": "uint32"
        },
        {
          "indexed": false,
          "internalType": "uint48",
          "name": "since",
          "type": "uint48"
        }
      ],
      "name": "TargetAdminDelayUpdated",
      "type": "event"
    },
    {
      "anonymous": false,
      "inputs": [
        {
          "indexed": true,
          "internalType": "address",
          "name": "target",
          "type": "address"
        },
        {
          "indexed": false,
          "internalType": "bool",
          "name": "closed",
          "type": "bool"
        }
      ],
      "name": "TargetClosed",
      "type": "event"
    },
    {
      "anonymous": false,
      "inputs": [
        {
          "indexed": true,
          "internalType": "address",
          "name": "target",
          "type": "address"
        },
        {
          "indexed": false,
          "internalType": "bytes4",
          "name": "selector",
          "type": "bytes4"
        },
        {
          "indexed": true,
          "internalType": "uint64",
          "name": "roleId",
          "type": "uint64"
        }
      ],
      "name": "TargetFunctionRoleUpdated",
      "type": "event"
    },
    {
      "inputs": [],
      "name": "ADMIN_ROLE",
      "outputs": [
        {
          "internalType": "uint64",
          "name": "",
          "type": "uint64"
        }
      ],
      "stateMutability": "view",
      "type": "function"
    },
    {
      "inputs": [],
      "name": "PUBLIC_ROLE",
      "outputs": [
        {
          "internalType": "uint64",
          "name": "",
          "type": "uint64"
        }
      ],
      "stateMutability": "view",
      "type": "function"
    },
    {
      "inputs": [
        {
          "internalType": "address",
          "name": "caller",
          "type": "address"
        },
        {
          "internalType": "address",
          "name": "target",
          "type": "address"
        },
        {
          "internalType": "bytes4",
          "name": "selector",
          "type": "bytes4"
        }
      ],
      "name": "canCall",
      "outputs": [
        {
          "internalType": "bool",
          "name": "immediate",
          "type": "bool"
        },
        {
          "internalType": "uint32",
          "name": "delay",
          "type": "uint32"
        }
      ],
      "stateMutability": "view",
      "type": "function"
    },
    {
      "inputs": [
        {
          "internalType": "address",
          "name": "caller",
          "type": "address"
        },
        {
          "internalType": "address",
          "name": "target",
          "type": "address"
        },
        {
          "internalType": "bytes",
          "name": "data",
          "type": "bytes"
        }
      ],
      "name": "cancel",
      "outputs": [
        {
          "internalType": "uint32",
          "name": "",
          "type": "uint32"
        }
      ],
      "stateMutability": "nonpayable",
      "type": "function"
    },
    {
      "inputs": [
        {
          "internalType": "address",
          "name": "caller",
          "type": "address"
        },
        {
          "internalType": "bytes",
          "name": "data",
          "type": "bytes"
        }
      ],
      "name": "consumeScheduledOp",
      "outputs": [],
      "stateMutability": "nonpayable",
      "type": "function"
    },
    {
      "inputs": [
        {
          "internalType": "address",
          "name": "target",
          "type": "address"
        },
        {
          "internalType": "bytes",
          "name": "data",
          "type": "bytes"
        }
      ],
      "name": "execute",
      "outputs": [
        {
          "internalType": "uint32",
          "name": "",
          "type": "uint32"
        }
      ],
      "stateMutability": "payable",
      "type": "function"
    },
    {
      "inputs": [],
      "name": "expiration",
      "outputs": [
        {
          "internalType": "uint32",
          "name": "",
          "type": "uint32"
        }
      ],
      "stateMutability": "view",
      "type": "function"
    },
    {
      "inputs": [
        {
          "internalType": "uint64",
          "name": "roleId",
          "type": "uint64"
        },
        {
          "internalType": "address",
          "name": "account",
          "type": "address"
        }
      ],
      "name": "getAccess",
      "outputs": [
        {
          "internalType": "uint48",
          "name": "since",
          "type": "uint48"
        },
        {
          "internalType": "uint32",
          "name": "currentDelay",
          "type": "uint32"
        },
        {
          "internalType": "uint32",
          "name": "pendingDelay",
          "type": "uint32"
        },
        {
          "internalType": "uint48",
          "name": "effect",
          "type": "uint48"
        }
      ],
      "stateMutability": "view",
      "type": "function"
    },
    {
      "inputs": [
        {
          "internalType": "bytes32",
          "name": "id",
          "type": "bytes32"
        }
      ],
      "name": "getNonce",
      "outputs": [
        {
          "internalType": "uint32",
          "name": "",
          "type": "uint32"
        }
      ],
      "stateMutability": "view",
      "type": "function"
    },
    {
      "inputs": [
        {
          "internalType": "uint64",
          "name": "roleId",
          "type": "uint64"
        }
      ],
      "name": "getRoleAdmin",
      "outputs": [
        {
          "internalType": "uint64",
          "name": "",
          "type": "uint64"
        }
      ],
      "stateMutability": "view",
      "type": "function"
    },
    {
      "inputs": [
        {
          "internalType": "uint64",
          "name": "roleId",
          "type": "uint64"
        }
      ],
      "name": "getRoleGrantDelay",
      "outputs": [
        {
          "internalType": "uint32",
          "name": "",
          "type": "uint32"
        }
      ],
      "stateMutability": "view",
      "type": "function"
    },
    {
      "inputs": [
        {
          "internalType": "uint64",
          "name": "roleId",
          "type": "uint64"
        }
      ],
      "name": "getRoleGuardian",
      "outputs": [
        {
          "internalType": "uint64",
          "name": "",
          "type": "uint64"
        }
      ],
      "stateMutability": "view",
      "type": "function"
    },
    {
      "inputs": [
        {
          "internalType": "bytes32",
          "name": "id",
          "type": "bytes32"
        }
      ],
      "name": "getSchedule",
      "outputs": [
        {
          "internalType": "uint48",
          "name": "",
          "type": "uint48"
        }
      ],
      "stateMutability": "view",
      "type": "function"
    },
    {
      "inputs": [
        {
          "internalType": "address",
          "name": "target",
          "type": "address"
        }
      ],
      "name": "getTargetAdminDelay",
      "outputs": [
        {
          "internalType": "uint32",
          "name": "",
          "type": "uint32"
        }
      ],
      "stateMutability": "view",
      "type": "function"
    },
    {
      "inputs": [
        {
          "internalType": "address",
          "name": "target",
          "type": "address"
        },
        {
          "internalType": "bytes4",
          "name": "selector",
          "type": "bytes4"
        }
      ],
      "name": "getTargetFunctionRole",
      "outputs": [
        {
          "internalType": "uint64",
          "name": "",
          "type": "uint64"
        }
      ],
      "stateMutability": "view",
      "type": "function"
    },
    {
      "inputs": [
        {
          "internalType": "uint64",
          "name": "roleId",
          "type": "uint64"
        },
        {
          "internalType": "address",
          "name": "account",
          "type": "address"
        },
        {
          "internalType": "uint32",
          "name": "executionDelay",
          "type": "uint32"
        }
      ],
      "name": "grantRole",
      "outputs": [],
      "stateMutability": "nonpayable",
      "type": "function"
    },
    {
      "inputs": [
        {
          "internalType": "uint64",
          "name": "roleId",
          "type": "uint64"
        },
        {
          "internalType": "address",
          "name": "account",
          "type": "address"
        }
      ],
      "name": "hasRole",
      "outputs": [
        {
          "internalType": "bool",
          "name": "isMember",
          "type": "bool"
        },
        {
          "internalType": "uint32",
          "name": "executionDelay",
          "type": "uint32"
        }
      ],
      "stateMutability": "view",
      "type": "function"
    },
    {
      "inputs": [
        {
          "internalType": "address",
          "name": "caller",
          "type": "address"
        },
        {
          "internalType": "address",
          "name": "target",
          "type": "address"
        },
        {
          "internalType": "bytes",
          "name": "data",
          "type": "bytes"
        }
      ],
      "name": "hashOperation",
      "outputs": [
        {
          "internalType": "bytes32",
          "name": "",
          "type": "bytes32"
        }
      ],
      "stateMutability": "view",
      "type": "function"
    },
    {
      "inputs": [
        {
          "internalType": "address",
          "name": "target",
          "type": "address"
        }
      ],
      "name": "isTargetClosed",
      "outputs": [
        {
          "internalType": "bool",
          "name": "",
          "type": "bool"
        }
      ],
      "stateMutability": "view",
      "type": "function"
    },
    {
      "inputs": [
        {
          "internalType": "uint64",
          "name": "roleId",
          "type": "uint64"
        },
        {
          "internalType": "string",
          "name": "label",
          "type": "string"
        }
      ],
      "name": "labelRole",
      "outputs": [],
      "stateMutability": "nonpayable",
      "type": "function"
    },
    {
      "inputs": [],
      "name": "minSetback",
      "outputs": [
        {
          "internalType": "uint32",
          "name": "",
          "type": "uint32"
        }
      ],
      "stateMutability": "view",
      "type": "function"
    },
    {
      "inputs": [
        {
          "internalType": "bytes[]",
          "name": "data",
          "type": "bytes[]"
        }
      ],
      "name": "multicall",
      "outputs": [
        {
          "internalType": "bytes[]",
          "name": "results",
          "type": "bytes[]"
        }
      ],
      "stateMutability": "nonpayable",
      "type": "function"
    },
    {
      "inputs": [
        {
          "internalType": "uint64",
          "name": "roleId",
          "type": "uint64"
        },
        {
          "internalType": "address",
          "name": "callerConfirmation",
          "type": "address"
        }
      ],
      "name": "renounceRole",
      "outputs": [],
      "stateMutability": "nonpayable",
      "type": "function"
    },
    {
      "inputs": [
        {
          "internalType": "uint64",
          "name": "roleId",
          "type": "uint64"
        },
        {
          "internalType": "address",
          "name": "account",
          "type": "address"
        }
      ],
      "name": "revokeRole",
      "outputs": [],
      "stateMutability": "nonpayable",
      "type": "function"
    },
    {
      "inputs": [
        {
          "internalType": "address",
          "name": "target",
          "type": "address"
        },
        {
          "internalType": "bytes",
          "name": "data",
          "type": "bytes"
        },
        {
          "internalType": "uint48",
          "name": "when",
          "type": "uint48"
        }
      ],
      "name": "schedule",
      "outputs": [
        {
          "internalType": "bytes32",
          "name": "operationId",
          "type": "bytes32"
        },
        {
          "internalType": "uint32",
          "name": "nonce",
          "type": "uint32"
        }
      ],
      "stateMutability": "nonpayable",
      "type": "function"
    },
    {
      "inputs": [
        {
          "internalType": "uint64",
          "name": "roleId",
          "type": "uint64"
        },
        {
          "internalType": "uint32",
          "name": "newDelay",
          "type": "uint32"
        }
      ],
      "name": "setGrantDelay",
      "outputs": [],
      "stateMutability": "nonpayable",
      "type": "function"
    },
    {
      "inputs": [
        {
          "internalType": "uint64",
          "name": "roleId",
          "type": "uint64"
        },
        {
          "internalType": "uint64",
          "name": "admin",
          "type": "uint64"
        }
      ],
      "name": "setRoleAdmin",
      "outputs": [],
      "stateMutability": "nonpayable",
      "type": "function"
    },
    {
      "inputs": [
        {
          "internalType": "uint64",
          "name": "roleId",
          "type": "uint64"
        },
        {
          "internalType": "uint64",
          "name": "guardian",
          "type": "uint64"
        }
      ],
      "name": "setRoleGuardian",
      "outputs": [],
      "stateMutability": "nonpayable",
      "type": "function"
    },
    {
      "inputs": [
        {
          "internalType": "address",
          "name": "target",
          "type": "address"
        },
        {
          "internalType": "uint32",
          "name": "newDelay",
          "type": "uint32"
        }
      ],
      "name": "setTargetAdminDelay",
      "outputs": [],
      "stateMutability": "nonpayable",
      "type": "function"
    },
    {
      "inputs": [
        {
          "internalType": "address",
          "name": "target",
          "type": "address"
        },
        {
          "internalType": "bool",
          "name": "closed",
          "type": "bool"
        }
      ],
      "name": "setTargetClosed",
      "outputs": [],
      "stateMutability": "nonpayable",
      "type": "function"
    },
    {
      "inputs": [
        {
          "internalType": "address",
          "name": "target",
          "type": "address"
        },
        {
          "internalType": "bytes4[]",
          "name": "selectors",
          "type": "bytes4[]"
        },
        {
          "internalType": "uint64",
          "name": "roleId",
          "type": "uint64"
        }
      ],
      "name": "setTargetFunctionRole",
      "outputs": [],
      "stateMutability": "nonpayable",
      "type": "function"
    },
    {
      "inputs": [
        {
          "internalType": "address",
          "name": "target",
          "type": "address"
        },
        {
          "internalType": "address",
          "name": "newAuthority",
          "type": "address"
        }
      ],
      "name": "updateAuthority",
      "outputs": [],
      "stateMutability": "nonpayable",
      "type": "function"
    }
  ],
  "bytecode": "0x608060405234801562000010575f80fd5b5060405162002e4b38038062002e4b83398101604081905262000033916200047d565b6001600160a01b0381166200006257604051630409d6d160e11b81525f60048201526024015b60405180910390fd5b620000705f82818062000078565b505062000502565b5f6002600160401b03196001600160401b03861601620000b75760405163061c6a4360e21b81526001600160401b038616600482015260240162000059565b6001600160401b0385165f9081526001602090815260408083206001600160a01b038816845290915281205465ffffffffffff1615908115620001b45763ffffffff851662000105620002ca565b620001119190620004b9565b905060405180604001604052808265ffffffffffff168152602001620001438663ffffffff16620002db60201b60201c565b6001600160701b039081169091526001600160401b0389165f9081526001602090815260408083206001600160a01b038c16845282529091208351815494909201519092166601000000000000026001600160a01b031990931665ffffffffffff909116179190911790556200025c565b6001600160401b0387165f9081526001602090815260408083206001600160a01b038a168452909152812054620002029166010000000000009091046001600160701b0316908690620002e4565b6001600160401b0389165f9081526001602090815260408083206001600160a01b038c168452909152902080546001600160701b03909316660100000000000002600160301b600160a01b03199093169290921790915590505b6040805163ffffffff8616815265ffffffffffff831660208201528315158183015290516001600160a01b038816916001600160401b038a16917ff98448b987f1428e0e230e1f3c6e2ce15b5693eaf31827fbd0b1ec4b424ae7cf9181900360600190a35095945050505050565b5f620002d64262000396565b905090565b63ffffffff1690565b5f8080620002fb6001600160701b038716620003ce565b90505f6200033c8563ffffffff168763ffffffff168463ffffffff161162000324575f62000330565b620003308885620004e2565b63ffffffff16620003ee565b905063ffffffff81166200034f620002ca565b6200035b9190620004b9565b925063ffffffff8616602083901b67ffffffff0000000016604085901b6dffffffffffff000000000000000016171793505050935093915050565b5f65ffffffffffff821115620003ca576040516306dfcc6560e41b8152603060048201526024810183905260440162000059565b5090565b5f80620003e46001600160701b03841662000407565b5090949350505050565b5f818311620003fe578162000400565b825b9392505050565b5f80806200041f8462000419620002ca565b6200042c565b9250925092509193909250565b5f80806001600160501b03602086901c166001600160701b03861665ffffffffffff604088901c811690871681111562000469578282826200046d565b815f805b9550955095505050509250925092565b5f602082840312156200048e575f80fd5b81516001600160a01b038116811462000400575f80fd5b634e487b7160e01b5f52601160045260245ffd5b65ffffffffffff818116838216019080821115620004db57620004db620004a5565b5092915050565b63ffffffff828116828216039080821115620004db57620004db620004a5565b61293b80620005105f395ff3fe6080604052600436106101db575f3560e01c80636d5115bd116100fd578063b700961311610092578063d22b598911610062578063d22b598914610695578063d6bb62c6146106b4578063f801a698146106d3578063fe0776f51461070c575f80fd5b8063b700961314610607578063b7d2b16214610642578063cc1b6c8114610661578063d1f856ee14610676575f80fd5b8063a166aa89116100cd578063a166aa891461053e578063a64d95ce1461058f578063abd9bd2a146105ae578063ac9650d8146105db575f80fd5b80636d5115bd1461049957806375b238fc146104ed578063853551b81461050057806394c7d7ee1461051f575f80fd5b806330cae187116101735780634665096d116101435780634665096d1461040b5780634c1da1e214610420578063529629521461043f578063530dd4561461045e575f80fd5b806330cae187146103615780633adc277a146103805780633ca7c02a146103b65780634136a33c146103d0575f80fd5b806318ff183c116101ae57806318ff183c146102b75780631cff79cd146102d657806325c471a0146102e95780633078f11414610308575f80fd5b806308d6122d146101df5780630b0a93ba1461020057806312be872714610264578063167bd39514610298575b5f80fd5b3480156101ea575f80fd5b506101fe6101f9366004612220565b61072b565b005b34801561020b575f80fd5b5061024761021a366004612282565b6001600160401b039081165f90815260016020819052604090912001546801000000000000000090041690565b6040516001600160401b0390911681526020015b60405180910390f35b34801561026f575f80fd5b5061028361027e366004612282565b61077d565b60405163ffffffff909116815260200161025b565b3480156102a3575f80fd5b506101fe6102b236600461229b565b6107b7565b3480156102c2575f80fd5b506101fe6102d13660046122d6565b6107cd565b6102836102e436600461233f565b61082f565b3480156102f4575f80fd5b506101fe6103033660046123a2565b610998565b348015610313575f80fd5b506103276103223660046123e4565b6109ba565b60405161025b949392919065ffffffffffff948516815263ffffffff93841660208201529190921660408201529116606082015260800190565b34801561036c575f80fd5b506101fe61037b3660046123fe565b610a21565b34801561038b575f80fd5b5061039f61039a36600461242f565b610a33565b60405165ffffffffffff909116815260200161025b565b3480156103c1575f80fd5b506102476001600160401b0381565b3480156103db575f80fd5b506102836103ea36600461242f565b5f908152600260205260409020546601000000000000900463ffffffff1690565b348015610416575f80fd5b5062093a80610283565b34801561042b575f80fd5b5061028361043a366004612446565b610a64565b34801561044a575f80fd5b506101fe6104593660046123fe565b610a91565b348015610469575f80fd5b50610247610478366004612282565b6001600160401b039081165f90815260016020819052604090912001541690565b3480156104a4575f80fd5b506102476104b3366004612476565b6001600160a01b0382165f908152602081815260408083206001600160e01b0319851684529091529020546001600160401b031692915050565b3480156104f8575f80fd5b506102475f81565b34801561050b575f80fd5b506101fe61051a3660046124a2565b610aa3565b34801561052a575f80fd5b506101fe61053936600461233f565b610b3a565b348015610549575f80fd5b5061057f610558366004612446565b6001600160a01b03165f90815260208190526040902060010154600160701b900460ff1690565b604051901515815260200161025b565b34801561059a575f80fd5b506101fe6105a93660046124bd565b610be4565b3480156105b9575f80fd5b506105cd6105c83660046124e5565b610bf6565b60405190815260200161025b565b3480156105e6575f80fd5b506105fa6105f5366004612545565b610c2e565b60405161025b91906125a5565b348015610612575f80fd5b5061062661062136600461261d565b610d13565b60408051921515835263ffffffff90911660208301520161025b565b34801561064d575f80fd5b506101fe61065c3660046123e4565b610e0e565b34801561066c575f80fd5b5062069780610283565b348015610681575f80fd5b506106266106903660046123e4565b610e25565b3480156106a0575f80fd5b506101fe6106af366004612665565b610e9e565b3480156106bf575f80fd5b506102836106ce3660046124e5565b610eb0565b3480156106de575f80fd5b506106f26106ed366004612681565b611038565b6040805192835263ffffffff90911660208301520161025b565b348015610717575f80fd5b506101fe6107263660046123e4565b61117c565b6107336111a5565b5f5b828110156107765761076e85858584818110610753576107536126ee565b90506020020160208101906107689190612702565b8461121c565b600101610735565b5050505050565b6001600160401b0381165f908152600160208190526040822001546107b190600160801b90046001600160701b031661129d565b92915050565b6107bf6111a5565b6107c982826112bb565b5050565b6107d56111a5565b604051637a9e5e4b60e01b81526001600160a01b038281166004830152831690637a9e5e4b906024015f604051808303815f87803b158015610815575f80fd5b505af1158015610827573d5f803e3d5ffd5b505050505050565b5f33818061083f8388888861136b565b9150915081158015610855575063ffffffff8116155b156108a857828761086688886113bc565b6040516381c6f24b60e01b81526001600160a01b0393841660048201529290911660248301526001600160e01b03191660448201526064015b60405180910390fd5b5f6108b584898989610bf6565b90505f63ffffffff83161515806108db57506108d082610a33565b65ffffffffffff1615155b156108ec576108e9826113d3565b90505b60035461093f8a6108fd8b8b6113bc565b604080516001600160a01b03939093166020808501919091526001600160e01b0319929092168382015280518084038201815260609093019052815191012090565b6003819055506109868a8a8a8080601f0160208091040260200160405190810160405280939291908181526020018383808284375f920191909152503492506114d4915050565b506003559450505050505b9392505050565b6109a06111a5565b6109b483836109ae8661077d565b8461156d565b50505050565b6001600160401b0382165f9081526001602090815260408083206001600160a01b03851684529091528120805465ffffffffffff811692918291829190610a1390660100000000000090046001600160701b03166117d4565b969991985096509350505050565b610a296111a5565b6107c982826117f5565b5f8181526002602052604081205465ffffffffffff16610a5281611898565b610a5c5780610991565b5f9392505050565b6001600160a01b0381165f908152602081905260408120600101546107b1906001600160701b031661129d565b610a996111a5565b6107c982826118c6565b610aab6111a5565b6001600160401b0383161580610ac957506001600160401b03838116145b15610af25760405163061c6a4360e21b81526001600160401b038416600482015260240161089f565b826001600160401b03167f1256f5b5ecb89caec12db449738f2fbcd1ba5806cf38f35413f4e5c15bf6a4508383604051610b2d929190612745565b60405180910390a2505050565b60408051638fb3603760e01b80825291513392918391638fb36037916004808201926020929091908290030181865afa158015610b79573d5f803e3d5ffd5b505050506040513d601f19601f82011682018060405250810190610b9d9190612760565b6001600160e01b03191614610bd057604051630641fee960e31b81526001600160a01b038216600482015260240161089f565b610776610bdf85838686610bf6565b6113d3565b610bec6111a5565b6107c9828261197c565b5f84848484604051602001610c0e949392919061277b565b604051602081830303815290604052805190602001209050949350505050565b604080515f815260208101909152606090826001600160401b03811115610c5757610c576127e2565b604051908082528060200260200182016040528015610c8a57816020015b6060815260200190600190039081610c755790505b5091505f5b83811015610d0b57610ce630868684818110610cad57610cad6126ee565b9050602002810190610cbf91906127f6565b85604051602001610cd293929190612838565b604051602081830303815290604052611a99565b838281518110610cf857610cf86126ee565b6020908102919091010152600101610c8f565b505092915050565b6001600160a01b0382165f908152602081905260408120600101548190600160701b900460ff1615610d4957505f905080610e06565b306001600160a01b03861603610da457604080516001600160a01b0386166020808301919091526001600160e01b031986168284015282518083038401815260609092019092528051910120600354145b5f91509150610e06565b6001600160a01b0384165f908152602081815260408083206001600160e01b0319871684529091528120546001600160401b03169080610de48389610e25565b9150915081610df4575f80610dfe565b63ffffffff811615815b945094505050505b935093915050565b610e166111a5565b610e208282611b0b565b505050565b5f8067fffffffffffffffe196001600160401b03851601610e4b5750600190505f610e97565b5f80610e5786866109ba565b5050915091508165ffffffffffff165f14158015610e8c5750610e78611c01565b65ffffffffffff168265ffffffffffff1611155b93509150610e979050565b9250929050565b610ea66111a5565b6107c98282611c10565b5f3381610ebd85856113bc565b90505f610ecc88888888610bf6565b5f8181526002602052604081205491925065ffffffffffff9091169003610f095760405163060a299b60e41b81526004810182905260240161089f565b826001600160a01b0316886001600160a01b031614610fd4575f610f2d5f85610e25565b506001600160a01b0389165f908152602081815260408083206001600160e01b03198816845290915281205491925090610f7990610f73906001600160401b031661021a565b86610e25565b50905081158015610f88575080155b15610fd157604051630ff89d4760e21b81526001600160a01b038087166004830152808c1660248301528a1660448201526001600160e01b03198516606482015260840161089f565b50505b5f81815260026020526040808220805465ffffffffffff1916908190559051660100000000000090910463ffffffff1691829184917fbd9ac67a6e2f6463b80927326310338bcbb4bdb7936ce1365ea3e01067e7b9f791a398975050505050505050565b5f8033816110488289898961136b565b9150505f8163ffffffff1661105b611c01565b611065919061285d565b905063ffffffff8216158061109b57505f8665ffffffffffff1611801561109b57508065ffffffffffff168665ffffffffffff16105b156110ac5782896108668a8a6113bc565b6110c68665ffffffffffff168265ffffffffffff16611ccb565b95506110d4838a8a8a610bf6565b94506110df85611ce0565b5f8581526002602052604090819020805465ffffffffffff891669ffffffffffffffffffff1982161766010000000000009182900463ffffffff90811660010190811692830291909117909255915190955086907f82a2da5dee54ea8021c6545b4444620291e07ee83be6dd57edb175062715f3b490611168908a9088908f908f908f90612883565b60405180910390a350505094509492505050565b6001600160a01b0381163314610e1657604051635f159e6360e01b815260040160405180910390fd5b335f806111b3838236611d2c565b9150915081610e20578063ffffffff165f0361120d575f6111d48136611e1e565b5060405163f07e038f60e01b81526001600160a01b03871660048201526001600160401b0382166024820152909250604401905061089f565b6109b4610bdf84305f36610bf6565b6001600160a01b0383165f818152602081815260408083206001600160e01b0319871680855290835292819020805467ffffffffffffffff19166001600160401b038716908117909155905192835292917f9ea6790c7dadfd01c9f8b9762b3682607af2c7e79e05a9f9fdf5580dde949151910160405180910390a3505050565b5f806112b1836001600160701b03166117d4565b5090949350505050565b306001600160a01b038316036112ef57604051630b40d17960e31b81526001600160a01b038316600482015260240161089f565b6001600160a01b0382165f81815260208190526040908190206001018054841515600160701b026eff000000000000000000000000000019909116179055517f90d4e7bb7e5d933792b3562e1741306f8be94837e1348dacef9b6f1df56eb1389061135f90841515815260200190565b60405180910390a25050565b5f80306001600160a01b0386160361139157611388868585611d2c565b915091506113b3565b600483106113ad576113a8868661062187876113bc565b611388565b505f9050805b94509492505050565b5f6113ca60048284866127bb565b610991916128c8565b5f8181526002602052604081205465ffffffffffff8116906601000000000000900463ffffffff1681830361141e5760405163060a299b60e41b81526004810185905260240161089f565b611426611c01565b65ffffffffffff168265ffffffffffff16111561145957604051630c65b5bd60e11b81526004810185905260240161089f565b61146282611898565b1561148357604051631e2975b960e21b81526004810185905260240161089f565b5f84815260026020526040808220805465ffffffffffff191690555163ffffffff83169186917f76a2a46953689d4861a5d3f6ed883ad7e6af674a21f8e162707159fc9dde614d9190a39392505050565b6060814710156114f95760405163cd78605960e01b815230600482015260240161089f565b5f80856001600160a01b0316848660405161151491906128f6565b5f6040518083038185875af1925050503d805f811461154e576040519150601f19603f3d011682016040523d82523d5f602084013e611553565b606091505b5091509150611563868383611ffb565b9695505050505050565b5f67fffffffffffffffe196001600160401b038616016115ab5760405163061c6a4360e21b81526001600160401b038616600482015260240161089f565b6001600160401b0385165f9081526001602090815260408083206001600160a01b038816845290915281205465ffffffffffff16159081156116ab578463ffffffff166115f6611c01565b611600919061285d565b905060405180604001604052808265ffffffffffff16815260200161162e8663ffffffff1663ffffffff1690565b6001600160701b039081169091526001600160401b0389165f9081526001602090815260408083206001600160a01b038c168452825290912083518154949092015190921666010000000000000273ffffffffffffffffffffffffffffffffffffffff1990931665ffffffffffff90911617919091179055611766565b6001600160401b0387165f9081526001602090815260408083206001600160a01b038a1684529091528120546116f79166010000000000009091046001600160701b0316908690612057565b6001600160401b0389165f9081526001602090815260408083206001600160a01b038c168452909152902080546001600160701b039093166601000000000000027fffffffffffffffffffffffff0000000000000000000000000000ffffffffffff9093169290921790915590505b6040805163ffffffff8616815265ffffffffffff831660208201528315158183015290516001600160a01b038816916001600160401b038a16917ff98448b987f1428e0e230e1f3c6e2ce15b5693eaf31827fbd0b1ec4b424ae7cf9181900360600190a35095945050505050565b5f805f6117e8846117e3611c01565b6120fd565b9250925092509193909250565b6001600160401b038216158061181357506001600160401b03828116145b1561183c5760405163061c6a4360e21b81526001600160401b038316600482015260240161089f565b6001600160401b038281165f818152600160208190526040808320909101805467ffffffffffffffff19169486169485179055517f1fd6dd7631312dfac2205b52913f99de03b4d7e381d5d27d3dbfe0713e6e63409190a35050565b5f6118a1611c01565b65ffffffffffff166118b662093a808461285d565b65ffffffffffff16111592915050565b6001600160401b03821615806118e457506001600160401b03828116145b1561190d5760405163061c6a4360e21b81526001600160401b038316600482015260240161089f565b6001600160401b038281165f81815260016020819052604080832090910180546fffffffffffffffff0000000000000000191668010000000000000000958716958602179055517f7a8059630b897b5de4c08ade69f8b90c3ead1f8596d62d10b6c4d14a0afb4ae29190a35050565b67fffffffffffffffe196001600160401b038316016119b95760405163061c6a4360e21b81526001600160401b038316600482015260240161089f565b6001600160401b0382165f908152600160208190526040822001546119f290600160801b90046001600160701b03168362069780612057565b6001600160401b0385165f818152600160208190526040918290200180546001600160701b03909516600160801b027fffff0000000000000000000000000000ffffffffffffffffffffffffffffffff9095169490941790935591519092507ffeb69018ee8b8fd50ea86348f1267d07673379f72cffdeccec63853ee8ce8b4890610b2d908590859063ffffffff92909216825265ffffffffffff16602082015260400190565b60605f80846001600160a01b031684604051611ab591906128f6565b5f60405180830381855af49150503d805f8114611aed576040519150601f19603f3d011682016040523d82523d5f602084013e611af2565b606091505b5091509150611b02858383611ffb565b95945050505050565b5f67fffffffffffffffe196001600160401b03841601611b495760405163061c6a4360e21b81526001600160401b038416600482015260240161089f565b6001600160401b0383165f9081526001602090815260408083206001600160a01b038616845290915281205465ffffffffffff169003611b8a57505f6107b1565b6001600160401b0383165f8181526001602090815260408083206001600160a01b0387168085529252808320805473ffffffffffffffffffffffffffffffffffffffff19169055519092917ff229baa593af28c41b1d16b748cd7688f0c83aaf92d4be41c44005defe84c16691a350600192915050565b5f611c0b4261214f565b905090565b6001600160a01b0382165f90815260208190526040812060010154611c42906001600160701b03168362069780612057565b6001600160a01b0385165f818152602081815260409182902060010180546dffffffffffffffffffffffffffff19166001600160701b039690961695909517909455805163ffffffff8716815265ffffffffffff841694810194909452919350917fa56b76017453f399ec2327ba00375dbfb1fd070ff854341ad6191e6a2e2de19c9101610b2d565b5f818311611cd95781610991565b5090919050565b5f8181526002602052604090205465ffffffffffff168015801590611d0b5750611d0981611898565b155b156107c95760405163813e945960e01b81526004810183905260240161089f565b5f806004831015611d4157505f905080610e06565b306001600160a01b03861603611da557610d9a30611d5f86866113bc565b604080516001600160a01b03939093166020808501919091526001600160e01b031992909216838201528051808403820181526060909301905281519101206003541490565b5f805f611db28787611e1e565b92509250925082611dcb575f8094509450505050610e06565b5f80611dd7848b610e25565b9150915081611df0575f80965096505050505050610e06565b611e068363ffffffff168263ffffffff16611ccb565b63ffffffff8116159b909a5098505050505050505050565b5f80806004841015611e3757505f915081905080611ff4565b5f611e4286866113bc565b90506001600160e01b031981166310a6aa3760e31b1480611e7357506001600160e01b031981166330cae18760e01b145b80611e8e57506001600160e01b0319811663294b14a960e11b145b80611ea957506001600160e01b03198116635326cae760e11b145b80611ec457506001600160e01b0319811663d22b598960e01b145b15611ed95760015f8093509350935050611ff4565b6001600160e01b0319811663063fc60f60e21b1480611f0857506001600160e01b0319811663167bd39560e01b145b80611f2357506001600160e01b031981166308d6122d60e01b145b15611f62575f611f3760246004888a6127bb565b810190611f449190612446565b90505f611f5082610a64565b600196505f95509350611ff492505050565b6001600160e01b0319811663012e238d60e51b1480611f9157506001600160e01b03198116635be958b160e11b145b15611fe9575f611fa560246004888a6127bb565b810190611fb29190612282565b90506001611fdb826001600160401b039081165f90815260016020819052604090912001541690565b5f9450945094505050611ff4565b5f805f935093509350505b9250925092565b6060826120105761200b82612185565b610991565b815115801561202757506001600160a01b0384163b155b1561205057604051639996b31560e01b81526001600160a01b038516600482015260240161089f565b5080610991565b5f805f61206c866001600160701b031661129d565b90505f6120a78563ffffffff168763ffffffff168463ffffffff1611612092575f61209c565b61209c8885612911565b63ffffffff16611ccb565b90508063ffffffff166120b8611c01565b6120c2919061285d565b925063ffffffff8616602083901b67ffffffff0000000016604085901b6dffffffffffff000000000000000016171793505050935093915050565b5f808069ffffffffffffffffffff602086901c166001600160701b03861665ffffffffffff604088901c811690871681111561213b5782828261213f565b815f805b9550955095505050509250925092565b5f65ffffffffffff821115612181576040516306dfcc6560e41b8152603060048201526024810183905260440161089f565b5090565b8051156121955780518082602001fd5b604051630a12f52160e11b815260040160405180910390fd5b50565b6001600160a01b03811681146121ae575f80fd5b5f8083601f8401126121d5575f80fd5b5081356001600160401b038111156121eb575f80fd5b6020830191508360208260051b8501011115610e97575f80fd5b80356001600160401b038116811461221b575f80fd5b919050565b5f805f8060608587031215612233575f80fd5b843561223e816121b1565b935060208501356001600160401b03811115612258575f80fd5b612264878288016121c5565b9094509250612277905060408601612205565b905092959194509250565b5f60208284031215612292575f80fd5b61099182612205565b5f80604083850312156122ac575f80fd5b82356122b7816121b1565b9150602083013580151581146122cb575f80fd5b809150509250929050565b5f80604083850312156122e7575f80fd5b82356122f2816121b1565b915060208301356122cb816121b1565b5f8083601f840112612312575f80fd5b5081356001600160401b03811115612328575f80fd5b602083019150836020828501011115610e97575f80fd5b5f805f60408486031215612351575f80fd5b833561235c816121b1565b925060208401356001600160401b03811115612376575f80fd5b61238286828701612302565b9497909650939450505050565b803563ffffffff8116811461221b575f80fd5b5f805f606084860312156123b4575f80fd5b6123bd84612205565b925060208401356123cd816121b1565b91506123db6040850161238f565b90509250925092565b5f80604083850312156123f5575f80fd5b6122f283612205565b5f806040838503121561240f575f80fd5b61241883612205565b915061242660208401612205565b90509250929050565b5f6020828403121561243f575f80fd5b5035919050565b5f60208284031215612456575f80fd5b8135610991816121b1565b6001600160e01b0319811681146121ae575f80fd5b5f8060408385031215612487575f80fd5b8235612492816121b1565b915060208301356122cb81612461565b5f805f604084860312156124b4575f80fd5b61235c84612205565b5f80604083850312156124ce575f80fd5b6124d783612205565b91506124266020840161238f565b5f805f80606085870312156124f8575f80fd5b8435612503816121b1565b93506020850135612513816121b1565b925060408501356001600160401b0381111561252d575f80fd5b61253987828801612302565b95989497509550505050565b5f8060208385031215612556575f80fd5b82356001600160401b0381111561256b575f80fd5b612577858286016121c5565b90969095509350505050565b5f5b8381101561259d578181015183820152602001612585565b50505f910152565b5f602080830181845280855180835260408601915060408160051b87010192508387015f5b8281101561261057878503603f19018452815180518087526125f1818989018a8501612583565b601f01601f1916959095018601945092850192908501906001016125ca565b5092979650505050505050565b5f805f6060848603121561262f575f80fd5b833561263a816121b1565b9250602084013561264a816121b1565b9150604084013561265a81612461565b809150509250925092565b5f8060408385031215612676575f80fd5b82356124d7816121b1565b5f805f8060608587031215612694575f80fd5b843561269f816121b1565b935060208501356001600160401b038111156126b9575f80fd5b6126c587828801612302565b909450925050604085013565ffffffffffff811681146126e3575f80fd5b939692955090935050565b634e487b7160e01b5f52603260045260245ffd5b5f60208284031215612712575f80fd5b813561099181612461565b81835281816020850137505f828201602090810191909152601f909101601f19169091010190565b602081525f61275860208301848661271d565b949350505050565b5f60208284031215612770575f80fd5b815161099181612461565b5f6001600160a01b0380871683528086166020840152506060604083015261156360608301848661271d565b634e487b7160e01b5f52601160045260245ffd5b5f80858511156127c9575f80fd5b838611156127d5575f80fd5b5050820193919092039150565b634e487b7160e01b5f52604160045260245ffd5b5f808335601e1984360301811261280b575f80fd5b8301803591506001600160401b03821115612824575f80fd5b602001915036819003821315610e97575f80fd5b828482375f8382015f81528351612853818360208801612583565b0195945050505050565b65ffffffffffff81811683821601908082111561287c5761287c6127a7565b5092915050565b65ffffffffffff861681525f6001600160a01b038087166020840152808616604084015250608060608301526128bd60808301848661271d565b979650505050505050565b6001600160e01b03198135818116916004851015610d0b5760049490940360031b84901b1690921692915050565b5f8251612907818460208701612583565b9190910192915050565b63ffffffff82811682821603908082111561287c5761287c6127a756fea164736f6c6343000816000a",
  "linkReferences": {},
  "deployedLinkReferences": {}
}