{
  "_format": "hh-sol-artifact-1",
  "contractName": "AccessControl",
  "sourceName": "contracts/AccessControl.sol",
  "abi": [
    {
      "inputs": [
        {
          "internalType": "address",
          "name": "admin",
          "type": "address"
        }
      ],
      "stateMutability": "nonpayable",
      "type": "constructor"
    },
    {
      "inputs": [
        {
          "internalType": "address",
          "name": "authority",
          "type": "address"
        }
      ],
      "name": "AccessManagedInvalidAuthority",
      "type": "error"
    },
    {
      "inputs": [
        {
          "internalType": "address",
          "name": "caller",
          "type": "address"
        },
        {
          "internalType": "uint32",
          "name": "delay",
          "type": "uint32"
        }
      ],
      "name": "AccessManagedRequiredDelay",
      "type": "error"
    },
    {
      "inputs": [
        {
          "internalType": "address",
          "name": "caller",
          "type": "address"
        }
      ],
      "name": "AccessManagedUnauthorized",
      "type": "error"
    },
    {
      "anonymous": false,
      "inputs": [
        {
          "indexed": false,
          "internalType": "address",
          "name": "authority",
          "type": "address"
        }
      ],
      "name": "AuthorityUpdated",
      "type": "event"
    },
    {
      "inputs": [],
      "name": "authority",
      "outputs": [
        {
          "internalType": "address",
          "name": "",
          "type": "address"
        }
      ],
      "stateMutability": "view",
      "type": "function"
    },
    {
      "inputs": [],
      "name": "isConsumingScheduledOp",
      "outputs": [
        {
          "internalType": "bytes4",
          "name": "",
          "type": "bytes4"
        }
      ],
      "stateMutability": "view",
      "type": "function"
    },
    {
      "inputs": [],
      "name": "reset",
      "outputs": [],
      "stateMutability": "nonpayable",
      "type": "function"
    },
    {
      "inputs": [
        {
          "internalType": "uint16",
          "name": "val",
          "type": "uint16"
        }
      ],
      "name": "set",
      "outputs": [],
      "stateMutability": "nonpayable",
      "type": "function"
    },
    {
      "inputs": [
        {
          "internalType": "address",
          "name": "newAuthority",
          "type": "address"
        }
      ],
      "name": "setAuthority",
      "outputs": [],
      "stateMutability": "nonpayable",
      "type": "function"
    },
    {
      "inputs": [],
      "name": "value",
      "outputs": [
        {
          "internalType": "uint16",
          "name": "",
          "type": "uint16"
        }
      ],
      "stateMutability": "view",
      "type": "function"
    }
  ],
  "bytecode": "0x60803461009d57601f61054238819003918201601f19168301916001600160401b038311848410176100a15780849260209460405283398101031261009d57516001600160a01b0381169081900361009d575f80546001600160a01b031916821790556040519081527f2f658b440c35314f52658ea8a740e05b284cdc84dc9ae01e891f21b8933e7cad90602090a160405161048c90816100b68239f35b5f80fd5b634e487b7160e01b5f52604160045260245ffdfe608060409080825260049182361015610016575f80fd5b5f925f35928360e01c9384630abbf073146101c757505082633fa4f245146101a35782637a9e5e4b146100fc575081638fb36037146100b7578163bf7e214f1461008b575063d826f88f14610069575f80fd5b34610088578060031936011261008857805461ffff60a81b1916815580f35b80fd5b9050346100b357816003193601126100b357905490516001600160a01b039091168152602090f35b5080fd5b9050346100b357816003193601126100b3578160ff6020935460a01c165f146100f65750638fb3603760e01b905b516001600160e01b03199091168152f35b906100e5565b8390346100b35760203660031901126100b3576001600160a01b038135818116929083810361019f578454928316330361018a573b1561017357506001600160a01b0319168117825582519081527f2f658b440c35314f52658ea8a740e05b284cdc84dc9ae01e891f21b8933e7cad90602090a180f35b84516361798f2f60e11b8152908101839052602490fd5b855162d1953b60e31b81523381840152602490fd5b8480fd5b8382346100b357816003193601126100b35761ffff6020925460a81c169051908152f35b85933461037857602091826003193601126103785784359461ffff86168603610378575f54946001600160a01b03861694368311610378575f809180840163b700961360e01b8152602496338887015230604487015263ffffffff60e01b1660648601526064855260a085019467ffffffffffffffff9581811087821117610437578952515f918291908b5afa903d1561042e573d9185831161041c57885192601f8101601f19908116603f011684018781118582101761040a578a52835288903d5f8486013e5b610390575b505050156102bb575b5f805461ffff60a81b191660a88a901b61ffff60a81b161790558880f35b63ffffffff161561037c5760ff60a01b19958616600160a01b175f55843b15610378575f84518096634a63ebf760e11b8252338583015286868301523660448301523683606484013782606436840101528183606482601f19601f36011681010301925af1801561036e57610341575b505050505082541682558280808080808061029d565b90919293809597501161035d575050525f91838080808061032b565b604190634e487b7160e01b5f52525ffd5b84513d5f823e3d90fd5b5f80fd5b5082519062d1953b60e31b82523390820152fd5b825192949193909291908383106103d3575050839081010312610378576103b986918301610449565b91015163ffffffff8116810361037857905b8a8087610294565b938281939296945010156103ea575b5050506103cb565b82935091819281010312610378576104029101610449565b8a80806103e2565b8960418a634e487b7160e01b5f52525ffd5b87604188634e487b7160e01b5f52525ffd5b8760609261028f565b88604189634e487b7160e01b5f52525ffd5b519081151582036103785756fea264697066735822122037e05ccdde72784028a498609ba52605e85d3a7d3e9580250b460ad164339e4564736f6c63430008180033",
  "linkReferences": {},
  "deployedLinkReferences": {}
}