{
  "_format": "hh-sol-artifact-1",
  "contractName": "Auction",
  "sourceName": "contracts/Auction.sol",
  "abi": [
    {
      "inputs": [
        {
          "internalType": "address",
          "name": "adminContract_",
          "type": "address"
        },
        {
          "internalType": "address",
          "name": "creator_",
          "type": "address"
        },
        {
          "internalType": "bool",
          "name": "isSelling_",
          "type": "bool"
        },
        {
          "internalType": "bool",
          "name": "transferrable_",
          "type": "bool"
        },
        {
          "internalType": "string",
          "name": "category_",
          "type": "string"
        },
        {
          "internalType": "uint128",
          "name": "orderId_",
          "type": "uint128"
        },
        {
          "internalType": "uint32",
          "name": "reserve_",
          "type": "uint32"
        },
        {
          "internalType": "uint256",
          "name": "portion_",
          "type": "uint256"
        },
        {
          "internalType": "uint256",
          "name": "unitAmount_",
          "type": "uint256"
        },
        {
          "internalType": "uint256",
          "name": "memberThreshold_",
          "type": "uint256"
        }
      ],
      "stateMutability": "nonpayable",
      "type": "constructor"
    },
    {
      "inputs": [
        {
          "internalType": "address",
          "name": "authority",
          "type": "address"
        }
      ],
      "name": "AccessManagedInvalidAuthority",
      "type": "error"
    },
    {
      "inputs": [
        {
          "internalType": "address",
          "name": "caller",
          "type": "address"
        },
        {
          "internalType": "uint32",
          "name": "delay",
          "type": "uint32"
        }
      ],
      "name": "AccessManagedRequiredDelay",
      "type": "error"
    },
    {
      "inputs": [
        {
          "internalType": "address",
          "name": "caller",
          "type": "address"
        }
      ],
      "name": "AccessManagedUnauthorized",
      "type": "error"
    },
    {
      "inputs": [
        {
          "internalType": "bytes32",
          "name": "key",
          "type": "bytes32"
        }
      ],
      "name": "EnumerableMapNonexistentKey",
      "type": "error"
    },
    {
      "anonymous": false,
      "inputs": [
        {
          "indexed": false,
          "internalType": "address",
          "name": "authority",
          "type": "address"
        }
      ],
      "name": "AuthorityUpdated",
      "type": "event"
    },
    {
      "inputs": [],
      "name": "adminContract",
      "outputs": [
        {
          "internalType": "address",
          "name": "",
          "type": "address"
        }
      ],
      "stateMutability": "view",
      "type": "function"
    },
    {
      "inputs": [],
      "name": "authority",
      "outputs": [
        {
          "internalType": "address",
          "name": "",
          "type": "address"
        }
      ],
      "stateMutability": "view",
      "type": "function"
    },
    {
      "inputs": [],
      "name": "bidNum",
      "outputs": [
        {
          "internalType": "uint256",
          "name": "",
          "type": "uint256"
        }
      ],
      "stateMutability": "view",
      "type": "function"
    },
    {
      "inputs": [
        {
          "internalType": "uint128",
          "name": "orderId_",
          "type": "uint128"
        }
      ],
      "name": "cancelBid",
      "outputs": [],
      "stateMutability": "nonpayable",
      "type": "function"
    },
    {
      "inputs": [],
      "name": "category",
      "outputs": [
        {
          "internalType": "string",
          "name": "",
          "type": "string"
        }
      ],
      "stateMutability": "view",
      "type": "function"
    },
    {
      "inputs": [],
      "name": "closeAuction",
      "outputs": [],
      "stateMutability": "nonpayable",
      "type": "function"
    },
    {
      "inputs": [],
      "name": "completeAuction",
      "outputs": [],
      "stateMutability": "nonpayable",
      "type": "function"
    },
    {
      "inputs": [
        {
          "internalType": "uint128",
          "name": "parentOrderId_",
          "type": "uint128"
        },
        {
          "internalType": "uint128",
          "name": "orderId_",
          "type": "uint128"
        },
        {
          "internalType": "uint256",
          "name": "portion_",
          "type": "uint256"
        },
        {
          "internalType": "uint256",
          "name": "unitPrice_",
          "type": "uint256"
        }
      ],
      "name": "createTransfer",
      "outputs": [],
      "stateMutability": "nonpayable",
      "type": "function"
    },
    {
      "inputs": [],
      "name": "creator",
      "outputs": [
        {
          "internalType": "address",
          "name": "",
          "type": "address"
        }
      ],
      "stateMutability": "view",
      "type": "function"
    },
    {
      "inputs": [
        {
          "internalType": "uint128",
          "name": "orderId_",
          "type": "uint128"
        }
      ],
      "name": "feeDeducted",
      "outputs": [],
      "stateMutability": "nonpayable",
      "type": "function"
    },
    {
      "inputs": [
        {
          "internalType": "uint128",
          "name": "",
          "type": "uint128"
        }
      ],
      "name": "feeDeduction",
      "outputs": [
        {
          "internalType": "bool",
          "name": "",
          "type": "bool"
        }
      ],
      "stateMutability": "view",
      "type": "function"
    },
    {
      "inputs": [
        {
          "internalType": "uint128",
          "name": "orderId_",
          "type": "uint128"
        }
      ],
      "name": "feeReleased",
      "outputs": [],
      "stateMutability": "nonpayable",
      "type": "function"
    },
    {
      "inputs": [],
      "name": "finalPrice",
      "outputs": [
        {
          "internalType": "euint32",
          "name": "",
          "type": "uint256"
        }
      ],
      "stateMutability": "view",
      "type": "function"
    },
    {
      "inputs": [
        {
          "internalType": "bytes32",
          "name": "publicKey",
          "type": "bytes32"
        }
      ],
      "name": "getMyBid",
      "outputs": [
        {
          "internalType": "bytes",
          "name": "price_",
          "type": "bytes"
        },
        {
          "internalType": "bytes",
          "name": "portion_",
          "type": "bytes"
        }
      ],
      "stateMutability": "view",
      "type": "function"
    },
    {
      "inputs": [
        {
          "internalType": "bytes32",
          "name": "publicKey",
          "type": "bytes32"
        }
      ],
      "name": "getMyResult",
      "outputs": [
        {
          "internalType": "bytes",
          "name": "price_",
          "type": "bytes"
        },
        {
          "internalType": "bytes",
          "name": "portion_",
          "type": "bytes"
        }
      ],
      "stateMutability": "view",
      "type": "function"
    },
    {
      "inputs": [
        {
          "internalType": "bytes32",
          "name": "publicKey",
          "type": "bytes32"
        },
        {
          "internalType": "uint256",
          "name": "index",
          "type": "uint256"
        }
      ],
      "name": "getResultAt",
      "outputs": [
        {
          "internalType": "address",
          "name": "bidder_",
          "type": "address"
        },
        {
          "internalType": "bytes",
          "name": "price_",
          "type": "bytes"
        },
        {
          "internalType": "bytes",
          "name": "portion_",
          "type": "bytes"
        }
      ],
      "stateMutability": "view",
      "type": "function"
    },
    {
      "inputs": [],
      "name": "isConsumingScheduledOp",
      "outputs": [
        {
          "internalType": "bytes4",
          "name": "",
          "type": "bytes4"
        }
      ],
      "stateMutability": "view",
      "type": "function"
    },
    {
      "inputs": [],
      "name": "isSelling",
      "outputs": [
        {
          "internalType": "bool",
          "name": "",
          "type": "bool"
        }
      ],
      "stateMutability": "view",
      "type": "function"
    },
    {
      "inputs": [
        {
          "internalType": "uint128",
          "name": "orderId",
          "type": "uint128"
        }
      ],
      "name": "listedContract",
      "outputs": [
        {
          "internalType": "address",
          "name": "listingAddress",
          "type": "address"
        }
      ],
      "stateMutability": "view",
      "type": "function"
    },
    {
      "inputs": [],
      "name": "mainOrderId",
      "outputs": [
        {
          "internalType": "uint128",
          "name": "",
          "type": "uint128"
        }
      ],
      "stateMutability": "view",
      "type": "function"
    },
    {
      "inputs": [],
      "name": "memberThreshold",
      "outputs": [
        {
          "internalType": "uint256",
          "name": "",
          "type": "uint256"
        }
      ],
      "stateMutability": "view",
      "type": "function"
    },
    {
      "inputs": [],
      "name": "openAuction",
      "outputs": [],
      "stateMutability": "nonpayable",
      "type": "function"
    },
    {
      "inputs": [
        {
          "internalType": "uint128",
          "name": "orderId_",
          "type": "uint128"
        },
        {
          "internalType": "bytes",
          "name": "price_",
          "type": "bytes"
        },
        {
          "internalType": "bytes",
          "name": "portion_",
          "type": "bytes"
        }
      ],
      "name": "placeBid",
      "outputs": [],
      "stateMutability": "nonpayable",
      "type": "function"
    },
    {
      "inputs": [],
      "name": "portion",
      "outputs": [
        {
          "internalType": "uint256",
          "name": "",
          "type": "uint256"
        }
      ],
      "stateMutability": "view",
      "type": "function"
    },
    {
      "inputs": [],
      "name": "reserve",
      "outputs": [
        {
          "internalType": "uint32",
          "name": "",
          "type": "uint32"
        }
      ],
      "stateMutability": "view",
      "type": "function"
    },
    {
      "inputs": [
        {
          "internalType": "address",
          "name": "newAuthority",
          "type": "address"
        }
      ],
      "name": "setAuthority",
      "outputs": [],
      "stateMutability": "nonpayable",
      "type": "function"
    },
    {
      "inputs": [],
      "name": "splittable",
      "outputs": [
        {
          "internalType": "bool",
          "name": "splittable_",
          "type": "bool"
        }
      ],
      "stateMutability": "view",
      "type": "function"
    },
    {
      "inputs": [],
      "name": "state",
      "outputs": [
        {
          "internalType": "enum IStateful.State",
          "name": "",
          "type": "uint8"
        }
      ],
      "stateMutability": "view",
      "type": "function"
    },
    {
      "inputs": [],
      "name": "terminateAuction",
      "outputs": [],
      "stateMutability": "nonpayable",
      "type": "function"
    },
    {
      "inputs": [],
      "name": "transferrable",
      "outputs": [
        {
          "internalType": "bool",
          "name": "",
          "type": "bool"
        }
      ],
      "stateMutability": "view",
      "type": "function"
    },
    {
      "inputs": [],
      "name": "unitAmount",
      "outputs": [
        {
          "internalType": "uint256",
          "name": "",
          "type": "uint256"
        }
      ],
      "stateMutability": "view",
      "type": "function"
    },
    {
      "inputs": [],
      "name": "winnerNum",
      "outputs": [
        {
          "internalType": "uint256",
          "name": "",
          "type": "uint256"
        }
      ],
      "stateMutability": "view",
      "type": "function"
    }
  ],
  "bytecode": "0x608060405234620003e8576200532e803803806200001d8162000400565b928339810161014082820312620003e857620000398262000426565b6020926200004984820162000426565b9062000058604082016200043b565b62000066606083016200043b565b60808301516001600160401b039591939190868111620003e857820196601f97818982011215620003e8578051908882116200037b57601f1991620000b18b820184168d0162000400565b938185528c8284010111620003e8578b915f5b828110620003ec5750505f9084019091015260a08401516001600160801b03811699908a9003620003e85760c08501519263ffffffff8416809403620003e8577f2f658b440c35314f52658ea8a740e05b284cdc84dc9ae01e891f21b8933e7cad988c9760e0880151966101206101008a01519901519960018060a01b038092169c8d9160018060a01b03199e8f5f5416175f55604051838152a188151580620003de575b80620003d4575b156200038f5760018054909d16178c55600280546001600160a81b031916919093161790151560a01b60ff60a01b161790558051928a84116200037b57600354808b1c908b168e811562000370575b8210146200035c5780848f921162000311575b50508c928411600114620002a7575060ff98999a9b509082915f926200029b575b505081891b915f199060031b1c1916176003555b63ffffffff196004541617600455600555600655600755600254908260a81b90151560a81b16908260a81b1916178060025581196008541660085560a01c165f14620002885768030000000000000000905b600e549060018060801b03199384911691161717600e55600b541617600b55604051614ee490816200044a8239f35b5068030000000000000000600262000259565b015190505f80620001f3565b831660035f528c5f209c5f905b828210620002f957505091899a9b9c918460ff9b959410620002e0575b505050811b0160035562000207565b01515f1960f88460031b161c191690555f8080620002d1565b838501518f559d8b019d9384019390810190620002b4565b60035f5284825f209181880160051c830193881062000352575b0160051c01908b905b8281106200034657508e9150620001d2565b5f8155018b9062000334565b925081926200032b565b634e487b7160e01b5f52602260045260245ffd5b91607f1691620001bf565b634e487b7160e01b5f52604160045260245ffd5b5060648f6040519062461bcd60e51b82526004820152601460248201527f496e76616c696420626173696320696e666f732e0000000000000000000000006044820152fd5b508a151562000170565b5089151562000169565b5f80fd5b8181018401518682018501528301620000c4565b6040519190601f01601f191682016001600160401b038111838210176200037b57604052565b51906001600160a01b0382168203620003e857565b51908115158203620003e85756fe608080604052600436101562000013575f80fd5b5f905f358060e01c918263024aa5681462001e135750816302d05d3f1462001de9578163047a7ef11462001dc257816304cb72f91462001d845781630e17e1e714620014955781630e64943414620012445750806311ee0bc71462001225578063146479b014620011db5780631541691a146200119a578063373f05bb146200117b578063378252f2146200113557806342370cb814620010745780634d1a2c541462000be05780635297e0f61462000b225780635f1918671462000ade578063774b141f1462000a785780637a9e5e4b14620009cf578063897b942014620008ac5780638fb360371462000865578063a5ec23f61462000846578063a6b513ee1462000827578063a930406a1462000808578063b82926b914620007e6578063bf7e214f14620007bd578063c05c5e941462000793578063c19d93fb1462000767578063c97990af146200073f578063cbf218371462000718578063cd3293de14620006f3578063e6127fe41462000530578063ef430aa614620004e65763f6cdf2a214620001a1575f80fd5b34620004405760803660031901126200044057620001be62001e2f565b6024356001600160801b0391828216928383036200044057604435906064359360ff60085416956006871015620004d257620001fe600389981462002090565b5f526020601381526200021860ff60405f205416620020dd565b8483165f818152600c835260409020546001600160a01b03908116948515620002bf5750505050813b15620002bb576040516303f2758960e51b81526001600160801b03948516600482015293166024840152604483019190915260648201929092529082908290608490829084905af18015620002b0576200029a57505080f35b620002a59062001e62565b620002ad5780f35b80fd5b6040513d84823e3d90fd5b8580fd5b9196985091969350620002dd620002d63362002b74565b50620021b1565b60025460ff8160a81c1615620004955763ffffffff6200030862000300620025ae565b9050620029dd565b169182156200045857836001541690600b54169060065460405194611e5891828701918783106001600160401b0384111762000444576200037f6001958f8a9960ff9161014098620030578d39610160938852339088015260a01c1615156040860152866060860152806080860152840162001f92565b9560a08401528c60c084015260e08301526101008201525f610120820152015203905ff0801562000435571695863b1562000440576040516303f2758960e51b81526001600160801b03918216600482015291166024820152604481019290925260648201525f8160848183885af1801562000435576200041a575b508352600c90526040822080546001600160a01b031916909117905580f35b600c929194506200042b9062001e62565b5f939091620003fb565b6040513d5f823e3d90fd5b5f80fd5b634e487b7160e01b5f52604160045260245ffd5b60405162461bcd60e51b8152600481018a905260156024820152742cb7ba9030b932903737ba1030903bb4b73732b91760591b6044820152606490fd5b60405162461bcd60e51b81526004810189905260156024820152742a3930b739b332b9103737ba1030b63637bbb2b21760591b6044820152606490fd5b634e487b7160e01b5f52602160045260245ffd5b3462000440575f36600319011262000440576200052c60405162000517816200050f8162001f92565b038262001e92565b60405191829160208352602083019062001f3f565b0390f35b346200044057602080600319360112620004405760043560ff60085416916006831015620004d257916200056690151562002090565b6200057d620005753362002b74565b9190620021b1565b6200058762002967565b926200059262002967565b915f91600f54915b828410620005cd5786620005bb87620005b4818962002a57565b9262002a57565b906200052c6040519283928362001f66565b90919293620005f0620005e08662002560565b505463ffffffff84169062002b0a565b906002620005fe8762002560565b500154916040519163cb3b940760e01b8084528260048501526024948585015260449a8b850152606491605d9088868581855afa8015620004355789965f91620006be575b509c6001620006528d62002560565b5001546040519889978896875260048701528501528301525afa801562000435575f906200068a575b6001915094019291906200059a565b508281813d8311620006b6575b620006a3818362001e92565b810103126200044057600190516200067b565b503d62000697565b87819892503d8311620006eb575b620006d8818362001e92565b8101031262000440578895518e62000643565b503d620006cc565b3462000440575f3660031901126200044057602063ffffffff60045416604051908152f35b3462000440575f3660031901126200044057602060ff60025460a01c166040519015158152f35b3462000440575f366003190112620004405760206001600160801b03600b5416604051908152f35b3462000440575f366003190112620004405760ff600854166040516006821015620004d2576020918152f35b3462000440575f36600319011262000440576001546040516001600160a01b039091168152602090f35b3462000440575f36600319011262000440575f546040516001600160a01b039091168152602090f35b3462000440575f36600319011262000440576020600160055411604051908152f35b3462000440575f36600319011262000440576020600654604051908152f35b3462000440575f36600319011262000440576020601454604051908152f35b3462000440575f36600319011262000440576020600a54604051908152f35b3462000440575f36600319011262000440575f5460a01c60ff1615620008a3576020638fb3603760e01b5b6040516001600160e01b03199091168152f35b60205f62000890565b34620004405760203660031901126200044057620008c962001e2f565b60ff60085416906006821015620004d257620008f060016001600160801b03931462002090565b165f52601360205260ff60405f20541662000996576200091b335f52601060205260405f2054151590565b156200095b57620009406200093a620009343362002a0d565b620029a1565b6200271a565b335f5260116020525f6040812055620009593362002c44565b005b60405162461bcd60e51b815260206004820152601360248201527227379039bab1b4103134b21032bc34b9ba399760691b6044820152606490fd5b60405162461bcd60e51b81526020600482015260116024820152702332b2903737ba103932b632b0b9b2b21760791b6044820152606490fd5b346200044057602036600319011262000440576004356001600160a01b038181169182810362000440575f54918216330362000a61573b1562000a48576001600160a01b03191681175f556040519081527f2f658b440c35314f52658ea8a740e05b284cdc84dc9ae01e891f21b8933e7cad90602090a1005b6040516361798f2f60e11b815260048101839052602490fd5b60405162d1953b60e31b8152336004820152602490fd5b3462000440576020366003190112620004405760043560ff600854166006811015620004d25780600362000ab7921490811562000ad2575b5062002090565b620005bb81620005b462000aca620025ae565b949062002a57565b60059150148362000ab0565b346200044057602036600319011262000440576001600160801b0362000b0362001e2f565b165f52600c602052602060018060a01b0360405f205416604051908152f35b3462000440576020366003190112620004405762000b3f62001e2f565b62000b4b363362002312565b60ff600854166006811015620004d2576001811490811562000bd4575b501562000b8f576001600160801b03165f908152601360205260409020805460ff19169055005b60405162461bcd60e51b815260206004820152601e60248201527f57726f6e672073746174652e20466565206e6f742072656c65617365642e00006044820152606490fd5b60039150148262000b68565b3462000440575f366003190112620004405762000bfe363362002312565b60ff600854166006811015620004d257600262000c1c911462002090565b62000c29600554620029a1565b62000c3362002967565b62000c3d62002967565b9162000c4862002967565b6014555f602060405162000c5c8162001e46565b82815201525f602060405162000c728162001e46565b82815201525f925b6009548410156200104d5762000c9e600162000c968662002560565b500162002070565b9360208551950151928084156200103a575b811562001029575b60405194632a1f7ab160e21b8652600486015260248501525f6044850152602084606481605d5afa93841562000435575f9462000fef575b5083811562000fdc575b841562000fcb575b60405191638c14cc2160e01b8352600483015260248201525f6044820152602081606481605d5afa90811562000435575f9162000f93575b509462000d5162000d4a62002967565b85620022a2565b604051631ce2e8d760e31b815260016004820152600160fa1b60248201529093602082604481605d5afa91821562000435575f9262000f59575b50818192821562000f46575b1562000f35575b6040519263f953e42760e01b8452600484015260248301525f6044830152602082606481605d5afa91821562000435575f9262000efb575b506040519163cb3b940760e01b835285600484015260248301526044820152602081606481605d5afa90811562000435575f9162000ec3575b50946040519363cb3b940760e01b855260048501528160248501526044840152602083606481605d5afa92831562000435575f9362000e88575b506002600193946040519262000e5f8462001e46565b83526020830190815262000e738462002560565b50925185840155519101550192909162000c7a565b92506020833d60201162000eba575b8162000ea66020938362001e92565b810103126200044057915191600262000e49565b3d915062000e97565b90506020813d60201162000ef2575b8162000ee16020938362001e92565b810103126200044057518762000e0f565b3d915062000ed2565b9091506020813d60201162000f2c575b8162000f1a6020938362001e92565b81010312620004405751908862000dd6565b3d915062000f0b565b5062000f4062002967565b62000d9e565b925062000f5262002967565b9262000d97565b9091506020813d60201162000f8a575b8162000f786020938362001e92565b81010312620004405751908862000d8b565b3d915062000f69565b90506020813d60201162000fc2575b8162000fb16020938362001e92565b810103126200044057518662000d3a565b3d915062000fa2565b5062000fd662002967565b62000d02565b905062000fe862002967565b9062000cfa565b9093506020813d60201162001020575b816200100e6020938362001e92565b81010312620004405751928662000cf0565b3d915062000fff565b506200103462002967565b62000cb8565b93506200104662002967565b9362000cb0565b63ffffffff6200105e8492620029dd565b16600a556014556008805460ff19166003179055005b346200044057602036600319011262000440576200109162001e2f565b6200109d363362002312565b60ff600854166006811015620004d2576001811490811562001129575b5015620010e4576001600160801b03165f908152601360205260409020805460ff19166001179055005b60405162461bcd60e51b815260206004820152601e60248201527f57726f6e672073746174652e20466565206e6f742064656475637465642e00006044820152606490fd5b600391501482620010ba565b3462000440575f366003190112620004405762001153363362002312565b60ff600854166006811015620004d257600162001171911462002090565b6200095962002183565b3462000440575f36600319011262000440576020600754604051908152f35b346200044057602036600319011262000440576001600160801b03620011bf62001e2f565b165f526013602052602060ff60405f2054166040519015158152f35b3462000440575f3660031901126200044057620011f9363362002312565b60085460ff8116906006821015620004d2576200121b60036005931462002090565b60ff191617600855005b3462000440575f36600319011262000440576020600554604051908152f35b3462000440576040366003190112620004405760043560243560ff600854166006811015620004d25780600362001285921490811562001489575062002090565b6002546001600160a01b0393908416330362001330575b50600a54811015620004405762001303620012c6620012bf6200052c9362002560565b506200215a565b9363ffffffff620012d88651620029dd565b165f52601260205260405f20541692602080620012f88360145462002a57565b960151015162002a57565b62001321604051948594855260606020860152606085019062001f3f565b90838203604085015262001f3f565b5f54604051636d5115bd60e01b81523060048201526001600160e01b03199092166024830152841690602081604481855afa90811562000435575f9162001439575b506001600160401b036044604092835194859384926368fc2b7760e11b84521660048301523360248301525afa90811562000435575f9162001402575b5015620013bd57836200129c565b60405162461bcd60e51b815260206004820152601d60248201527f4e6f7420617574686f72697a656420746f2067657420726573756c742e0000006044820152606490fd5b62001429915060403d60401162001431575b62001420818362001e92565b8101906200212c565b5084620013af565b503d62001414565b90506020813d60201162001480575b81620014576020938362001e92565b810103126200044057516001600160401b038116810362000440576001600160401b0362001372565b3d915062001448565b60059150148562000ab0565b34620004405760603660031901126200044057620014b262001e2f565b6024356001600160401b0381116200044057620014d490369060040162001ed0565b6044356001600160401b0381116200044057620014f690369060040162001ed0565b9160ff60085416916006831015620004d2576001600160801b0362001547926200152760016200154e961462002090565b165f5260136020526200154160ff60405f205416620020dd565b620028c7565b91620028c7565b620015ad6020620015696200156262002967565b84620022a2565b620015816200157a600554620029a1565b85620024f0565b604051630ccd46b160e31b8152600481019290925260248201525f604482015291829081906064820190565b0381605d5afa90811562000435575f9162001d4c575b5060025460a01c60ff161562001d2057620015e663ffffffff60045416620029a1565b8390841562001d0d575b801562001cfc575b6040519163052896f160e01b8352600483015260248201525f6044820152602081606481605d5afa90811562000435575f9162001cc1575b506200166891602091905b6040519384928392630ccd46b160e31b8452600484016040905f9294936060820195825260208201520152565b0381605d5afa801562000435575f9062001c86575b620016899150620029dd565b1562001c4d57620016a5335f52601060205260405f2054151590565b1562001bf6575b620016f490620016c0620009343362002a0d565b9060405193620016d08562001e46565b8452602084015260405192620016e68462001e46565b81845260208401526200271a565b600d54600160401b8110156200044457806001620017169201600d5562002560565b62001be3578151815560026020808401518051600185015501519101555f5b600d5490815f1981011162001bcf575f1982018110156200095957600e54916200175f8262002560565b505490811562001bbc575b604051630d7c62eb60e31b8152600481019290925261ffff6024830152600160f81b604483015260646020838281605d5afa92831562000435575f9362001b82575b50620017bc620012bf8562002560565b906001600160401b0386169081600214620019c55750600114620017ee57634e487b7160e01b5f52605160045260245ffd5b6200182f602080808901519301519262001581620018108251865190620022a2565b948380620018228551845190620021fe565b94015191015190620022a2565b0381605d5afa90811562000435575f916200198a575b50604051633b1015f760e21b8152600481019290925260248201525f604482015260208180606481015b0381605d5afa90811562000435575f916200194f575b50620018bd92602091905b6040519485928392633b1015f760e21b8452600484016040905f9294936060820195825260208201520152565b0381605d5afa91821562000435575f9262001912575b50926200190b91620018ea6001955f190162002560565b50906001600160401b03620018ff8662002560565b509360401c1662002d10565b0162001735565b9150926020823d60201162001946575b81620019316020938362001e92565b810103126200044057905190926001620018d3565b3d915062001922565b90506020813d60201162001981575b816200196d6020938362001e92565b81010312620004405751620018bd62001885565b3d91506200195e565b90506020813d602011620019bc575b81620019a86020938362001e92565b810103126200044057516200186f62001845565b3d915062001999565b9190506020808801519101518151815193811562001b6f575b841562001b56575b90602091604051958692639675211f60e01b8452600484015260248301525f604483015281605d5afa92831562000435575f9362001b19575b50816200158160209283806200182262001a3d9751845190620021fe565b0381605d5afa90811562000435575f9162001ade575b50604051633b1015f760e21b8152600481019290925260248201525f604482015260208180606481015b0381605d5afa90811562000435575f9162001aa3575b50620018bd926020919062001890565b90506020813d60201162001ad5575b8162001ac16020938362001e92565b81010312620004405751620018bd62001a93565b3d915062001ab2565b90506020813d60201162001b10575b8162001afc6020938362001e92565b8101031262000440575162001a7d62001a53565b3d915062001aed565b9092506020813d60201162001b4d575b8162001b386020938362001e92565b810103126200044057519162001a3d62001a1f565b3d915062001b29565b935060209062001b6562002967565b94909150620019e6565b905062001b7b62002967565b90620019de565b9092506020813d60201162001bb3575b8162001ba16020938362001e92565b810103126200044057519186620017ac565b3d915062001b92565b905062001bc862002967565b906200176a565b634e487b7160e01b5f52601160045260245ffd5b634e487b7160e01b5f525f60045260245ffd5b600954335f52601160205260405f205562001c113362002bd6565b50600980545f90815260126020526040902080546001600160a01b0319163317905554905f19821462001bcf57600191909101600955620016ac565b60405162461bcd60e51b815260206004820152601160248201527021b432b1b5903a34329034b7383aba399760791b6044820152606490fd5b506020813d60201162001cb8575b8162001ca36020938362001e92565b8101031262000440576200168990516200167d565b3d915062001c94565b90506020813d60201162001cf3575b8162001cdf6020938362001e92565b810103126200044057516200166862001630565b3d915062001cd0565b5062001d0762002967565b620015f8565b905062001d1962002967565b90620015f0565b6020620016689162001d4562001d3e63ffffffff60045416620029a1565b86620024f0565b906200163b565b90506020813d60201162001d7b575b8162001d6a6020938362001e92565b8101031262000440575183620015c3565b3d915062001d5b565b3462000440575f366003190112620004405762001da2363362002312565b60085460ff8116906006821015620004d2576200121b6001921562002090565b3462000440575f3660031901126200044057602060ff60025460a81c166040519015158152f35b3462000440575f36600319011262000440576002546040516001600160a01b039091168152602090f35b3462000440575f36600319011262000440576020906009548152f35b600435906001600160801b03821682036200044057565b604081019081106001600160401b038211176200044457604052565b6001600160401b0381116200044457604052565b60a081019081106001600160401b038211176200044457604052565b90601f801991011681019081106001600160401b038211176200044457604052565b6001600160401b0381116200044457601f01601f191660200190565b81601f82011215620004405780359062001eea8262001eb4565b9262001efa604051948562001e92565b828452602083830101116200044057815f926020809301838601378301015290565b5f5b83811062001f2e5750505f910152565b818101518382015260200162001f1e565b9060209162001f5a8151809281855285808601910162001f1c565b601f01601f1916010190565b909162001f8062001f8f9360408452604084019062001f3f565b91602081840391015262001f3f565b90565b905f91600354906001908260011c916001841693841562002065575b6020948585108114620020515784845290811562002033575060011462001fd6575b50505050565b929394509060035f527fc2575a0e9e593c00f959f8c92f12db2869c3395a3b0502d05e2516446f71f85b92845f945b8386106200201e57505050500101905f80808062001fd0565b80548587018301529401938590820162002005565b60ff191685840152505090151560051b010191505f80808062001fd0565b634e487b7160e01b5f52602260045260245ffd5b92607f169262001fae565b906040516200207f8162001e46565b602060018294805484520154910152565b156200209857565b60405162461bcd60e51b815260206004820152601b60248201527f57726f6e672073746174652e204163636573732064656e6965642e00000000006044820152606490fd5b15620020e557565b60405162461bcd60e51b81526020600482015260116024820152702332b2903737ba103232b23ab1ba32b21760791b6044820152606490fd5b519081151582036200044057565b91908260409103126200044057602062002146836200211e565b92015163ffffffff81168103620004405790565b90604051620021698162001e46565b60206200217e60018395805485520162002070565b910152565b600f548060095560075411620021a257600260ff196008541617600855565b600460ff196008541617600855565b15620021b957565b60405162461bcd60e51b815260206004820152601b60248201527f596f7520617265206e6f7420612076616c6964206269646465722e00000000006044820152606490fd5b9081156200228f575b80156200227e575b60405191630d7c62eb60e31b8352600483015260248201525f6044820152602081606481605d5afa90811562000435575f916200224a575090565b90506020813d60201162002275575b81620022686020938362001e92565b8101031262000440575190565b3d915062002259565b506200228962002967565b6200220f565b90506200229b62002967565b9062002207565b908115620022ff575b8015620022ee575b60405191631f31e28560e11b8352600483015260248201525f6044820152602081606481605d5afa90811562000435575f916200224a575090565b50620022f962002967565b620022b3565b90506200230b62002967565b90620022ab565b5f915f549160018060a01b0390818416928060041162000440575f806040945f808751966020938489019163b700961360e01b8352169788602482015230604482015263ffffffff60e01b833516606482015260648152620023748162001e76565b51908a5afa903d15620024e7573d916200238e8362001eb4565b926200239d8951948562001e92565b83523d5f8385013e5b6200247f575b505015620023be575b50505050505050565b63ffffffff1615620024695760ff60a01b19948516600160a01b175f55833b1562000440576064935f92838551968780958194634a63ebf760e11b835260048301528860248301528060448301528084848401378181018301849052601f01601f191681010301925af19081156200246057506200244a575b5081541690555f808080808080620023b5565b6200245791925062001e62565b5f905f62002437565b513d5f823e3d90fd5b50602491519062d1953b60e31b82526004820152fd5b8151939192909190878510620024ac57505080620024a29383010191016200212c565b905b5f80620023ac565b9291909381811015620024c3575b505050620024a4565b829350918192810103126200044057620024de91016200211e565b5f8080620024ba565b606091620023a6565b9081156200254d575b80156200253c575b604051916334a6d7b960e11b8352600483015260248201525f6044820152602081606481605d5afa90811562000435575f916200224a575090565b506200254762002967565b62002501565b90506200255962002967565b90620024f9565b600d548110156200259a57600390600d5f52027fd7b6990105719101dabeb77144f2a3385c8033acd3af97e9423a695e81ad1eb501905f90565b634e487b7160e01b5f52603260045260245ffd5b620025c690620025be3362002b74565b9290620021b1565b620025d062002967565b90620025db62002967565b925f90600a5490601454905b828410620025f55750505050565b909192959462002609620005e08862002560565b906002620026178962002560565b5001549660409182519063cb3b940760e01b808352600492868482015260249b8c82015260449283820152602094606493605d9287818781875afa908115620027105788979695949392918d915f91620026d8575b509f8a519b8c98899788528701528501528301525afa9182156200246057505f91620026a3575b50600191509601929190620025e7565b905081813d8311620026d0575b620026bc818362001e92565b810103126200044057600190515f62002693565b503d620026b0565b988092508991503d831162002708575b620026f4818362001e92565b8101031262000440578b8897515f6200266c565b503d620026e8565b89513d5f823e3d90fd5b90600d80546200272957509050565b5f5b62002743846200273b8362002560565b5054620021fe565b82545f198101929190831162001bcf5761ffff918281169384105f14620027b3576200277e6001600160401b03600e5460401c169162002560565b50600185019284841162001bcf576200279b620027a39462002560565b509262002d10565b811462001bcf576001016200272b565b935091509293506040928351631ce2e8d760e31b815260049182820152602492600160fa1b84830152602092604492605d9085818681855afa90811562002710579086949392915f916200288d575b506064939495620028138a62002560565b5054918b51998a97889663cb3b940760e01b88528701528501528301525afa9384156200246057505f9362002854575b5050620028509062002560565b5055565b9080929350813d831162002885575b6200286f818362001e92565b8101031262000440575190620028505f62002843565b503d62002863565b8581959692503d8311620028bf575b620028a8818362001e92565b810103126200044057915185939290606462002802565b503d6200289c565b6200292b604051918262002909602160209584620028ef889651809288808601910162001f1c565b8101600160fa1b8682015203600181018452018262001e92565b60405180938192630964a5d960e31b8352846004840152602483019062001f3f565b0381605d5afa91821562000435575f926200294557505090565b90809250813d83116200295f575b62002268818362001e92565b503d62002953565b604051631ce2e8d760e31b81525f6004820152600160fa1b6024820152602081604481605d5afa90811562000435575f916200224a575090565b604051631ce2e8d760e31b81526004810191909152600160fa1b6024820152602081604481605d5afa90811562000435575f916200224a575090565b604051906301693b9160e61b82526004820152602081602481605d5afa90811562000435575f916200224a575090565b805f52601160205260405f20549081158062002a45575b62002a2d575090565b6024906040519063015ab34360e11b82526004820152fd5b50601060205260405f20541562002a24565b906040519163d6ad57cd60e01b8352600483015260248201525f81604481605d5afa90811562000435575f9162002a8c575090565b90503d805f833e62002a9f818362001e92565b81019060208183031262000440578051906001600160401b03821162000440570181601f820112156200044057805162002ad98162001eb4565b9262002ae9604051948562001e92565b81845260208284010111620004405762001f8f916020808501910162001f1c565b90811562002b5a575b604051630d7c62eb60e31b8152600481019290925263ffffffff166024820152600160f81b6044820152602081606481605d5afa90811562000435575f916200224a575090565b905063ffffffff62002b6b62002967565b91905062002b13565b5f52601160205260405f205480155f1462002b9b5750601060205260405f20541515905f90565b600191565b600f548110156200259a57600f5f527f8d1108e10bcb7c27dddfc02ed9d693a074039d026cf4ea4240b40f7d581ac80201905f90565b805f52601060205260405f2054155f1462002c3f57600f54600160401b811015620004445762002c2862002c12826001859401600f5562002ba0565b819391549060031b91821b915f19901b19161790565b9055600f54905f52601060205260405f2055600190565b505f90565b5f81815260106020526040902054801562002d0a575f199080820181811162001bcf57600f549083820191821162001bcf5781810362002cd0575b505050600f54801562002cbc5781019062002c9a8262002ba0565b909182549160031b1b19169055600f555f5260106020525f6040812055600190565b634e487b7160e01b5f52603160045260245ffd5b62002cf362002ce362002c129362002ba0565b90549060031b1c92839262002ba0565b90555f52601060205260405f20555f808062002c7f565b50505f90565b9291909260031462002d3057634e487b7160e01b5f52605160045260245ffd5b8054906040519162002d428362001e46565b825262002d526001820162002070565b6020830152825482516040519163cb3b940760e01b835286600484015260248301526044820152602081606481605d5afa90811562000435575f916200301e575b508155815183546040519163cb3b940760e01b835286600484015260248301526044820152602081606481605d5afa90811562000435575f9162002fe6575b5083556001830180546020840151516040519163cb3b940760e01b835287600484015260248301526044820152602081606481605d5afa90811562000435575f9162002fae575b5060018301556020830151519080546040519263cb3b940760e01b845287600485015260248401526044830152602082606481605d5afa91821562000435575f9262002f74575b505560028301549060208084015101516040519263cb3b940760e01b845286600485015260248401526044830152602082606481605d5afa91821562000435575f9262002f37575b509160209291600284930155015101516002820154906040519363cb3b940760e01b8552600485015260248401526044830152602082606481605d5afa91821562000435575f9262002efc575b5060020155565b9091506020813d60201162002f2e575b8162002f1b6020938362001e92565b8101031262000440575190600262002ef5565b3d915062002f0c565b9150916020823d60201162002f6b575b8162002f566020938362001e92565b81010312620004405790519091602062002ea8565b3d915062002f47565b9091506020813d60201162002fa5575b8162002f936020938362001e92565b81010312620004405751905f62002e60565b3d915062002f84565b90506020813d60201162002fdd575b8162002fcc6020938362001e92565b810103126200044057515f62002e19565b3d915062002fbd565b90506020813d60201162003015575b81620030046020938362001e92565b810103126200044057515f62002dd2565b3d915062002ff5565b90506020813d6020116200304d575b816200303c6020938362001e92565b810103126200044057515f62002d93565b3d91506200302d56fe6080604052346200049e5762001e58803803806200001d81620004a2565b928339810190610160818303126200049e576200003a81620004c8565b916200004960208301620004c8565b906200005860408401620004dd565b916200006760608501620004dd565b60808501516001600160401b0381116200049e57850183601f820112156200049e578051906001600160401b0382116200035557620000b0601f8301601f1916602001620004a2565b94828652602083830101116200049e575f5b8281106200048857505060205f9185010152620000e260a08601620004eb565b92620000f160c08701620004eb565b9260e08701519561010088015193620001146101406101208b01519a01620004dd565b5f80546001600160a01b0319166001600160a01b038d16908117909155604051908152909a907f2f658b440c35314f52658ea8a740e05b284cdc84dc9ae01e891f21b8933e7cad90602090a1601380546001600160a01b0319166001600160a01b039283161790556014805493151560a01b60ff60a01b166001600160b01b031990941694909116939093179190911790151560a81b60ff60a81b161790558051906001600160401b038211620003555760155490600182811c921680156200047d575b6020831014620004695781601f8493116200040b575b50602090601f831160011462000390575f9262000384575b50508160011b915f199060031b1c1916176015555b601680546001600160801b0319166001600160801b03841617905560178490556018556019849055601a5485156200037d5760015b6006811015620003695760ff169061ff0087151560081b169061ffff19161717601a55600163ffffffff19600854161760085560018060a01b036014541691604051610140810181811060018060401b03821117620003555760405260018060801b038316815260018060801b03821660208201528360408201528460608201528460808201528560a0820152861560c08201525f60e08201525f6101008201526101204291015260018060801b03199060801b169060018060801b03161760015560018060a01b031960025416176002558060035560045560055560ff6006549115169064ffffffffff191617600655426007556040516119379081620005018239f35b634e487b7160e01b5f52604160045260245ffd5b634e487b7160e01b5f52602160045260245ffd5b5f62000250565b015190505f8062000206565b60155f90815293505f8051602062001e3883398151915291905b601f1984168510620003ef576001945083601f19811610620003d6575b505050811b016015556200021b565b01515f1960f88460031b161c191690555f8080620003c7565b81810151835560209485019460019093019290910190620003aa565b60155f529091505f8051602062001e38833981519152601f840160051c81016020851062000461575b90849392915b601f830160051c8201811062000452575050620001ee565b5f81558594506001016200043a565b508062000434565b634e487b7160e01b5f52602260045260245ffd5b91607f1691620001d8565b80602080928401015182828901015201620000c2565b5f80fd5b6040519190601f01601f191682016001600160401b038111838210176200035557604052565b51906001600160a01b03821682036200049e57565b519081151582036200049e57565b51906001600160801b03821682036200049e5756fe6080604081815260049182361015610015575f80fd5b5f3560e01c90816302d05d3f1461118057508063047a7ef11461115a57806311ee0bc71461113c5780631541691a146111005780631f1a9d8a146110c75780632d8dcef11461108c57806342370cb814610fdb5780634d08f0f714610fb75780635297e0f614610f085780637a9e5e4b14610e675780637e4eb12014610a8f5780638b6ec2bf14610a545780638fb3603714610a105780639b3aff7214610954578063a930406a14610936578063a9aee339146108de578063b82926b9146108bd578063bc6b599014610842578063bf7e214f1461081b578063c05c5e94146107f3578063c17723f9146107cd578063c19d93fb1461078f578063c97990af14610768578063cbf2183714610742578063d1c6604d14610456578063e1a32e9c1461041a578063e73faa2d146103fc578063ea11262514610317578063ebf0c717146102b05763ef430aa614610169575f80fd5b346102ac575f3660031901126102ac5780515f60155460018160011c916001811680156102a2575b602097888510821461028f57509183918895938795865290815f1461026e5750600114610211575b50506101ca92509492940384611337565b815192818492835281519182828501525f5b8381106101fb5750505f83830185015250601f01601f19168101030190f35b81810183015187820187015286945082016101dc565b9093915060155f527f55f448fdea98c4d29eb340757ef0a66cd03dbb9538908a6a81d96026b71ec475935f915b8183106102565750879450508201016101ca5f6101b9565b8554878401850152948501948694509183019161023e565b9150506101ca94925060ff191682840152151560051b82010185925f6101b9565b602290634e487b7160e01b5f525260245ffd5b92607f1692610191565b5f80fd5b50346102ac575f3660031901126102ac576103136001549160018060a01b036002541692600354945490600554906006549161ffff93600754955198899860ff878760181c16978760081c169616946001600160801b038160801c91168b611256565b0390f35b5090346102ac5760603660031901126102ac576103326111a3565b9160243561ffff80821682036102ac576044359481861686036102ac57610313956006936103689261036261148d565b5061174b565b5f526010602052825f209083519461037f866112d6565b82546001600160801b0381168752608090811c602088015260018401546001600160a01b0316868801526002840154606088015260038401549087015282015460a0860152600582015460ff8116151560c0870152600881901c821660e087015260181c16610100850152015461012083015251918291826111cf565b50346102ac575f3660031901126102ac576020906019549051908152f35b50346102ac5760203660031901126102ac576020906001600160801b0361043f6111a3565b165f526011825260ff815f20541690519015158152f35b5090346102ac5760603660031901126102ac576104716111a3565b9061047a6111b9565b60443591610498600160ff601a5416610492816112b8565b14611359565b6001600160801b0380921692835f526104c6602095601187526104c160ff895f205416156113a5565b6116c7565b60018101546001600160a01b039391908416331461070b5760038101918254928484106106db576005830190815494600160ff87161515036106ab579089969594939291875f5260128c52868d5f205460ff16610522906113f1565b61052b91611431565b905561ffff9485809560081c1661054190611452565b825462ffff00191660089190911b62ffff00161782558a8c6105628661171f565b9987868d895416980154955460181c1661057b90611465565b9682519c8d9b61058a8d6112d6565b8c52848c01918252838c019333855260608d01958d8888526080019788528d60a08101998a5260c0019d5f8f5260e081019b5f8d5261010082019e8f91169052610120019e8f4290525f52601090525f209d5116906001600160801b0319905160801b16178c5560018c019151166bffffffffffffffffffffffff60a01b8254161790555160028a01555160038901555190870155600586019351151561063d90859060ff801983541691151516179055565b51835462ffff001916911660081b62ffff00161782555181549060181b64ffff000000169064ffff00000019161790555190600601555f52601190525f2060ff19815416600117905560085463ffffffff80821661069a90611478565b63ffffffff19909216911617600855005b8b5162461bcd60e51b81528085018c9052600a602482015269139bdd081b1a5cdd195960b21b6044820152606490fd5b895162461bcd60e51b81528083018a9052600a6024820152694e6f207265736964756560b01b6044820152606490fd5b875162461bcd60e51b8152808301889052601160248201527020b63932b0b23c903a34329037bbb732b960791b6044820152606490fd5b50346102ac575f3660031901126102ac5760209060ff60145460a01c1690519015158152f35b50346102ac575f3660031901126102ac576020906001600160801b03601654169051908152f35b50346102ac575f3660031901126102ac5760ff601a541690519060068110156107ba57602092508152f35b602183634e487b7160e01b5f525260245ffd5b50346102ac575f3660031901126102ac5760209060ff601a5460081c1690519015158152f35b50346102ac575f3660031901126102ac5760135490516001600160a01b039091168152602090f35b50346102ac575f3660031901126102ac575f5490516001600160a01b039091168152602090f35b5090346102ac5760203660031901126102ac5780355f526010602052610313825f209283549360018060a01b0360018201541693600282015495600383015491830154600584015492600661ffff950154955198899860ff878760181c16978760081c169616946001600160801b038160801c91168b611256565b50346102ac575f3660031901126102ac576020906001601754119051908152f35b82346102ac575f3660031901126102ac576108f936336114d7565b601a5460ff81169160068310156109235750610919600360059314611359565b60ff191617601a55005b602190634e487b7160e01b5f525260245ffd5b50346102ac575f3660031901126102ac576020906018549051908152f35b5090346102ac5760203660031901126102ac576103139160066109866109786111a3565b61098061148d565b506116c7565b825193610992856112d6565b81546001600160801b038116865260801c602086015260018060a01b0360018301541684860152600282015460608601526003820154608086015281015460a0850152600581015460ff8116151560c086015261ffff90818160081c1660e087015260181c16610100850152015461012083015251918291826111cf565b50346102ac575f3660031901126102ac5760209060ff5f5460a01c165f14610a4d57638fb3603760e01b905b516001600160e01b03199091168152f35b5f90610a3c565b82346102ac575f3660031901126102ac57610a6f36336114d7565b601a5460ff81169160068310156109235750610919600260039314611359565b50346102ac5760803660031901126102ac57610aa96111a3565b610ab16111b9565b926044803594606492601a549360ff9788861698610ace8a6112b8565b610adb6001809b14611359565b6001600160801b0380951696875f52610b0360209960118b526104c1848d5f205416156113a5565b966003880190815490858210610e385760058a0194855494818616610e0557908e8d8f938360145460a81c1615610da9575b60081c831680610d9a575b15610d215750505050898e01546001600160a01b03163203610ce7575093898b8e8a9894968f9c9b9796829b97610b78878f9c611431565b905561ffff9a8b9a8b809360081c16610b9090611452565b845462ffff00191660089190911b62ffff0016178455610baf9061171f565b9d5416915460181c16610bc190611465565b978d519d8e95610bd0876112d6565b86528486019283528086019433865260608701968888526080810198895260a0810199358a5260c081019e8f5260e081019b5f8d5261010082019e8f91169052610120019e8f4290525f52601090525f209d5116906001600160801b0319905160801b16178c558b0190600160a01b600190039051166bffffffffffffffffffffffff60a01b8254161790555160028a015551600389015551908701556005860193511515610c8b90859060ff801983541691151516179055565b51835462ffff001916911660081b62ffff00161782555181549060181b64ffff000000169064ffff00000019161790555190600601555f52601190525f209060ff1982541617905560085463ffffffff80821661069a90611478565b87752737ba103a34329030bab1ba34b7b71037bbb732b91760511b88928f8f90519362461bcd60e51b855284015260166024840152820152fd5b610d34936012915f52525f2054166113f1565b898e01546001600160a01b03163303610d63575093898b8e8a9894968f9c9b9796829b97610b78878f9c611431565b87722737ba103a3432903634b9ba1037bbb732b91760691b88928f8f90519362461bcd60e51b855284015260136024840152820152fd5b5061ffff8860181c1615610b40565b929350505061ffff8660181c16610dc457908e8d8f93610b35565b8e5162461bcd60e51b8152808b018f9052601c60248201527f4f6e6c79207472616e736665727261626c6520666f72206f6e63652e00000000818501528990fd5b8e5162461bcd60e51b8152808b018f9052600f60248201526e20b63932b0b23c903634b9ba32b21760891b818501528990fd5b876a2737903932b9b4b23ab29760a91b88928f8f90519362461bcd60e51b8552840152600b6024840152820152fd5b50346102ac5760203660031901126102ac576001600160a01b03823581811693908481036102ac575f549283163303610ef3573b15610edc576001600160a01b0319821684175f5582518481527f2f658b440c35314f52658ea8a740e05b284cdc84dc9ae01e891f21b8933e7cad90602090a1005b82516361798f2f60e11b8152908101849052602490fd5b835162d1953b60e31b81523381840152602490fd5b5090346102ac5760203660031901126102ac57610f236111a3565b610f2d36336114d7565b60ff601a541660068110156107ba5790610f5160016001600160801b039314611359565b1690815f52601260205260ff835f20541615610f7c57505f908152601260205220805460ff19169055005b606490602084519162461bcd60e51b835282015260156024820152742332b29030b63932b0b23c903932b632b0b9b2b21760591b6044820152fd5b50346102ac575f3660031901126102ac5760209063ffffffff600854169051908152f35b5090346102ac5760203660031901126102ac57610ff66111a3565b61100036336114d7565b60ff601a541660068110156107ba579061102460016001600160801b039314611359565b1690815f52601260205260ff835f20541661105157505f908152601260205220805460ff19166001179055005b606490602084519162461bcd60e51b835282015260156024820152742332b29030b63932b0b23c903232b23ab1ba32b21760591b6044820152fd5b82346102ac575f3660031901126102ac576110a736336114d7565b601a5460ff81169160068310156109235750610919600160029314611359565b82346102ac575f3660031901126102ac576110e236336114d7565b601a5460ff8116916006831015610923575061091960019215611359565b50346102ac5760203660031901126102ac576020906001600160801b036111256111a3565b165f526012825260ff815f20541690519015158152f35b50346102ac575f3660031901126102ac576020906017549051908152f35b50346102ac575f3660031901126102ac5760209060ff60145460a81c1690519015158152f35b346102ac575f3660031901126102ac576014546001600160a01b03168152602090f35b600435906001600160801b03821682036102ac57565b602435906001600160801b03821682036102ac57565b9190916101408101926001600160801b03808251168352602082015116602083015260018060a01b036040820151166040830152606081015160608301526080810151608083015260a081015160a083015260c0810151151560c083015260e081015161ffff80911660e08401526101009081830151169083015261012080910151910152565b969390926101209896939b9a9995929b61014089019c6001600160801b038092168a5216602089015260018060a01b031660408801526060870152608086015260a0850152151560c084015261ffff80921660e0840152166101008201520152565b600611156112c257565b634e487b7160e01b5f52602160045260245ffd5b610140810190811067ffffffffffffffff8211176112f357604052565b634e487b7160e01b5f52604160045260245ffd5b67ffffffffffffffff81116112f357604052565b60a0810190811067ffffffffffffffff8211176112f357604052565b90601f8019910116810190811067ffffffffffffffff8211176112f357604052565b1561136057565b60405162461bcd60e51b815260206004820152601b60248201527f57726f6e672073746174652e204163636573732064656e6965642e00000000006044820152606490fd5b156113ac57565b60405162461bcd60e51b815260206004820152601760248201527f4f72646572496420616c7265616479206578697374732e0000000000000000006044820152606490fd5b156113f857565b60405162461bcd60e51b81526020600482015260116024820152702332b2903737ba103232b23ab1ba32b21760791b6044820152606490fd5b9190820391821161143e57565b634e487b7160e01b5f52601160045260245ffd5b61ffff80911690811461143e5760010190565b90600161ffff8093160191821161143e57565b63ffffffff80911690811461143e5760010190565b6040519061149a826112d6565b5f610120838281528260208201528260408201528260608201528260808201528260a08201528260c08201528260e0820152826101008201520152565b5f915f549160018060a01b039081841692806004116102ac575f806040945f808751966020938489019163b700961360e01b8352169788602482015230604482015263ffffffff60e01b8335166064820152606481526115368161131b565b51908a5afa903d156116be573d9167ffffffffffffffff83116112f357879081519361156b84601f19601f8401160186611337565b84523d5f8486013e5b611644575b5050501561158b575b50505050505050565b63ffffffff161561162e5760ff60a01b19948516600160a01b175f55833b156102ac576064935f92838551968780958194634a63ebf760e11b835260048301528860248301528060448301528084848401378181018301849052601f01601f191681010301925af19081156116255750611612575b5081541690555f808080808080611582565b61161d919250611307565b5f905f611600565b513d5f823e3d90fd5b50602491519062d1953b60e31b82526004820152fd5b825192949193909291908383106116875750508390810103126102ac5761166d859183016117a4565b91015163ffffffff811681036102ac57905b5f8086611579565b9382819392969450101561169e575b50505061167f565b829350918192810103126102ac576116b691016117a4565b5f8080611696565b86606092611574565b6116d29060016117b1565b60018101546001600160a01b0316156116e85790565b60405162461bcd60e51b815260206004820152600f60248201526e1bdc99195c881b9bdd08199bdd5b99608a1b6044820152606490fd5b6117489060056001600160801b038254169101549061ffff808360081c169260181c169061174b565b90565b91906040519160208301936001600160801b03199060801b16845261ffff60f01b809260f01b16603084015260f01b166032820152601481526040810181811067ffffffffffffffff8211176112f35760405251902090565b519081151582036102ac57565b906117c382546001600160801b031690565b906001600160801b039283821680948416146118fa57600501549261ffff92838560081c169384156118ef57946001948660019260181c16915b818882161115611814575050505050505050600990565b61183061182282858761174b565b5f52601060205260405f2090565b8088015461184e906001600160a01b03165b6001600160a01b031690565b156118b8578561187461186883546001600160801b031690565b6001600160801b031690565b146118ac5786611883916117b1565b80880154611899906001600160a01b0316611842565b6118ac57506118a790611452565b6117fd565b97505050505050505090565b60405162461bcd60e51b815260206004820152600f60248201526e10da1a5b19081b9bdd08199bdd5b99608a1b6044820152606490fd5b505050505050600990565b925050509056fea264697066735822122075e5dffe09e90893ab3fda4c49c0e37c71109d430022b7f592523b4a89d3a82a64736f6c6343000818003355f448fdea98c4d29eb340757ef0a66cd03dbb9538908a6a81d96026b71ec475a26469706673582212203570374a5f3e2df15e04428f8f75fda52c2ef9a3e809b40255822f22e359f8a664736f6c63430008180033",
  "linkReferences": {},
  "deployedLinkReferences": {}
}