{
  "_format": "hh-sol-artifact-1",
  "contractName": "EncryptedERC20",
  "sourceName": "contracts/EncryptedERC20.sol",
  "abi": [
    {
      "inputs": [
        {
          "internalType": "string",
          "name": "name_",
          "type": "string"
        },
        {
          "internalType": "string",
          "name": "symbol_",
          "type": "string"
        }
      ],
      "stateMutability": "nonpayable",
      "type": "constructor"
    },
    {
      "inputs": [],
      "name": "ECDSAInvalidSignature",
      "type": "error"
    },
    {
      "inputs": [
        {
          "internalType": "uint256",
          "name": "length",
          "type": "uint256"
        }
      ],
      "name": "ECDSAInvalidSignatureLength",
      "type": "error"
    },
    {
      "inputs": [
        {
          "internalType": "bytes32",
          "name": "s",
          "type": "bytes32"
        }
      ],
      "name": "ECDSAInvalidSignatureS",
      "type": "error"
    },
    {
      "inputs": [],
      "name": "InvalidShortString",
      "type": "error"
    },
    {
      "inputs": [
        {
          "internalType": "address",
          "name": "owner",
          "type": "address"
        }
      ],
      "name": "OwnableInvalidOwner",
      "type": "error"
    },
    {
      "inputs": [
        {
          "internalType": "address",
          "name": "account",
          "type": "address"
        }
      ],
      "name": "OwnableUnauthorizedAccount",
      "type": "error"
    },
    {
      "inputs": [
        {
          "internalType": "string",
          "name": "str",
          "type": "string"
        }
      ],
      "name": "StringTooLong",
      "type": "error"
    },
    {
      "anonymous": false,
      "inputs": [
        {
          "indexed": true,
          "internalType": "address",
          "name": "owner",
          "type": "address"
        },
        {
          "indexed": true,
          "internalType": "address",
          "name": "spender",
          "type": "address"
        }
      ],
      "name": "Approval",
      "type": "event"
    },
    {
      "anonymous": false,
      "inputs": [],
      "name": "EIP712DomainChanged",
      "type": "event"
    },
    {
      "anonymous": false,
      "inputs": [
        {
          "indexed": true,
          "internalType": "address",
          "name": "to",
          "type": "address"
        },
        {
          "indexed": false,
          "internalType": "uint64",
          "name": "amount",
          "type": "uint64"
        }
      ],
      "name": "Mint",
      "type": "event"
    },
    {
      "anonymous": false,
      "inputs": [
        {
          "indexed": true,
          "internalType": "address",
          "name": "previousOwner",
          "type": "address"
        },
        {
          "indexed": true,
          "internalType": "address",
          "name": "newOwner",
          "type": "address"
        }
      ],
      "name": "OwnershipTransferStarted",
      "type": "event"
    },
    {
      "anonymous": false,
      "inputs": [
        {
          "indexed": true,
          "internalType": "address",
          "name": "previousOwner",
          "type": "address"
        },
        {
          "indexed": true,
          "internalType": "address",
          "name": "newOwner",
          "type": "address"
        }
      ],
      "name": "OwnershipTransferred",
      "type": "event"
    },
    {
      "anonymous": false,
      "inputs": [
        {
          "indexed": true,
          "internalType": "address",
          "name": "from",
          "type": "address"
        },
        {
          "indexed": true,
          "internalType": "address",
          "name": "to",
          "type": "address"
        }
      ],
      "name": "Transfer",
      "type": "event"
    },
    {
      "inputs": [],
      "name": "acceptOwnership",
      "outputs": [],
      "stateMutability": "nonpayable",
      "type": "function"
    },
    {
      "inputs": [
        {
          "internalType": "address",
          "name": "owner",
          "type": "address"
        },
        {
          "internalType": "address",
          "name": "spender",
          "type": "address"
        },
        {
          "internalType": "bytes32",
          "name": "publicKey",
          "type": "bytes32"
        },
        {
          "internalType": "bytes",
          "name": "signature",
          "type": "bytes"
        }
      ],
      "name": "allowance",
      "outputs": [
        {
          "internalType": "bytes",
          "name": "",
          "type": "bytes"
        }
      ],
      "stateMutability": "view",
      "type": "function"
    },
    {
      "inputs": [
        {
          "internalType": "address",
          "name": "spender",
          "type": "address"
        },
        {
          "internalType": "bytes",
          "name": "encryptedAmount",
          "type": "bytes"
        }
      ],
      "name": "approve",
      "outputs": [
        {
          "internalType": "bool",
          "name": "",
          "type": "bool"
        }
      ],
      "stateMutability": "nonpayable",
      "type": "function"
    },
    {
      "inputs": [
        {
          "internalType": "address",
          "name": "spender",
          "type": "address"
        },
        {
          "internalType": "euint64",
          "name": "amount",
          "type": "uint256"
        }
      ],
      "name": "approve",
      "outputs": [
        {
          "internalType": "bool",
          "name": "",
          "type": "bool"
        }
      ],
      "stateMutability": "nonpayable",
      "type": "function"
    },
    {
      "inputs": [
        {
          "internalType": "bytes32",
          "name": "publicKey",
          "type": "bytes32"
        }
      ],
      "name": "balance",
      "outputs": [
        {
          "internalType": "bytes",
          "name": "",
          "type": "bytes"
        }
      ],
      "stateMutability": "view",
      "type": "function"
    },
    {
      "inputs": [
        {
          "internalType": "address",
          "name": "wallet",
          "type": "address"
        },
        {
          "internalType": "bytes32",
          "name": "publicKey",
          "type": "bytes32"
        },
        {
          "internalType": "bytes",
          "name": "signature",
          "type": "bytes"
        }
      ],
      "name": "balanceOf",
      "outputs": [
        {
          "internalType": "bytes",
          "name": "",
          "type": "bytes"
        }
      ],
      "stateMutability": "view",
      "type": "function"
    },
    {
      "inputs": [],
      "name": "decimals",
      "outputs": [
        {
          "internalType": "uint8",
          "name": "",
          "type": "uint8"
        }
      ],
      "stateMutability": "view",
      "type": "function"
    },
    {
      "inputs": [],
      "name": "eip712Domain",
      "outputs": [
        {
          "internalType": "bytes1",
          "name": "fields",
          "type": "bytes1"
        },
        {
          "internalType": "string",
          "name": "name",
          "type": "string"
        },
        {
          "internalType": "string",
          "name": "version",
          "type": "string"
        },
        {
          "internalType": "uint256",
          "name": "chainId",
          "type": "uint256"
        },
        {
          "internalType": "address",
          "name": "verifyingContract",
          "type": "address"
        },
        {
          "internalType": "bytes32",
          "name": "salt",
          "type": "bytes32"
        },
        {
          "internalType": "uint256[]",
          "name": "extensions",
          "type": "uint256[]"
        }
      ],
      "stateMutability": "view",
      "type": "function"
    },
    {
      "inputs": [
        {
          "internalType": "uint64",
          "name": "mintedAmount",
          "type": "uint64"
        }
      ],
      "name": "mint",
      "outputs": [],
      "stateMutability": "nonpayable",
      "type": "function"
    },
    {
      "inputs": [],
      "name": "name",
      "outputs": [
        {
          "internalType": "string",
          "name": "",
          "type": "string"
        }
      ],
      "stateMutability": "view",
      "type": "function"
    },
    {
      "inputs": [],
      "name": "owner",
      "outputs": [
        {
          "internalType": "address",
          "name": "",
          "type": "address"
        }
      ],
      "stateMutability": "view",
      "type": "function"
    },
    {
      "inputs": [],
      "name": "pendingOwner",
      "outputs": [
        {
          "internalType": "address",
          "name": "",
          "type": "address"
        }
      ],
      "stateMutability": "view",
      "type": "function"
    },
    {
      "inputs": [],
      "name": "renounceOwnership",
      "outputs": [],
      "stateMutability": "nonpayable",
      "type": "function"
    },
    {
      "inputs": [],
      "name": "symbol",
      "outputs": [
        {
          "internalType": "string",
          "name": "",
          "type": "string"
        }
      ],
      "stateMutability": "view",
      "type": "function"
    },
    {
      "inputs": [],
      "name": "totalSupply",
      "outputs": [
        {
          "internalType": "uint64",
          "name": "",
          "type": "uint64"
        }
      ],
      "stateMutability": "view",
      "type": "function"
    },
    {
      "inputs": [
        {
          "internalType": "address",
          "name": "to",
          "type": "address"
        },
        {
          "internalType": "bytes",
          "name": "encryptedAmount",
          "type": "bytes"
        }
      ],
      "name": "transfer",
      "outputs": [
        {
          "internalType": "bool",
          "name": "",
          "type": "bool"
        }
      ],
      "stateMutability": "nonpayable",
      "type": "function"
    },
    {
      "inputs": [
        {
          "internalType": "address",
          "name": "to",
          "type": "address"
        },
        {
          "internalType": "euint64",
          "name": "amount",
          "type": "uint256"
        }
      ],
      "name": "transfer",
      "outputs": [
        {
          "internalType": "bool",
          "name": "",
          "type": "bool"
        }
      ],
      "stateMutability": "nonpayable",
      "type": "function"
    },
    {
      "inputs": [
        {
          "internalType": "address",
          "name": "from",
          "type": "address"
        },
        {
          "internalType": "address",
          "name": "to",
          "type": "address"
        },
        {
          "internalType": "euint64",
          "name": "amount",
          "type": "uint256"
        }
      ],
      "name": "transferFrom",
      "outputs": [
        {
          "internalType": "bool",
          "name": "",
          "type": "bool"
        }
      ],
      "stateMutability": "nonpayable",
      "type": "function"
    },
    {
      "inputs": [
        {
          "internalType": "address",
          "name": "from",
          "type": "address"
        },
        {
          "internalType": "address",
          "name": "to",
          "type": "address"
        },
        {
          "internalType": "bytes",
          "name": "encryptedAmount",
          "type": "bytes"
        }
      ],
      "name": "transferFrom",
      "outputs": [
        {
          "internalType": "bool",
          "name": "",
          "type": "bool"
        }
      ],
      "stateMutability": "nonpayable",
      "type": "function"
    },
    {
      "inputs": [
        {
          "internalType": "address",
          "name": "newOwner",
          "type": "address"
        }
      ],
      "name": "transferOwnership",
      "outputs": [],
      "stateMutability": "nonpayable",
      "type": "function"
    }
  ],
  "bytecode": "0x610160604081815234620004b457620020638038038091620000228286620004d4565b84398201918181840312620004b45780516001600160401b039290838111620004b45784620000539184016200051b565b9160209485820151858111620004b4576200006f92016200051b565b938151926200007e84620004b8565b60138452818401947f417574686f72697a6174696f6e20746f6b656e000000000000000000000000008652835196620000b788620004b8565b600192838952848901603160f81b8152620000d28862000576565b98610120998a52620000e48b62000723565b98610140998a52519020998a60e0525190209861010099808b524660a052875190878201927f8b73c3c69bb8fe3d512ecc4cf759cc79239f7b179b0ffacaa9a75d522b39400f84528983015260608201524660808201523060a082015260a0815260c0810191818310868411176200048a57828952815190206080523060c05233156200049e575050600380546001600160a01b03199081168255600280543392811683179091559193916001600160a01b03167f8be0079c531659141344cd1fd0a4f28419497f9722a3daafe3b4186f6b6457e05f80a38151958487116200048a576004968754938785811c951680156200047f575b838610146200046c578190601f9586811162000419575b508390868311600114620003b6575f92620003aa575b50505f1982871b1c191690871b1787555b815194851162000397576005968754908782811c921680156200038c575b8383101462000379575083811162000333575b5080928511600114620002c957509383949184925f95620002bd575b50501b925f19911b1c19161790555b51916117f793846200086c853960805184611293015260a0518461135e015260c0518461125d015260e051846112e20152518361130801525182610478015251816104a20152f35b015193505f8062000266565b92919084601f198116885f52855f20955f905b89838310620003185750505010620002fe575b50505050811b01905562000275565b01519060f8845f19921b161c191690555f808080620002ef565b858701518955909701969485019488935090810190620002dc565b875f52815f20848088018a1c8201928489106200036f575b01891c019087905b828110620003635750506200024a565b5f815501879062000353565b925081926200034b565b602290634e487b7160e01b5f525260245ffd5b91607f169162000237565b604187634e487b7160e01b5f525260245ffd5b015190505f8062000208565b90899350601f198316918b5f52855f20925f5b87828210620004025750508411620003ea575b505050811b01875562000219565b01515f1983891b60f8161c191690555f8080620003dc565b8385015186558d97909501949384019301620003c9565b909150895f52835f208680850160051c82019286861062000462575b918b91869594930160051c01915b82811062000453575050620001f2565b5f81558594508b910162000443565b9250819262000435565b602289634e487b7160e01b5f525260245ffd5b94607f1694620001db565b634e487b7160e01b5f52604160045260245ffd5b631e4fbdf760e01b82525f60c490910152602490fd5b5f80fd5b604081019081106001600160401b038211176200048a57604052565b601f909101601f19168101906001600160401b038211908210176200048a57604052565b5f5b8381106200050a5750505f910152565b8181015183820152602001620004fa565b81601f82011215620004b45780516001600160401b0381116200048a576040519262000552601f8301601f191660200185620004d4565b81845260208284010111620004b457620005739160208085019101620004f8565b90565b805160209081811015620005f35750601f825111620005b15780825192015190808310620005a357501790565b825f19910360031b1b161790565b604490620005e59260405193849263305a27a960e01b845280600485015282519283918260248701528686019101620004f8565b601f01601f19168101030190fd5b906001600160401b0382116200048a575f54926001938481811c9116801562000718575b838210146200070457601f8111620006ce575b5081601f84116001146200066857509282939183925f946200065c575b50501b915f199060031b1c1916175f5560ff90565b015192505f8062000647565b919083601f1981165f8052845f20945f905b88838310620006b357505050106200069a575b505050811b015f5560ff90565b01515f1960f88460031b161c191690555f80806200068d565b8587015188559096019594850194879350908101906200067a565b5f805284601f845f20920160051c820191601f860160051c015b828110620006f85750506200062a565b5f8155018590620006e8565b634e487b7160e01b5f52602260045260245ffd5b90607f169062000617565b805160209081811015620007505750601f825111620005b15780825192015190808310620005a357501790565b9192916001600160401b0381116200048a5760019182548381811c9116801562000860575b828210146200070457601f81116200082a575b5080601f8311600114620007c65750819293945f92620007ba575b50505f19600383901b1c191690821b17905560ff90565b015190505f80620007a3565b90601f19831695845f52825f20925f905b888210620008125750508385969710620007f9575b505050811b01905560ff90565b01515f1960f88460031b161c191690555f8080620007ec565b808785968294968601518155019501930190620007d7565b835f5283601f835f20920160051c820191601f850160051c015b8281106200085457505062000788565b5f815501849062000844565b90607f16906200077556fe60406080815260049081361015610014575f80fd5b5f3560e01c8063014647f414610a5757806306fdde031461097e578063095ea7b31461090557806318160ddd146108db57806323b872dd146108aa578063297235111461087f578063313ce5671461086557806332cbfb071461078e578063499726631461072d5780636934c7471461066e578063715018a61461060957806379ba50971461057e57806384b0196e1461046157806389eba421146104235780638da5cb5b146103fb57806395d89b4114610316578063a9059cbb146102e5578063e30c3978146102bd578063f2fde38b146102515763fb9d09c8146100f8575f80fd5b3461022c5760208060031936011261022c5782356001600160401b0380821680920361022c576101266111a5565b60018060a01b03908160025416805f5260068552855f2054908115610241575b865163f953e42760e01b81528881019290925260248201859052600160f81b60448301528582606481605d5afa918215610237575f92610204575b505f5260068552855f20556003549083818360a01c16019081116101f1577f9109de113672aaca72ede8bc906f7aafabee865311ac020fb15c71edf94a0a019596506001600160401b0360a01b9060a01b16906001600160401b0360a01b191617600355600254169351908152a2005b601187634e487b7160e01b5f525260245ffd5b9091508581813d8311610230575b61021c8183610bcd565b8101031261022c5751905f610181565b5f80fd5b503d610212565b87513d5f823e3d90fd5b905061024b6114e6565b90610146565b3461022c57602036600319011261022c5761026a610aa1565b6102726111a5565b600380546001600160a01b0319166001600160a01b039283169081179091556002549091167f38d16b8cac22d99fc7c124b9cd0de2d3fa1faef420bfe791d8c362d765e227005f80a3005b503461022c575f36600319011261022c5760035490516001600160a01b039091168152602090f35b503461022c578060031936011261022c5760209061030d610304610aa1565b60243590610e6d565b90519015158152f35b503461022c575f36600319011261022c5780516005549091825f61033984610c3f565b808352602094600190866001821691825f146103d957505060011461037e575b505061037a929161036b910385610bcd565b51928284938452830190610b5e565b0390f35b9085925060055f527f036b6384b5eca791c62761152d0c79bb0604c104a5fb6f4eb0703f3154bb3db0915f925b8284106103c1575050508201018161036b610359565b8054848a0186015288955087949093019281016103ab565b60ff19168682015292151560051b8501909201925083915061036b9050610359565b503461022c575f36600319011261022c5760025490516001600160a01b039091168152602090f35b503461022c57602036600319011261022c5761044e61037a92335f52600660205235825f2054611188565b9051918291602083526020830190610b5e565b50903461022c575f36600319011261022c5761049c7f000000000000000000000000000000000000000000000000000000000000000061151e565b916104c67f000000000000000000000000000000000000000000000000000000000000000061161b565b81519160209160208401948486106001600160401b0387111761056b5750610520826020928761051399989795525f85528151988998600f60f81b8a5260e0868b015260e08a0190610b5e565b9188830390890152610b5e565b914660608701523060808701525f60a087015285830360c087015251918281520192915f5b82811061055457505050500390f35b835185528695509381019392810192600101610545565b604190634e487b7160e01b5f525260245ffd5b503461022c575f36600319011261022c57600354916001600160a01b039133838516036105f25750506bffffffffffffffffffffffff60a01b8092166003556002549133908316176002553391167f8be0079c531659141344cd1fd0a4f28419497f9722a3daafe3b4186f6b6457e05f80a3005b60249250519063118cdaa760e01b82523390820152fd5b3461022c575f36600319011261022c576106216111a5565b600380546001600160a01b03199081169091556002805491821690555f906001600160a01b03167f8be0079c531659141344cd1fd0a4f28419497f9722a3daafe3b4186f6b6457e08280a3005b503461022c57606036600319011261022c57610688610aa1565b91602435604435936001600160401b03851161022c5761072861071861070f6106c46106bd61044e9761037a9a369101610acd565b3691610c09565b61070a885160208101907f051d137ae0e1fae6e3b6559fed4442b35a85a9a39789838ad5c9ea05e7da2dce8252888b8201528a815261070281610b83565b519020611110565b611384565b909291926113be565b6001600160a01b03163314610dcc565b610e32565b503461022c57606036600319011261022c57610747610aa1565b91610750610ab7565b92604435936001600160401b03851161022c5761078061077b6106bd61078695602098369101610acd565b610e8e565b91610c77565b505160018152f35b503461022c57608036600319011261022c576107a8610aa1565b916107b1610ab7565b90604435906064356001600160401b03811161022c576107dd6106bd61081b9361070f93369101610acd565b61070a865160208101907f051d137ae0e1fae6e3b6559fed4442b35a85a9a39789838ad5c9ea05e7da2dce8252868982015288815261070281610b83565b6001600160a01b03906108319082163314610dcc565b3381861614908115610859575b501561022c5761085461044e9261037a95611136565b611441565b8316331490505f61083e565b503461022c575f36600319011261022c57602090515f8152f35b503461022c5760209061078661077b6108a461089a36610afa565b9391933691610c09565b90610e6d565b503461022c57606036600319011261022c5760209061030d6108ca610aa1565b6108d2610ab7565b60443591610c77565b503461022c575f36600319011261022c576020906001600160401b0360035460a01c169051908152f35b503461022c578060031936011261022c57602090610921610aa1565b335f9081526007602090815260408083206001600160a01b0385168452909152902060243590555b6001600160a01b0316337ff37f546c25e850257cc0c94f92bec94a17e2f0e884ddda268a25d8144b70eb6a5f80a35160018152f35b50903461022c575f36600319011261022c57815191825f83546109a081610c3f565b90818452602095600191876001821691825f14610a305750506001146109d4575b50505061037a929161036b910385610bcd565b5f90815286935091907f8a35acfbc15ff81a39ae7d344fd709f28e8600b4aa8c65c6b64bfe7fe36bd19b5b828410610a18575050508201018161036b61037a6109c1565b8054848a0186015288955087949093019281016109ff565b60ff19168782015293151560051b8601909301935084925061036b915061037a90506109c1565b503461022c5760209061077b610949610a7c610a7236610afa565b9491943691610c09565b335f9081526007602090815260408083206001600160a01b0387168452909152902055565b600435906001600160a01b038216820361022c57565b602435906001600160a01b038216820361022c57565b9181601f8401121561022c578235916001600160401b03831161022c576020838186019501011161022c57565b90604060031983011261022c576004356001600160a01b038116810361022c5791602435906001600160401b03821161022c57610b3991600401610acd565b9091565b5f5b838110610b4e5750505f910152565b8181015183820152602001610b3f565b90602091610b7781518092818552858086019101610b3d565b601f01601f1916010190565b606081019081106001600160401b03821117610b9e57604052565b634e487b7160e01b5f52604160045260245ffd5b604081019081106001600160401b03821117610b9e57604052565b90601f801991011681019081106001600160401b03821117610b9e57604052565b6001600160401b038111610b9e57601f01601f191660200190565b929192610c1582610bee565b91610c236040519384610bcd565b82948184528183011161022c578281602093845f960137010152565b90600182811c92168015610c6d575b6020831014610c5957565b634e487b7160e01b5f52602260045260245ffd5b91607f1691610c4e565b9091610c833383611136565b92610c8e84836111d1565b9260018060a01b0381165f5260209460068652610caf60405f2054856111d1565b9460405195630ccd46b160e31b8752600487015260248601525f60448601528585606481605d5afa948515610d92575f95610d9d575b50610cf084826116d9565b906040519163cb3b940760e01b8352866004840152602483015260448201528581606481605d5afa958615610d92575f96610d5e575b5050610d54610d5995338360018060a01b038091165f52600760205260405f2091165f5260205260405f2055565b610f2e565b600190565b90809650813d8311610d8b575b610d758183610bcd565b8101031261022c57610d54610d59955195610d26565b503d610d6b565b6040513d5f823e3d90fd5b9094508581813d8311610dc5575b610db58183610bcd565b8101031261022c5751935f610ce5565b503d610dab565b15610dd357565b60405162461bcd60e51b815260206004820152603160248201527f454950373132207369676e657220616e64207472616e73616374696f6e2073696044820152700cedccae440c8de40dcdee840dac2e8c6d607b1b6064820152608490fd5b6001600160a01b031690338214610e5857610e559150610e506114e6565b611188565b90565b610e55915f52600660205260405f2054611188565b610d5991335f526006602052610e8760405f2054826111d1565b9133610f2e565b610eec6040519182610ecb602160209584610eb28896518092888086019101610b3d565b8101600560f81b86820152036001810184520182610bcd565b60405180938192630964a5d960e31b83528460048401526024830190610b5e565b0381605d5afa918215610d92575f92610f0457505090565b90809250813d8311610f27575b610f1b8183610bcd565b8101031261022c575190565b503d610f11565b9092919260018060a01b0380911693845f5260209260068452604092835f205491610f576114e6565b92855163cb3b940760e01b9485825289600483015286602483015260448201528781606481605d5afa908115610237575f916110e3575b508082156110d3575b156110c5575b86519163f953e42760e01b8352600483015260248201525f60448201528681606481605d5afa9081156110bb575f9161108e575b50885f5260068752855f20551694855f52835f205492610fef6114e6565b9185519384526004840152602483015260448201528381606481605d5afa908115611084575f91611056575b50611028906006926116d9565b92845f52525f20557f4853ae1b4d437c4255ac16cd3ceda3465975023f27cb141584cd9d44440fed825f80a3565b90508381813d831161107d575b61106d8183610bcd565b8101031261022c5751600661101b565b503d611063565b83513d5f823e3d90fd5b90508681813d83116110b4575b6110a58183610bcd565b8101031261022c57515f610fd1565b503d61109b565b86513d5f823e3d90fd5b506110ce6114e6565b610f9d565b91506110dd6114e6565b91610f97565b90508781813d8311611109575b6110fa8183610bcd565b8101031261022c57515f610f8e565b503d6110f0565b60429061111b61125a565b906040519161190160f01b8352600283015260228201522090565b6001600160a01b039081165f8181526007602090815260408083209590941680835294905291909120541561117e575f52600760205260405f20905f5260205260405f205490565b5050610e556114e6565b90811561119857610e5591611441565b610e5591506108546114e6565b6002546001600160a01b031633036111b957565b60405163118cdaa760e01b8152336004820152602490fd5b90811561124a575b801561123c575b604051916334a6d7b960e11b8352600483015260248201525f6044820152602081606481605d5afa908115610d92575f91611219575090565b90506020813d602011611234575b81610f1b60209383610bcd565b3d9150611227565b506112456114e6565b6111e0565b90506112546114e6565b906111d9565b307f00000000000000000000000000000000000000000000000000000000000000006001600160a01b0316148061135b575b156112b5577f000000000000000000000000000000000000000000000000000000000000000090565b60405160208101907f8b73c3c69bb8fe3d512ecc4cf759cc79239f7b179b0ffacaa9a75d522b39400f82527f000000000000000000000000000000000000000000000000000000000000000060408201527f000000000000000000000000000000000000000000000000000000000000000060608201524660808201523060a082015260a0815260c081018181106001600160401b03821117610b9e5760405251902090565b507f0000000000000000000000000000000000000000000000000000000000000000461461128c565b81519190604183036113b4576113ad9250602082015190606060408401519301515f1a9061173f565b9192909190565b50505f9160029190565b600481101561142d57806113d0575050565b600181036113ea5760405163f645eedf60e01b8152600490fd5b6002810361140b5760405163fce698f760e01b815260048101839052602490fd5b6003146114155750565b602490604051906335e2f38360e21b82526004820152fd5b634e487b7160e01b5f52602160045260245ffd5b906040519163d6ad57cd60e01b8352600483015260248201525f81604481605d5afa908115610d92575f91611474575090565b90503d805f833e6114858183610bcd565b81019060208183031261022c578051906001600160401b03821161022c570181601f8201121561022c5780516114ba81610bee565b926114c86040519485610bcd565b8184526020828401011161022c57610e559160208085019101610b3d565b604051631ce2e8d760e31b81525f6004820152600560f81b6024820152602081604481605d5afa908115610d92575f91611219575090565b60ff811461155c5760ff811690601f821161154a576040519161154083610bb2565b8252602082015290565b604051632cd44ac360e21b8152600490fd5b506040515f815f549161156e83610c3f565b808352926020906001908181169081156115f75750600114611599575b5050610e5592500382610bcd565b9150925f80527f290decd9548b62a8d60345a988386fc84ba6bc95484008f6362f93160ef3e563935f925b8284106115df5750610e559450505081016020015f8061158b565b855487850183015294850194869450928101926115c4565b91505060209250610e5594915060ff191682840152151560051b8201015f8061158b565b60ff811461163d5760ff811690601f821161154a576040519161154083610bb2565b506040515f8160019160015461165281610c3f565b80845293602091600181169081156115f7575060011461167a575050610e5592500382610bcd565b91509260015f527fb10e2d527612073b26eecdfd717e6a320cf44b4afac2b0732d9fcbe2b7fa0cf6935f925b8284106116c15750610e559450505081016020015f8061158b565b855487850183015294850194869450928101926116a6565b90811561172f575b8015611721575b60405191638c14cc2160e01b8352600483015260248201525f6044820152602081606481605d5afa908115610d92575f91611219575090565b5061172a6114e6565b6116e8565b90506117396114e6565b906116e1565b91907f7fffffffffffffffffffffffffffffff5d576e7357a4501ddfe92f46681b20a084116117b6579160209360809260ff5f9560405194855216868401526040830152606082015282805260015afa15610d92575f516001600160a01b038116156117ac57905f905f90565b505f906001905f90565b5050505f916003919056fea26469706673582212205065e7052d627eaa4119e1b3ccb9d662238384d2754dad0f76ca77ddc10ee3ef64736f6c63430008180033",
  "linkReferences": {},
  "deployedLinkReferences": {}
}