{
  "_format": "hh-sol-artifact-1",
  "contractName": "Listing",
  "sourceName": "contracts/Listing.sol",
  "abi": [
    {
      "inputs": [
        {
          "internalType": "address",
          "name": "adminContract_",
          "type": "address"
        },
        {
          "internalType": "address",
          "name": "creator_",
          "type": "address"
        },
        {
          "internalType": "bool",
          "name": "isSelling_",
          "type": "bool"
        },
        {
          "internalType": "bool",
          "name": "transferrable_",
          "type": "bool"
        },
        {
          "internalType": "string",
          "name": "category_",
          "type": "string"
        },
        {
          "internalType": "uint128",
          "name": "parentOrderId_",
          "type": "uint128"
        },
        {
          "internalType": "uint128",
          "name": "orderId_",
          "type": "uint128"
        },
        {
          "internalType": "uint256",
          "name": "portion_",
          "type": "uint256"
        },
        {
          "internalType": "uint256",
          "name": "unitAmount_",
          "type": "uint256"
        },
        {
          "internalType": "uint256",
          "name": "unitPrice_",
          "type": "uint256"
        },
        {
          "internalType": "bool",
          "name": "isAuction_",
          "type": "bool"
        }
      ],
      "stateMutability": "nonpayable",
      "type": "constructor"
    },
    {
      "inputs": [
        {
          "internalType": "address",
          "name": "authority",
          "type": "address"
        }
      ],
      "name": "AccessManagedInvalidAuthority",
      "type": "error"
    },
    {
      "inputs": [
        {
          "internalType": "address",
          "name": "caller",
          "type": "address"
        },
        {
          "internalType": "uint32",
          "name": "delay",
          "type": "uint32"
        }
      ],
      "name": "AccessManagedRequiredDelay",
      "type": "error"
    },
    {
      "inputs": [
        {
          "internalType": "address",
          "name": "caller",
          "type": "address"
        }
      ],
      "name": "AccessManagedUnauthorized",
      "type": "error"
    },
    {
      "anonymous": false,
      "inputs": [
        {
          "indexed": false,
          "internalType": "address",
          "name": "authority",
          "type": "address"
        }
      ],
      "name": "AuthorityUpdated",
      "type": "event"
    },
    {
      "inputs": [],
      "name": "adminContract",
      "outputs": [
        {
          "internalType": "address",
          "name": "",
          "type": "address"
        }
      ],
      "stateMutability": "view",
      "type": "function"
    },
    {
      "inputs": [],
      "name": "authority",
      "outputs": [
        {
          "internalType": "address",
          "name": "",
          "type": "address"
        }
      ],
      "stateMutability": "view",
      "type": "function"
    },
    {
      "inputs": [],
      "name": "category",
      "outputs": [
        {
          "internalType": "string",
          "name": "",
          "type": "string"
        }
      ],
      "stateMutability": "view",
      "type": "function"
    },
    {
      "inputs": [],
      "name": "closeOrder",
      "outputs": [],
      "stateMutability": "nonpayable",
      "type": "function"
    },
    {
      "inputs": [],
      "name": "completeOrder",
      "outputs": [],
      "stateMutability": "nonpayable",
      "type": "function"
    },
    {
      "inputs": [],
      "name": "creator",
      "outputs": [
        {
          "internalType": "address",
          "name": "",
          "type": "address"
        }
      ],
      "stateMutability": "view",
      "type": "function"
    },
    {
      "inputs": [
        {
          "internalType": "uint128",
          "name": "parent_orderId_",
          "type": "uint128"
        },
        {
          "internalType": "uint128",
          "name": "orderId_",
          "type": "uint128"
        },
        {
          "internalType": "uint256",
          "name": "portion_",
          "type": "uint256"
        }
      ],
      "name": "delist",
      "outputs": [],
      "stateMutability": "nonpayable",
      "type": "function"
    },
    {
      "inputs": [
        {
          "internalType": "uint128",
          "name": "orderId_",
          "type": "uint128"
        }
      ],
      "name": "feeDeducted",
      "outputs": [],
      "stateMutability": "nonpayable",
      "type": "function"
    },
    {
      "inputs": [
        {
          "internalType": "uint128",
          "name": "",
          "type": "uint128"
        }
      ],
      "name": "feeDeduction",
      "outputs": [
        {
          "internalType": "bool",
          "name": "",
          "type": "bool"
        }
      ],
      "stateMutability": "view",
      "type": "function"
    },
    {
      "inputs": [
        {
          "internalType": "uint128",
          "name": "orderId_",
          "type": "uint128"
        }
      ],
      "name": "feeReleased",
      "outputs": [],
      "stateMutability": "nonpayable",
      "type": "function"
    },
    {
      "inputs": [
        {
          "internalType": "uint128",
          "name": "orderId_",
          "type": "uint128"
        }
      ],
      "name": "findOrder",
      "outputs": [
        {
          "components": [
            {
              "internalType": "uint128",
              "name": "orderId",
              "type": "uint128"
            },
            {
              "internalType": "uint128",
              "name": "parent",
              "type": "uint128"
            },
            {
              "internalType": "address",
              "name": "owner",
              "type": "address"
            },
            {
              "internalType": "uint256",
              "name": "portion",
              "type": "uint256"
            },
            {
              "internalType": "uint256",
              "name": "residue",
              "type": "uint256"
            },
            {
              "internalType": "uint256",
              "name": "unitPrice",
              "type": "uint256"
            },
            {
              "internalType": "bool",
              "name": "listing",
              "type": "bool"
            },
            {
              "internalType": "uint16",
              "name": "childNum",
              "type": "uint16"
            },
            {
              "internalType": "uint16",
              "name": "depth",
              "type": "uint16"
            },
            {
              "internalType": "uint256",
              "name": "timestamp",
              "type": "uint256"
            }
          ],
          "internalType": "struct Listing.Node",
          "name": "",
          "type": "tuple"
        }
      ],
      "stateMutability": "view",
      "type": "function"
    },
    {
      "inputs": [
        {
          "internalType": "uint128",
          "name": "orderId_",
          "type": "uint128"
        },
        {
          "internalType": "uint16",
          "name": "depth_",
          "type": "uint16"
        },
        {
          "internalType": "uint16",
          "name": "childIdx_",
          "type": "uint16"
        }
      ],
      "name": "getNode",
      "outputs": [
        {
          "components": [
            {
              "internalType": "uint128",
              "name": "orderId",
              "type": "uint128"
            },
            {
              "internalType": "uint128",
              "name": "parent",
              "type": "uint128"
            },
            {
              "internalType": "address",
              "name": "owner",
              "type": "address"
            },
            {
              "internalType": "uint256",
              "name": "portion",
              "type": "uint256"
            },
            {
              "internalType": "uint256",
              "name": "residue",
              "type": "uint256"
            },
            {
              "internalType": "uint256",
              "name": "unitPrice",
              "type": "uint256"
            },
            {
              "internalType": "bool",
              "name": "listing",
              "type": "bool"
            },
            {
              "internalType": "uint16",
              "name": "childNum",
              "type": "uint16"
            },
            {
              "internalType": "uint16",
              "name": "depth",
              "type": "uint16"
            },
            {
              "internalType": "uint256",
              "name": "timestamp",
              "type": "uint256"
            }
          ],
          "internalType": "struct Listing.Node",
          "name": "",
          "type": "tuple"
        }
      ],
      "stateMutability": "view",
      "type": "function"
    },
    {
      "inputs": [],
      "name": "isAuction",
      "outputs": [
        {
          "internalType": "bool",
          "name": "",
          "type": "bool"
        }
      ],
      "stateMutability": "view",
      "type": "function"
    },
    {
      "inputs": [],
      "name": "isConsumingScheduledOp",
      "outputs": [
        {
          "internalType": "bytes4",
          "name": "",
          "type": "bytes4"
        }
      ],
      "stateMutability": "view",
      "type": "function"
    },
    {
      "inputs": [],
      "name": "isSelling",
      "outputs": [
        {
          "internalType": "bool",
          "name": "",
          "type": "bool"
        }
      ],
      "stateMutability": "view",
      "type": "function"
    },
    {
      "inputs": [
        {
          "internalType": "uint128",
          "name": "parent_orderId_",
          "type": "uint128"
        },
        {
          "internalType": "uint128",
          "name": "orderId_",
          "type": "uint128"
        },
        {
          "internalType": "uint256",
          "name": "portion_",
          "type": "uint256"
        },
        {
          "internalType": "uint256",
          "name": "unitPrice_",
          "type": "uint256"
        }
      ],
      "name": "list",
      "outputs": [],
      "stateMutability": "nonpayable",
      "type": "function"
    },
    {
      "inputs": [],
      "name": "mainOrderId",
      "outputs": [
        {
          "internalType": "uint128",
          "name": "",
          "type": "uint128"
        }
      ],
      "stateMutability": "view",
      "type": "function"
    },
    {
      "inputs": [
        {
          "internalType": "bytes32",
          "name": "",
          "type": "bytes32"
        }
      ],
      "name": "nodeMap",
      "outputs": [
        {
          "internalType": "uint128",
          "name": "orderId",
          "type": "uint128"
        },
        {
          "internalType": "uint128",
          "name": "parent",
          "type": "uint128"
        },
        {
          "internalType": "address",
          "name": "owner",
          "type": "address"
        },
        {
          "internalType": "uint256",
          "name": "portion",
          "type": "uint256"
        },
        {
          "internalType": "uint256",
          "name": "residue",
          "type": "uint256"
        },
        {
          "internalType": "uint256",
          "name": "unitPrice",
          "type": "uint256"
        },
        {
          "internalType": "bool",
          "name": "listing",
          "type": "bool"
        },
        {
          "internalType": "uint16",
          "name": "childNum",
          "type": "uint16"
        },
        {
          "internalType": "uint16",
          "name": "depth",
          "type": "uint16"
        },
        {
          "internalType": "uint256",
          "name": "timestamp",
          "type": "uint256"
        }
      ],
      "stateMutability": "view",
      "type": "function"
    },
    {
      "inputs": [],
      "name": "nodeNum",
      "outputs": [
        {
          "internalType": "uint32",
          "name": "",
          "type": "uint32"
        }
      ],
      "stateMutability": "view",
      "type": "function"
    },
    {
      "inputs": [],
      "name": "openOrder",
      "outputs": [],
      "stateMutability": "nonpayable",
      "type": "function"
    },
    {
      "inputs": [
        {
          "internalType": "uint128",
          "name": "",
          "type": "uint128"
        }
      ],
      "name": "orderIdMap",
      "outputs": [
        {
          "internalType": "bool",
          "name": "",
          "type": "bool"
        }
      ],
      "stateMutability": "view",
      "type": "function"
    },
    {
      "inputs": [],
      "name": "portion",
      "outputs": [
        {
          "internalType": "uint256",
          "name": "",
          "type": "uint256"
        }
      ],
      "stateMutability": "view",
      "type": "function"
    },
    {
      "inputs": [],
      "name": "root",
      "outputs": [
        {
          "internalType": "uint128",
          "name": "orderId",
          "type": "uint128"
        },
        {
          "internalType": "uint128",
          "name": "parent",
          "type": "uint128"
        },
        {
          "internalType": "address",
          "name": "owner",
          "type": "address"
        },
        {
          "internalType": "uint256",
          "name": "portion",
          "type": "uint256"
        },
        {
          "internalType": "uint256",
          "name": "residue",
          "type": "uint256"
        },
        {
          "internalType": "uint256",
          "name": "unitPrice",
          "type": "uint256"
        },
        {
          "internalType": "bool",
          "name": "listing",
          "type": "bool"
        },
        {
          "internalType": "uint16",
          "name": "childNum",
          "type": "uint16"
        },
        {
          "internalType": "uint16",
          "name": "depth",
          "type": "uint16"
        },
        {
          "internalType": "uint256",
          "name": "timestamp",
          "type": "uint256"
        }
      ],
      "stateMutability": "view",
      "type": "function"
    },
    {
      "inputs": [
        {
          "internalType": "address",
          "name": "newAuthority",
          "type": "address"
        }
      ],
      "name": "setAuthority",
      "outputs": [],
      "stateMutability": "nonpayable",
      "type": "function"
    },
    {
      "inputs": [],
      "name": "splittable",
      "outputs": [
        {
          "internalType": "bool",
          "name": "splittable_",
          "type": "bool"
        }
      ],
      "stateMutability": "view",
      "type": "function"
    },
    {
      "inputs": [],
      "name": "state",
      "outputs": [
        {
          "internalType": "enum IStateful.State",
          "name": "",
          "type": "uint8"
        }
      ],
      "stateMutability": "view",
      "type": "function"
    },
    {
      "inputs": [],
      "name": "terminateOrder",
      "outputs": [],
      "stateMutability": "nonpayable",
      "type": "function"
    },
    {
      "inputs": [],
      "name": "transferrable",
      "outputs": [
        {
          "internalType": "bool",
          "name": "",
          "type": "bool"
        }
      ],
      "stateMutability": "view",
      "type": "function"
    },
    {
      "inputs": [],
      "name": "unitAmount",
      "outputs": [
        {
          "internalType": "uint256",
          "name": "",
          "type": "uint256"
        }
      ],
      "stateMutability": "view",
      "type": "function"
    },
    {
      "inputs": [],
      "name": "unitPrice",
      "outputs": [
        {
          "internalType": "uint256",
          "name": "",
          "type": "uint256"
        }
      ],
      "stateMutability": "view",
      "type": "function"
    }
  ],
  "bytecode": "0x6080604052346200049e5762001e58803803806200001d81620004a2565b928339810190610160818303126200049e576200003a81620004c8565b916200004960208301620004c8565b906200005860408401620004dd565b916200006760608501620004dd565b60808501516001600160401b0381116200049e57850183601f820112156200049e578051906001600160401b0382116200035557620000b0601f8301601f1916602001620004a2565b94828652602083830101116200049e575f5b8281106200048857505060205f9185010152620000e260a08601620004eb565b92620000f160c08701620004eb565b9260e08701519561010088015193620001146101406101208b01519a01620004dd565b5f80546001600160a01b0319166001600160a01b038d16908117909155604051908152909a907f2f658b440c35314f52658ea8a740e05b284cdc84dc9ae01e891f21b8933e7cad90602090a1601380546001600160a01b0319166001600160a01b039283161790556014805493151560a01b60ff60a01b166001600160b01b031990941694909116939093179190911790151560a81b60ff60a81b161790558051906001600160401b038211620003555760155490600182811c921680156200047d575b6020831014620004695781601f8493116200040b575b50602090601f831160011462000390575f9262000384575b50508160011b915f199060031b1c1916176015555b601680546001600160801b0319166001600160801b03841617905560178490556018556019849055601a5485156200037d5760015b6006811015620003695760ff169061ff0087151560081b169061ffff19161717601a55600163ffffffff19600854161760085560018060a01b036014541691604051610140810181811060018060401b03821117620003555760405260018060801b038316815260018060801b03821660208201528360408201528460608201528460808201528560a0820152861560c08201525f60e08201525f6101008201526101204291015260018060801b03199060801b169060018060801b03161760015560018060a01b031960025416176002558060035560045560055560ff6006549115169064ffffffffff191617600655426007556040516119379081620005018239f35b634e487b7160e01b5f52604160045260245ffd5b634e487b7160e01b5f52602160045260245ffd5b5f62000250565b015190505f8062000206565b60155f90815293505f8051602062001e3883398151915291905b601f1984168510620003ef576001945083601f19811610620003d6575b505050811b016015556200021b565b01515f1960f88460031b161c191690555f8080620003c7565b81810151835560209485019460019093019290910190620003aa565b60155f529091505f8051602062001e38833981519152601f840160051c81016020851062000461575b90849392915b601f830160051c8201811062000452575050620001ee565b5f81558594506001016200043a565b508062000434565b634e487b7160e01b5f52602260045260245ffd5b91607f1691620001d8565b80602080928401015182828901015201620000c2565b5f80fd5b6040519190601f01601f191682016001600160401b038111838210176200035557604052565b51906001600160a01b03821682036200049e57565b519081151582036200049e57565b51906001600160801b03821682036200049e5756fe6080604081815260049182361015610015575f80fd5b5f3560e01c90816302d05d3f1461118057508063047a7ef11461115a57806311ee0bc71461113c5780631541691a146111005780631f1a9d8a146110c75780632d8dcef11461108c57806342370cb814610fdb5780634d08f0f714610fb75780635297e0f614610f085780637a9e5e4b14610e675780637e4eb12014610a8f5780638b6ec2bf14610a545780638fb3603714610a105780639b3aff7214610954578063a930406a14610936578063a9aee339146108de578063b82926b9146108bd578063bc6b599014610842578063bf7e214f1461081b578063c05c5e94146107f3578063c17723f9146107cd578063c19d93fb1461078f578063c97990af14610768578063cbf2183714610742578063d1c6604d14610456578063e1a32e9c1461041a578063e73faa2d146103fc578063ea11262514610317578063ebf0c717146102b05763ef430aa614610169575f80fd5b346102ac575f3660031901126102ac5780515f60155460018160011c916001811680156102a2575b602097888510821461028f57509183918895938795865290815f1461026e5750600114610211575b50506101ca92509492940384611337565b815192818492835281519182828501525f5b8381106101fb5750505f83830185015250601f01601f19168101030190f35b81810183015187820187015286945082016101dc565b9093915060155f527f55f448fdea98c4d29eb340757ef0a66cd03dbb9538908a6a81d96026b71ec475935f915b8183106102565750879450508201016101ca5f6101b9565b8554878401850152948501948694509183019161023e565b9150506101ca94925060ff191682840152151560051b82010185925f6101b9565b602290634e487b7160e01b5f525260245ffd5b92607f1692610191565b5f80fd5b50346102ac575f3660031901126102ac576103136001549160018060a01b036002541692600354945490600554906006549161ffff93600754955198899860ff878760181c16978760081c169616946001600160801b038160801c91168b611256565b0390f35b5090346102ac5760603660031901126102ac576103326111a3565b9160243561ffff80821682036102ac576044359481861686036102ac57610313956006936103689261036261148d565b5061174b565b5f526010602052825f209083519461037f866112d6565b82546001600160801b0381168752608090811c602088015260018401546001600160a01b0316868801526002840154606088015260038401549087015282015460a0860152600582015460ff8116151560c0870152600881901c821660e087015260181c16610100850152015461012083015251918291826111cf565b50346102ac575f3660031901126102ac576020906019549051908152f35b50346102ac5760203660031901126102ac576020906001600160801b0361043f6111a3565b165f526011825260ff815f20541690519015158152f35b5090346102ac5760603660031901126102ac576104716111a3565b9061047a6111b9565b60443591610498600160ff601a5416610492816112b8565b14611359565b6001600160801b0380921692835f526104c6602095601187526104c160ff895f205416156113a5565b6116c7565b60018101546001600160a01b039391908416331461070b5760038101918254928484106106db576005830190815494600160ff87161515036106ab579089969594939291875f5260128c52868d5f205460ff16610522906113f1565b61052b91611431565b905561ffff9485809560081c1661054190611452565b825462ffff00191660089190911b62ffff00161782558a8c6105628661171f565b9987868d895416980154955460181c1661057b90611465565b9682519c8d9b61058a8d6112d6565b8c52848c01918252838c019333855260608d01958d8888526080019788528d60a08101998a5260c0019d5f8f5260e081019b5f8d5261010082019e8f91169052610120019e8f4290525f52601090525f209d5116906001600160801b0319905160801b16178c5560018c019151166bffffffffffffffffffffffff60a01b8254161790555160028a01555160038901555190870155600586019351151561063d90859060ff801983541691151516179055565b51835462ffff001916911660081b62ffff00161782555181549060181b64ffff000000169064ffff00000019161790555190600601555f52601190525f2060ff19815416600117905560085463ffffffff80821661069a90611478565b63ffffffff19909216911617600855005b8b5162461bcd60e51b81528085018c9052600a602482015269139bdd081b1a5cdd195960b21b6044820152606490fd5b895162461bcd60e51b81528083018a9052600a6024820152694e6f207265736964756560b01b6044820152606490fd5b875162461bcd60e51b8152808301889052601160248201527020b63932b0b23c903a34329037bbb732b960791b6044820152606490fd5b50346102ac575f3660031901126102ac5760209060ff60145460a01c1690519015158152f35b50346102ac575f3660031901126102ac576020906001600160801b03601654169051908152f35b50346102ac575f3660031901126102ac5760ff601a541690519060068110156107ba57602092508152f35b602183634e487b7160e01b5f525260245ffd5b50346102ac575f3660031901126102ac5760209060ff601a5460081c1690519015158152f35b50346102ac575f3660031901126102ac5760135490516001600160a01b039091168152602090f35b50346102ac575f3660031901126102ac575f5490516001600160a01b039091168152602090f35b5090346102ac5760203660031901126102ac5780355f526010602052610313825f209283549360018060a01b0360018201541693600282015495600383015491830154600584015492600661ffff950154955198899860ff878760181c16978760081c169616946001600160801b038160801c91168b611256565b50346102ac575f3660031901126102ac576020906001601754119051908152f35b82346102ac575f3660031901126102ac576108f936336114d7565b601a5460ff81169160068310156109235750610919600360059314611359565b60ff191617601a55005b602190634e487b7160e01b5f525260245ffd5b50346102ac575f3660031901126102ac576020906018549051908152f35b5090346102ac5760203660031901126102ac576103139160066109866109786111a3565b61098061148d565b506116c7565b825193610992856112d6565b81546001600160801b038116865260801c602086015260018060a01b0360018301541684860152600282015460608601526003820154608086015281015460a0850152600581015460ff8116151560c086015261ffff90818160081c1660e087015260181c16610100850152015461012083015251918291826111cf565b50346102ac575f3660031901126102ac5760209060ff5f5460a01c165f14610a4d57638fb3603760e01b905b516001600160e01b03199091168152f35b5f90610a3c565b82346102ac575f3660031901126102ac57610a6f36336114d7565b601a5460ff81169160068310156109235750610919600260039314611359565b50346102ac5760803660031901126102ac57610aa96111a3565b610ab16111b9565b926044803594606492601a549360ff9788861698610ace8a6112b8565b610adb6001809b14611359565b6001600160801b0380951696875f52610b0360209960118b526104c1848d5f205416156113a5565b966003880190815490858210610e385760058a0194855494818616610e0557908e8d8f938360145460a81c1615610da9575b60081c831680610d9a575b15610d215750505050898e01546001600160a01b03163203610ce7575093898b8e8a9894968f9c9b9796829b97610b78878f9c611431565b905561ffff9a8b9a8b809360081c16610b9090611452565b845462ffff00191660089190911b62ffff0016178455610baf9061171f565b9d5416915460181c16610bc190611465565b978d519d8e95610bd0876112d6565b86528486019283528086019433865260608701968888526080810198895260a0810199358a5260c081019e8f5260e081019b5f8d5261010082019e8f91169052610120019e8f4290525f52601090525f209d5116906001600160801b0319905160801b16178c558b0190600160a01b600190039051166bffffffffffffffffffffffff60a01b8254161790555160028a015551600389015551908701556005860193511515610c8b90859060ff801983541691151516179055565b51835462ffff001916911660081b62ffff00161782555181549060181b64ffff000000169064ffff00000019161790555190600601555f52601190525f209060ff1982541617905560085463ffffffff80821661069a90611478565b87752737ba103a34329030bab1ba34b7b71037bbb732b91760511b88928f8f90519362461bcd60e51b855284015260166024840152820152fd5b610d34936012915f52525f2054166113f1565b898e01546001600160a01b03163303610d63575093898b8e8a9894968f9c9b9796829b97610b78878f9c611431565b87722737ba103a3432903634b9ba1037bbb732b91760691b88928f8f90519362461bcd60e51b855284015260136024840152820152fd5b5061ffff8860181c1615610b40565b929350505061ffff8660181c16610dc457908e8d8f93610b35565b8e5162461bcd60e51b8152808b018f9052601c60248201527f4f6e6c79207472616e736665727261626c6520666f72206f6e63652e00000000818501528990fd5b8e5162461bcd60e51b8152808b018f9052600f60248201526e20b63932b0b23c903634b9ba32b21760891b818501528990fd5b876a2737903932b9b4b23ab29760a91b88928f8f90519362461bcd60e51b8552840152600b6024840152820152fd5b50346102ac5760203660031901126102ac576001600160a01b03823581811693908481036102ac575f549283163303610ef3573b15610edc576001600160a01b0319821684175f5582518481527f2f658b440c35314f52658ea8a740e05b284cdc84dc9ae01e891f21b8933e7cad90602090a1005b82516361798f2f60e11b8152908101849052602490fd5b835162d1953b60e31b81523381840152602490fd5b5090346102ac5760203660031901126102ac57610f236111a3565b610f2d36336114d7565b60ff601a541660068110156107ba5790610f5160016001600160801b039314611359565b1690815f52601260205260ff835f20541615610f7c57505f908152601260205220805460ff19169055005b606490602084519162461bcd60e51b835282015260156024820152742332b29030b63932b0b23c903932b632b0b9b2b21760591b6044820152fd5b50346102ac575f3660031901126102ac5760209063ffffffff600854169051908152f35b5090346102ac5760203660031901126102ac57610ff66111a3565b61100036336114d7565b60ff601a541660068110156107ba579061102460016001600160801b039314611359565b1690815f52601260205260ff835f20541661105157505f908152601260205220805460ff19166001179055005b606490602084519162461bcd60e51b835282015260156024820152742332b29030b63932b0b23c903232b23ab1ba32b21760591b6044820152fd5b82346102ac575f3660031901126102ac576110a736336114d7565b601a5460ff81169160068310156109235750610919600160029314611359565b82346102ac575f3660031901126102ac576110e236336114d7565b601a5460ff8116916006831015610923575061091960019215611359565b50346102ac5760203660031901126102ac576020906001600160801b036111256111a3565b165f526012825260ff815f20541690519015158152f35b50346102ac575f3660031901126102ac576020906017549051908152f35b50346102ac575f3660031901126102ac5760209060ff60145460a81c1690519015158152f35b346102ac575f3660031901126102ac576014546001600160a01b03168152602090f35b600435906001600160801b03821682036102ac57565b602435906001600160801b03821682036102ac57565b9190916101408101926001600160801b03808251168352602082015116602083015260018060a01b036040820151166040830152606081015160608301526080810151608083015260a081015160a083015260c0810151151560c083015260e081015161ffff80911660e08401526101009081830151169083015261012080910151910152565b969390926101209896939b9a9995929b61014089019c6001600160801b038092168a5216602089015260018060a01b031660408801526060870152608086015260a0850152151560c084015261ffff80921660e0840152166101008201520152565b600611156112c257565b634e487b7160e01b5f52602160045260245ffd5b610140810190811067ffffffffffffffff8211176112f357604052565b634e487b7160e01b5f52604160045260245ffd5b67ffffffffffffffff81116112f357604052565b60a0810190811067ffffffffffffffff8211176112f357604052565b90601f8019910116810190811067ffffffffffffffff8211176112f357604052565b1561136057565b60405162461bcd60e51b815260206004820152601b60248201527f57726f6e672073746174652e204163636573732064656e6965642e00000000006044820152606490fd5b156113ac57565b60405162461bcd60e51b815260206004820152601760248201527f4f72646572496420616c7265616479206578697374732e0000000000000000006044820152606490fd5b156113f857565b60405162461bcd60e51b81526020600482015260116024820152702332b2903737ba103232b23ab1ba32b21760791b6044820152606490fd5b9190820391821161143e57565b634e487b7160e01b5f52601160045260245ffd5b61ffff80911690811461143e5760010190565b90600161ffff8093160191821161143e57565b63ffffffff80911690811461143e5760010190565b6040519061149a826112d6565b5f610120838281528260208201528260408201528260608201528260808201528260a08201528260c08201528260e0820152826101008201520152565b5f915f549160018060a01b039081841692806004116102ac575f806040945f808751966020938489019163b700961360e01b8352169788602482015230604482015263ffffffff60e01b8335166064820152606481526115368161131b565b51908a5afa903d156116be573d9167ffffffffffffffff83116112f357879081519361156b84601f19601f8401160186611337565b84523d5f8486013e5b611644575b5050501561158b575b50505050505050565b63ffffffff161561162e5760ff60a01b19948516600160a01b175f55833b156102ac576064935f92838551968780958194634a63ebf760e11b835260048301528860248301528060448301528084848401378181018301849052601f01601f191681010301925af19081156116255750611612575b5081541690555f808080808080611582565b61161d919250611307565b5f905f611600565b513d5f823e3d90fd5b50602491519062d1953b60e31b82526004820152fd5b825192949193909291908383106116875750508390810103126102ac5761166d859183016117a4565b91015163ffffffff811681036102ac57905b5f8086611579565b9382819392969450101561169e575b50505061167f565b829350918192810103126102ac576116b691016117a4565b5f8080611696565b86606092611574565b6116d29060016117b1565b60018101546001600160a01b0316156116e85790565b60405162461bcd60e51b815260206004820152600f60248201526e1bdc99195c881b9bdd08199bdd5b99608a1b6044820152606490fd5b6117489060056001600160801b038254169101549061ffff808360081c169260181c169061174b565b90565b91906040519160208301936001600160801b03199060801b16845261ffff60f01b809260f01b16603084015260f01b166032820152601481526040810181811067ffffffffffffffff8211176112f35760405251902090565b519081151582036102ac57565b906117c382546001600160801b031690565b906001600160801b039283821680948416146118fa57600501549261ffff92838560081c169384156118ef57946001948660019260181c16915b818882161115611814575050505050505050600990565b61183061182282858761174b565b5f52601060205260405f2090565b8088015461184e906001600160a01b03165b6001600160a01b031690565b156118b8578561187461186883546001600160801b031690565b6001600160801b031690565b146118ac5786611883916117b1565b80880154611899906001600160a01b0316611842565b6118ac57506118a790611452565b6117fd565b97505050505050505090565b60405162461bcd60e51b815260206004820152600f60248201526e10da1a5b19081b9bdd08199bdd5b99608a1b6044820152606490fd5b505050505050600990565b925050509056fea264697066735822122075e5dffe09e90893ab3fda4c49c0e37c71109d430022b7f592523b4a89d3a82a64736f6c6343000818003355f448fdea98c4d29eb340757ef0a66cd03dbb9538908a6a81d96026b71ec475",
  "linkReferences": {},
  "deployedLinkReferences": {}
}