{
  "_format": "hh-sol-artifact-1",
  "contractName": "TransferTree",
  "sourceName": "contracts/TransferTree.sol",
  "abi": [
    {
      "inputs": [
        {
          "internalType": "address",
          "name": "adminContract_",
          "type": "address"
        },
        {
          "internalType": "address",
          "name": "ownerAddress_",
          "type": "address"
        },
        {
          "internalType": "address",
          "name": "from_",
          "type": "address"
        },
        {
          "internalType": "uint256",
          "name": "price_",
          "type": "uint256"
        },
        {
          "internalType": "uint256",
          "name": "unitAmount_",
          "type": "uint256"
        },
        {
          "internalType": "uint256",
          "name": "portion_",
          "type": "uint256"
        },
        {
          "internalType": "bool",
          "name": "transferrable_",
          "type": "bool"
        },
        {
          "internalType": "bool",
          "name": "isSelling_",
          "type": "bool"
        }
      ],
      "stateMutability": "nonpayable",
      "type": "constructor"
    },
    {
      "inputs": [
        {
          "internalType": "address",
          "name": "authority",
          "type": "address"
        }
      ],
      "name": "AccessManagedInvalidAuthority",
      "type": "error"
    },
    {
      "inputs": [
        {
          "internalType": "address",
          "name": "caller",
          "type": "address"
        },
        {
          "internalType": "uint32",
          "name": "delay",
          "type": "uint32"
        }
      ],
      "name": "AccessManagedRequiredDelay",
      "type": "error"
    },
    {
      "inputs": [
        {
          "internalType": "address",
          "name": "caller",
          "type": "address"
        }
      ],
      "name": "AccessManagedUnauthorized",
      "type": "error"
    },
    {
      "anonymous": false,
      "inputs": [
        {
          "indexed": false,
          "internalType": "address",
          "name": "authority",
          "type": "address"
        }
      ],
      "name": "AuthorityUpdated",
      "type": "event"
    },
    {
      "inputs": [
        {
          "internalType": "uint256",
          "name": "",
          "type": "uint256"
        }
      ],
      "name": "Receipt_list",
      "outputs": [
        {
          "internalType": "uint8",
          "name": "fromIdx",
          "type": "uint8"
        },
        {
          "internalType": "address",
          "name": "from",
          "type": "address"
        },
        {
          "internalType": "address",
          "name": "to",
          "type": "address"
        },
        {
          "internalType": "uint256",
          "name": "price",
          "type": "uint256"
        },
        {
          "internalType": "uint256",
          "name": "portion",
          "type": "uint256"
        },
        {
          "internalType": "uint256",
          "name": "remainedPortion",
          "type": "uint256"
        }
      ],
      "stateMutability": "view",
      "type": "function"
    },
    {
      "inputs": [
        {
          "internalType": "uint256",
          "name": "",
          "type": "uint256"
        }
      ],
      "name": "Transfer_list",
      "outputs": [
        {
          "internalType": "uint8",
          "name": "fromIdx",
          "type": "uint8"
        },
        {
          "internalType": "address",
          "name": "owner",
          "type": "address"
        },
        {
          "internalType": "uint256",
          "name": "price",
          "type": "uint256"
        },
        {
          "internalType": "uint256",
          "name": "portion",
          "type": "uint256"
        },
        {
          "internalType": "uint256",
          "name": "remainedPortion",
          "type": "uint256"
        }
      ],
      "stateMutability": "view",
      "type": "function"
    },
    {
      "inputs": [
        {
          "internalType": "uint8",
          "name": "fromIdx_",
          "type": "uint8"
        },
        {
          "internalType": "uint256",
          "name": "portion_",
          "type": "uint256"
        }
      ],
      "name": "acceptTransfer",
      "outputs": [],
      "stateMutability": "nonpayable",
      "type": "function"
    },
    {
      "inputs": [],
      "name": "authority",
      "outputs": [
        {
          "internalType": "address",
          "name": "",
          "type": "address"
        }
      ],
      "stateMutability": "view",
      "type": "function"
    },
    {
      "inputs": [],
      "name": "creator",
      "outputs": [
        {
          "internalType": "address",
          "name": "",
          "type": "address"
        }
      ],
      "stateMutability": "view",
      "type": "function"
    },
    {
      "inputs": [],
      "name": "hasSettled",
      "outputs": [
        {
          "internalType": "bool",
          "name": "",
          "type": "bool"
        }
      ],
      "stateMutability": "view",
      "type": "function"
    },
    {
      "inputs": [],
      "name": "isConsumingScheduledOp",
      "outputs": [
        {
          "internalType": "bytes4",
          "name": "",
          "type": "bytes4"
        }
      ],
      "stateMutability": "view",
      "type": "function"
    },
    {
      "inputs": [],
      "name": "isSelling",
      "outputs": [
        {
          "internalType": "bool",
          "name": "",
          "type": "bool"
        }
      ],
      "stateMutability": "view",
      "type": "function"
    },
    {
      "inputs": [
        {
          "internalType": "uint8",
          "name": "fromIdx_",
          "type": "uint8"
        },
        {
          "internalType": "uint256",
          "name": "price_",
          "type": "uint256"
        },
        {
          "internalType": "uint256",
          "name": "portion_",
          "type": "uint256"
        }
      ],
      "name": "newTransfer",
      "outputs": [],
      "stateMutability": "nonpayable",
      "type": "function"
    },
    {
      "inputs": [],
      "name": "orderType",
      "outputs": [
        {
          "internalType": "enum TransferTree.OrderType",
          "name": "",
          "type": "uint8"
        }
      ],
      "stateMutability": "view",
      "type": "function"
    },
    {
      "inputs": [],
      "name": "originalOwner",
      "outputs": [
        {
          "internalType": "address",
          "name": "",
          "type": "address"
        }
      ],
      "stateMutability": "view",
      "type": "function"
    },
    {
      "inputs": [],
      "name": "portionportion",
      "outputs": [
        {
          "internalType": "uint256",
          "name": "",
          "type": "uint256"
        }
      ],
      "stateMutability": "view",
      "type": "function"
    },
    {
      "inputs": [
        {
          "internalType": "address",
          "name": "newAuthority",
          "type": "address"
        }
      ],
      "name": "setAuthority",
      "outputs": [],
      "stateMutability": "nonpayable",
      "type": "function"
    },
    {
      "inputs": [],
      "name": "splittable",
      "outputs": [
        {
          "internalType": "bool",
          "name": "",
          "type": "bool"
        }
      ],
      "stateMutability": "view",
      "type": "function"
    },
    {
      "inputs": [],
      "name": "terminateTransfer",
      "outputs": [],
      "stateMutability": "nonpayable",
      "type": "function"
    },
    {
      "inputs": [],
      "name": "transferrable",
      "outputs": [
        {
          "internalType": "bool",
          "name": "",
          "type": "bool"
        }
      ],
      "stateMutability": "view",
      "type": "function"
    },
    {
      "inputs": [],
      "name": "unitAmount",
      "outputs": [
        {
          "internalType": "uint256",
          "name": "",
          "type": "uint256"
        }
      ],
      "stateMutability": "view",
      "type": "function"
    }
  ],
  "bytecode": "0x608060405234801562000010575f80fd5b50604051620018b2380380620018b2833981016040819052620000339162000323565b876200003f81620002a4565b505f841180156200004f57505f83115b620000a05760405162461bcd60e51b815260206004820152601460248201527f496e76616c696420626173696320696e666f732e000000000000000000000000604482015260640160405180910390fd5b600280546001600160a01b0319166001600160a01b03898116919091179091556001858155600380546004879055928916600163ff00000160a01b031990931692909217600160b81b851515021761ffff60a81b1916908511600160b01b0260ff60a81b191617600160a81b8315150217905532330362000134576003805460ff60a01b1916600160a01b17905562000142565b6003805460ff60a01b191690555b50506003805460ff60c01b191690556040805160c0810182525f8082526001600160a01b03968716602083019081526002548816938301938452606083019687526080830185815260a0840195865260068054600181018255935292517ff652222313e28459528d920b65115c16c04f3efc82aaedc97be59f3f377c0d3f60059093029283018054925160ff9092166001600160a81b031990931692909217610100918a169190910217905591517ff652222313e28459528d920b65115c16c04f3efc82aaedc97be59f3f377c0d40830180546001600160a01b031916919097161790955592517ff652222313e28459528d920b65115c16c04f3efc82aaedc97be59f3f377c0d4184015592517ff652222313e28459528d920b65115c16c04f3efc82aaedc97be59f3f377c0d428301555090517ff652222313e28459528d920b65115c16c04f3efc82aaedc97be59f3f377c0d439091015550620003ab9050565b5f80546001600160a01b0319166001600160a01b0383169081179091556040519081527f2f658b440c35314f52658ea8a740e05b284cdc84dc9ae01e891f21b8933e7cad9060200160405180910390a150565b80516001600160a01b03811681146200030e575f80fd5b919050565b805180151581146200030e575f80fd5b5f805f805f805f80610100898b0312156200033c575f80fd5b6200034789620002f7565b97506200035760208a01620002f7565b96506200036760408a01620002f7565b9550606089015194506080890151935060a089015192506200038c60c08a0162000313565b91506200039c60e08a0162000313565b90509295985092959890939650565b6114f980620003b95f395ff3fe608060405234801561000f575f80fd5b5060043610610115575f3560e01c8063a930406a116100ad578063cbf218371161007d578063e7a3b15511610063578063e7a3b15514610300578063ec2a949414610308578063f1fffdcb1461031b575f80fd5b8063cbf21837146102c7578063de55900b146102ed575f80fd5b8063a930406a14610270578063b82926b914610287578063bef54812146102ae578063bf7e214f146102b7575f80fd5b80636f17591f116100e85780636f17591f146102055780637a9e5e4b146102265780638fb360371461023b57806394bd27bf1461025c575f80fd5b806302d05d3f14610119578063047a7ef114610149578063199d80ff1461016d5780633896c045146101be575b5f80fd5b60035461012c906001600160a01b031681565b6040516001600160a01b0390911681526020015b60405180910390f35b60035461015d90600160b81b900460ff1681565b6040519015158152602001610140565b61018061017b366004611255565b61032e565b6040805160ff9790971687526001600160a01b03958616602088015293909416928501929092526060840152608083015260a082015260c001610140565b6101d16101cc366004611255565b610384565b6040805160ff90961686526001600160a01b039094166020860152928401919091526060830152608082015260a001610140565b60035461021990600160a01b900460ff1681565b6040516101409190611280565b6102396102343660046112a6565b6103cf565b005b61024361044c565b6040516001600160e01b03199091168152602001610140565b60035461015d90600160c01b900460ff1681565b61027960015481565b604051908152602001610140565b60035461015d90760100000000000000000000000000000000000000000000900460ff1681565b61027960045481565b5f546001600160a01b031661012c565b60035461015d907501000000000000000000000000000000000000000000900460ff1681565b6102396102fb3660046112e8565b61046e565b610239610896565b610239610316366004611318565b610b78565b60025461012c906001600160a01b031681565b6006818154811061033d575f80fd5b5f9182526020909120600590910201805460018201546002830154600384015460049094015460ff841695506101009093046001600160a01b039081169492169290919086565b60058181548110610393575f80fd5b5f918252602090912060049091020180546001820154600283015460039093015460ff831694506101009092046001600160a01b031692909185565b5f5433906001600160a01b0316811461040a5760405162d1953b60e31b81526001600160a01b03821660048201526024015b60405180910390fd5b816001600160a01b03163b5f0361043f576040516361798f2f60e11b81526001600160a01b0383166004820152602401610401565b61044882610fe2565b5050565b5f8054600160a01b900460ff1661046257505f90565b50638fb3603760e01b90565b5f600354600160a01b900460ff16600181111561048d5761048d61126c565b03610555576003546040805163c19d93fb60e01b815290516005926001600160a01b03169163c19d93fb9160048083019260209291908290030181865afa1580156104da573d5f803e3d5ffd5b505050506040513d601f19601f820116820180604052508101906104fe9190611340565b600581111561050f5761050f61126c565b036105505760405162461bcd60e51b815260206004820152601160248201527027b832b930ba34b7b7103330b4b632b21760791b6044820152606401610401565b6105a3565b600354600160c01b900460ff16156105a35760405162461bcd60e51b815260206004820152601160248201527027b832b930ba34b7b7103330b4b632b21760791b6044820152606401610401565b600354600160b81b900460ff166105fc5760405162461bcd60e51b815260206004820181905260248201527f54686973206f72646572206973206e6f74207472616e736665727261626c652e6044820152606401610401565b5f811161064b5760405162461bcd60e51b815260206004820152601960248201527f416d6f756e742073686f756c6420626520706f736974697665000000000000006044820152606401610401565b8060068460ff16815481106106625761066261135e565b905f5260205f2090600502016004015410156106c05760405162461bcd60e51b815260206004820152601b60248201527f4e6f7420656e6f75676820616d6f756e742072656d61696e65642e00000000006044820152606401610401565b336001600160a01b031660068460ff16815481106106e0576106e061135e565b5f9182526020909120600160059092020101546001600160a01b0316146107495760405162461bcd60e51b815260206004820152601c60248201527f5573696e672077726f6e672069647820746f207472616e736665722e000000006044820152606401610401565b8060068460ff16815481106107605761076061135e565b905f5260205f2090600502016004015f82825461077d9190611386565b90915550506040805160a08101825260ff948516815233602082019081529181019384526060810183815260808201938452600580546001810182555f91909152915160049092027f036b6384b5eca791c62761152d0c79bb0604c104a5fb6f4eb0703f3154bb3db08101805494516001600160a01b03166101000274ffffffffffffffffffffffffffffffffffffffffff1990951693909716929092179290921790945591517f036b6384b5eca791c62761152d0c79bb0604c104a5fb6f4eb0703f3154bb3db184015590517f036b6384b5eca791c62761152d0c79bb0604c104a5fb6f4eb0703f3154bb3db2830155517f036b6384b5eca791c62761152d0c79bb0604c104a5fb6f4eb0703f3154bb3db390910155565b6108a2335b5f36611042565b5f600354600160a01b900460ff1660018111156108c1576108c161126c565b03610989576003546040805163c19d93fb60e01b815290516005926001600160a01b03169163c19d93fb9160048083019260209291908290030181865afa15801561090e573d5f803e3d5ffd5b505050506040513d601f19601f820116820180604052508101906109329190611340565b60058111156109435761094361126c565b036109845760405162461bcd60e51b815260206004820152601160248201527027b832b930ba34b7b7103330b4b632b21760791b6044820152606401610401565b6109d7565b600354600160c01b900460ff16156109d75760405162461bcd60e51b815260206004820152601160248201527027b832b930ba34b7b7103330b4b632b21760791b6044820152606401610401565b600380547fffffffffffffff00ffffffffffffffffffffffffffffffffffffffffffffffff16600160c01b1790556040805160c0810182525f80825260208201819052918101829052606081018290526080810182905260a081018290525f5b600554811015610ad05760058181548110610a5457610a5461135e565b5f9182526020909120600490910201546005805460ff90921694509082908110610a8057610a8061135e565b905f5260205f2090600402016003015460068460ff1681548110610aa657610aa661135e565b905f5260205f2090600502016004015f828254610ac3919061139f565b9091555050600101610a37565b505f5b600654811015610b735760068181548110610af057610af061135e565b5f9182526020918290206040805160c0810182526005909302909101805460ff811684526001600160a01b036101009091048116948401949094526001810154909316908201526002820154606082015260038201546080820181905260049092015460a082018190529093501115610b6b57610b6b6113b2565b600101610ad3565b505050565b610b813361089b565b5f600354600160a01b900460ff166001811115610ba057610ba061126c565b03610c68576003546040805163c19d93fb60e01b815290516005926001600160a01b03169163c19d93fb9160048083019260209291908290030181865afa158015610bed573d5f803e3d5ffd5b505050506040513d601f19601f82011682018060405250810190610c119190611340565b6005811115610c2257610c2261126c565b03610c635760405162461bcd60e51b815260206004820152601160248201527027b832b930ba34b7b7103330b4b632b21760791b6044820152606401610401565b610cb6565b600354600160c01b900460ff1615610cb65760405162461bcd60e51b815260206004820152601160248201527027b832b930ba34b7b7103330b4b632b21760791b6044820152606401610401565b5f8111610d055760405162461bcd60e51b815260206004820152601a60248201527f416d6f756e742073686f756c6420626520706f7369746976652e0000000000006044820152606401610401565b8060058360ff1681548110610d1c57610d1c61135e565b905f5260205f209060040201600301541015610d7a5760405162461bcd60e51b815260206004820152601c60248201527f4e6f7420656e6f7567682072656d61696e696e6720616d6f756e742e000000006044820152606401610401565b336001600160a01b031660058360ff1681548110610d9a57610d9a61135e565b5f91825260209091206004909102015461010090046001600160a01b031603610e055760405162461bcd60e51b815260206004820152601b60248201527f43616e6e6f74206163636570742066726f6d20796f757273656c6600000000006044820152606401610401565b600354600160c01b900460ff16610e5e5760405162461bcd60e51b815260206004820152601860248201527f54686973205472616e7366657220697320636c6f7365642e00000000000000006044820152606401610401565b8060058360ff1681548110610e7557610e7561135e565b905f5260205f2090600402016003015f828254610e929190611386565b925050819055505f60058360ff1681548110610eb057610eb061135e565b905f5260205f2090600402015f0160019054906101000a90046001600160a01b0316905060066040518060c001604052808560ff168152602001836001600160a01b03168152602001336001600160a01b0316815260200160058660ff1681548110610f1e57610f1e61135e565b5f918252602080832060049283020160019081015485528482018990526040948501989098528554808901875595835291829020845160059096020180549285015160ff90961674ffffffffffffffffffffffffffffffffffffffffff19909316929092176101006001600160a01b039687160217825591830151958101805473ffffffffffffffffffffffffffffffffffffffff19169690941695909517909255606081015160028501556080810151600385015560a001519201919091555050565b5f805473ffffffffffffffffffffffffffffffffffffffff19166001600160a01b0383169081179091556040519081527f2f658b440c35314f52658ea8a740e05b284cdc84dc9ae01e891f21b8933e7cad9060200160405180910390a150565b5f806110756110585f546001600160a01b031690565b863061106760045f898b6113c6565b611070916113ed565b611138565b91509150816111315763ffffffff81161561110e575f805460ff60a01b198116600160a01b17909155604051634a63ebf760e11b81526001600160a01b03909116906394c7d7ee906110cf9088908890889060040161141d565b5f604051808303815f87803b1580156110e6575f80fd5b505af11580156110f8573d5f803e3d5ffd5b50505f805460ff60a01b19169055506111319050565b60405162d1953b60e31b81526001600160a01b0386166004820152602401610401565b5050505050565b6040516001600160a01b03848116602483015283811660448301526001600160e01b0319831660648301525f9182918291829189169060840160408051601f198184030181529181526020820180517bffffffffffffffffffffffffffffffffffffffffffffffffffffffff1663b700961360e01b179052516111bb919061145b565b5f60405180830381855afa9150503d805f81146111f3576040519150601f19603f3d011682016040523d82523d5f602084013e6111f8565b606091505b5091509150811561124a57604081511061122a57808060200190518101906112209190611496565b909450925061124a565b602081511061124a578080602001905181019061124791906114d3565b93505b505094509492505050565b5f60208284031215611265575f80fd5b5035919050565b634e487b7160e01b5f52602160045260245ffd5b60208101600283106112a057634e487b7160e01b5f52602160045260245ffd5b91905290565b5f602082840312156112b6575f80fd5b81356001600160a01b03811681146112cc575f80fd5b9392505050565b803560ff811681146112e3575f80fd5b919050565b5f805f606084860312156112fa575f80fd5b611303846112d3565b95602085013595506040909401359392505050565b5f8060408385031215611329575f80fd5b611332836112d3565b946020939093013593505050565b5f60208284031215611350575f80fd5b8151600681106112cc575f80fd5b634e487b7160e01b5f52603260045260245ffd5b634e487b7160e01b5f52601160045260245ffd5b8181038181111561139957611399611372565b92915050565b8082018082111561139957611399611372565b634e487b7160e01b5f52600160045260245ffd5b5f80858511156113d4575f80fd5b838611156113e0575f80fd5b5050820193919092039150565b6001600160e01b031981358181169160048510156114155780818660040360031b1b83161692505b505092915050565b6001600160a01b038416815260406020820152816040820152818360608301375f818301606090810191909152601f909201601f1916010192915050565b5f82515f5b8181101561147a5760208186018101518583015201611460565b505f920191825250919050565b805180151581146112e3575f80fd5b5f80604083850312156114a7575f80fd5b6114b083611487565b9150602083015163ffffffff811681146114c8575f80fd5b809150509250929050565b5f602082840312156114e3575f80fd5b6112cc8261148756fea164736f6c6343000816000a",
  "linkReferences": {},
  "deployedLinkReferences": {}
}