{
  "_format": "hh-sol-artifact-1",
  "contractName": "TransferTree",
  "sourceName": "contracts/TransferTree.sol",
  "abi": [
    {
      "inputs": [
        {
          "internalType": "address",
          "name": "adminContract_",
          "type": "address"
        },
        {
          "internalType": "address",
          "name": "ownerAddress_",
          "type": "address"
        },
        {
          "internalType": "address",
          "name": "from_",
          "type": "address"
        },
        {
          "internalType": "uint256",
          "name": "price_",
          "type": "uint256"
        },
        {
          "internalType": "uint256",
          "name": "unitAmount_",
          "type": "uint256"
        },
        {
          "internalType": "uint256",
          "name": "portion_",
          "type": "uint256"
        },
        {
          "internalType": "bool",
          "name": "isSelling_",
          "type": "bool"
        }
      ],
      "stateMutability": "nonpayable",
      "type": "constructor"
    },
    {
      "inputs": [
        {
          "internalType": "address",
          "name": "authority",
          "type": "address"
        }
      ],
      "name": "AccessManagedInvalidAuthority",
      "type": "error"
    },
    {
      "inputs": [
        {
          "internalType": "address",
          "name": "caller",
          "type": "address"
        },
        {
          "internalType": "uint32",
          "name": "delay",
          "type": "uint32"
        }
      ],
      "name": "AccessManagedRequiredDelay",
      "type": "error"
    },
    {
      "inputs": [
        {
          "internalType": "address",
          "name": "caller",
          "type": "address"
        }
      ],
      "name": "AccessManagedUnauthorized",
      "type": "error"
    },
    {
      "anonymous": false,
      "inputs": [
        {
          "indexed": false,
          "internalType": "address",
          "name": "authority",
          "type": "address"
        }
      ],
      "name": "AuthorityUpdated",
      "type": "event"
    },
    {
      "anonymous": false,
      "inputs": [
        {
          "components": [
            {
              "internalType": "uint256",
              "name": "fromIdx",
              "type": "uint256"
            },
            {
              "internalType": "uint256",
              "name": "idx",
              "type": "uint256"
            },
            {
              "internalType": "address",
              "name": "from",
              "type": "address"
            },
            {
              "internalType": "address",
              "name": "to",
              "type": "address"
            },
            {
              "internalType": "uint256",
              "name": "price",
              "type": "uint256"
            },
            {
              "internalType": "uint256",
              "name": "portion",
              "type": "uint256"
            },
            {
              "internalType": "uint256",
              "name": "remainedPortion",
              "type": "uint256"
            }
          ],
          "indexed": false,
          "internalType": "struct TransferTree.Receipt",
          "name": "receipt",
          "type": "tuple"
        }
      ],
      "name": "NewReceipt",
      "type": "event"
    },
    {
      "anonymous": false,
      "inputs": [
        {
          "components": [
            {
              "internalType": "uint256",
              "name": "fromIdx",
              "type": "uint256"
            },
            {
              "internalType": "uint256",
              "name": "idx",
              "type": "uint256"
            },
            {
              "internalType": "address",
              "name": "owner",
              "type": "address"
            },
            {
              "internalType": "uint256",
              "name": "price",
              "type": "uint256"
            },
            {
              "internalType": "uint256",
              "name": "portion",
              "type": "uint256"
            },
            {
              "internalType": "uint256",
              "name": "remainedPortion",
              "type": "uint256"
            }
          ],
          "indexed": false,
          "internalType": "struct TransferTree.Transfer",
          "name": "transfer",
          "type": "tuple"
        }
      ],
      "name": "NewTransfer",
      "type": "event"
    },
    {
      "inputs": [
        {
          "internalType": "uint256",
          "name": "fromIdx_",
          "type": "uint256"
        },
        {
          "internalType": "uint256",
          "name": "portion_",
          "type": "uint256"
        }
      ],
      "name": "acceptTransfer",
      "outputs": [],
      "stateMutability": "nonpayable",
      "type": "function"
    },
    {
      "inputs": [],
      "name": "authority",
      "outputs": [
        {
          "internalType": "address",
          "name": "",
          "type": "address"
        }
      ],
      "stateMutability": "view",
      "type": "function"
    },
    {
      "inputs": [],
      "name": "creator",
      "outputs": [
        {
          "internalType": "address",
          "name": "",
          "type": "address"
        }
      ],
      "stateMutability": "view",
      "type": "function"
    },
    {
      "inputs": [],
      "name": "hasSettled",
      "outputs": [
        {
          "internalType": "bool",
          "name": "",
          "type": "bool"
        }
      ],
      "stateMutability": "view",
      "type": "function"
    },
    {
      "inputs": [],
      "name": "isConsumingScheduledOp",
      "outputs": [
        {
          "internalType": "bytes4",
          "name": "",
          "type": "bytes4"
        }
      ],
      "stateMutability": "view",
      "type": "function"
    },
    {
      "inputs": [],
      "name": "isSelling",
      "outputs": [
        {
          "internalType": "bool",
          "name": "",
          "type": "bool"
        }
      ],
      "stateMutability": "view",
      "type": "function"
    },
    {
      "inputs": [
        {
          "internalType": "uint256",
          "name": "fromIdx_",
          "type": "uint256"
        },
        {
          "internalType": "uint256",
          "name": "price_",
          "type": "uint256"
        },
        {
          "internalType": "uint256",
          "name": "portion_",
          "type": "uint256"
        }
      ],
      "name": "newTransfer",
      "outputs": [],
      "stateMutability": "nonpayable",
      "type": "function"
    },
    {
      "inputs": [],
      "name": "originalOwner",
      "outputs": [
        {
          "internalType": "address",
          "name": "",
          "type": "address"
        }
      ],
      "stateMutability": "view",
      "type": "function"
    },
    {
      "inputs": [],
      "name": "receiptLen",
      "outputs": [
        {
          "internalType": "uint256",
          "name": "length",
          "type": "uint256"
        }
      ],
      "stateMutability": "view",
      "type": "function"
    },
    {
      "inputs": [
        {
          "internalType": "uint256",
          "name": "",
          "type": "uint256"
        }
      ],
      "name": "receiptList",
      "outputs": [
        {
          "internalType": "uint256",
          "name": "fromIdx",
          "type": "uint256"
        },
        {
          "internalType": "uint256",
          "name": "idx",
          "type": "uint256"
        },
        {
          "internalType": "address",
          "name": "from",
          "type": "address"
        },
        {
          "internalType": "address",
          "name": "to",
          "type": "address"
        },
        {
          "internalType": "uint256",
          "name": "price",
          "type": "uint256"
        },
        {
          "internalType": "uint256",
          "name": "portion",
          "type": "uint256"
        },
        {
          "internalType": "uint256",
          "name": "remainedPortion",
          "type": "uint256"
        }
      ],
      "stateMutability": "view",
      "type": "function"
    },
    {
      "inputs": [
        {
          "internalType": "address",
          "name": "newAuthority",
          "type": "address"
        }
      ],
      "name": "setAuthority",
      "outputs": [],
      "stateMutability": "nonpayable",
      "type": "function"
    },
    {
      "inputs": [],
      "name": "splittable",
      "outputs": [
        {
          "internalType": "bool",
          "name": "",
          "type": "bool"
        }
      ],
      "stateMutability": "view",
      "type": "function"
    },
    {
      "inputs": [],
      "name": "terminateTransfer",
      "outputs": [],
      "stateMutability": "nonpayable",
      "type": "function"
    },
    {
      "inputs": [],
      "name": "transferLen",
      "outputs": [
        {
          "internalType": "uint256",
          "name": "length",
          "type": "uint256"
        }
      ],
      "stateMutability": "view",
      "type": "function"
    },
    {
      "inputs": [
        {
          "internalType": "uint256",
          "name": "",
          "type": "uint256"
        }
      ],
      "name": "transferList",
      "outputs": [
        {
          "internalType": "uint256",
          "name": "fromIdx",
          "type": "uint256"
        },
        {
          "internalType": "uint256",
          "name": "idx",
          "type": "uint256"
        },
        {
          "internalType": "address",
          "name": "owner",
          "type": "address"
        },
        {
          "internalType": "uint256",
          "name": "price",
          "type": "uint256"
        },
        {
          "internalType": "uint256",
          "name": "portion",
          "type": "uint256"
        },
        {
          "internalType": "uint256",
          "name": "remainedPortion",
          "type": "uint256"
        }
      ],
      "stateMutability": "view",
      "type": "function"
    },
    {
      "inputs": [],
      "name": "unitAmount",
      "outputs": [
        {
          "internalType": "uint256",
          "name": "",
          "type": "uint256"
        }
      ],
      "stateMutability": "view",
      "type": "function"
    }
  ],
  "bytecode": "0x6080346200026357601f6200132538819003918201601f19168301926001600160401b039290918385118386101762000201578160e092849260409788528339810103126200026357620000538162000267565b90620000626020820162000267565b6200006f85830162000267565b9060608301519060808401519060c060a08601519501519384151580950362000263575f80546001600160a01b039889166001600160a01b031991821681179092558a5191825292907f2f658b440c35314f52658ea8a740e05b284cdc84dc9ae01e891f21b8933e7cad90602090a18315158062000259575b1562000215579087809216938484600254161760025560015516938460018060b81b0319600354161760ff60a81b6001881160a81b16179060ff60a01b9060a01b161760035587519660e088019088821090821117620002015788525f875260208701955f8752888801948552606088019283526080880193845260a088019486865260c08901968752600554976801000000000000000089101562000201576001890180600555891015620001ed5760069860055f52600760205f2091020199518a555160018a01558160028a0191511683825416179055600388019251169082541617905551600485015551600584015551910155516110a890816200027d8239f35b634e487b7160e01b5f52603260045260245ffd5b634e487b7160e01b5f52604160045260245ffd5b895162461bcd60e51b815260206004820152601460248201527f496e76616c696420626173696320696e666f732e0000000000000000000000006044820152606490fd5b50861515620000e8565b5f80fd5b51906001600160a01b0382168203620002635756fe6080604090808252600480361015610015575f80fd5b5f3560e01c91826302d05d3f14610c72575081632fd5867d146108dc5781634a9ec4bf146108605781637a9e5e4b146107bf5781638fb360371461077b57816394bd27bf14610755578163a930406a14610737578163b82926b914610711578163bf7e214f146106ea578163c45dddb51461067b578163cbf2183714610655578163d4438eb71461032e578163dec213a214610312578163e7a3b1551461011957508063ef8f6ff5146100fb5763f1fffdcb146100d0575f80fd5b346100f7575f3660031901126100f75760025490516001600160a01b039091168152602090f35b5f80fd5b50346100f7575f3660031901126100f7576020906005549051908152f35b82346100f7575f3660031901126100f7576101343633610e27565b6003805461014860ff8260b01c1615610d1b565b825163c19d93fb60e01b8152916020906001600160a01b0390828588818786165afa948515610308575f956102d7575b5060069360068610156102c4576101926005809714610d1b565b60ff60b01b1916600160b01b1760035585516101ad81610d5b565b5f81525f60208201525f878201526060965f60608301526080925f608084015260a0935f60a08501525f60c0809501525f5b8b54811015610234576101f181610ce2565b50548961020a8c61020185610ce2565b50015492610c95565b5001805491820180921161022157556001016101df565b60118e634e487b7160e01b5f525260245ffd5b5090888b969798928b5f996005549a5b8b811061024d57005b8c8a8a8a8a8f61025c87610c95565b509083519361026a85610d5b565b8254855260019788840154908601528960028401541690850152888d830154168a8501528101548a8401528a810154809584015201549182910152116102b35750600101610244565b8b634e487b7160e01b5f525260245ffd5b602188634e487b7160e01b5f525260245ffd5b6102fa91955060203d602011610301575b6102f28183610d8b565b810190610dad565b9387610178565b503d6102e8565b86513d5f823e3d90fd5b82346100f7575f3660031901126100f757602091549051908152f35b9050346100f75760603660031901126100f757803560246044359360035461035c60ff8260b01c1615610d1b565b815163c19d93fb60e01b81526001600160a01b039160209190829082908990829087165afa90811561064b575f9161062e575b50600681101561061c5760056103a6911415610dc5565b6005548510156105e75786156105a6578660066103c287610c95565b50015410610565578160036103d687610c95565b5001541633036105245785549060066103ee87610c95565b50016103fb898254610e06565b905583519560c0870187811067ffffffffffffffff82111761051257855286528086019182528386019133835260608701958035875260808801978a895260a081019a8b528954600160401b8110156105005780600161045d92018c55610ce2565b9290926104ef5781518084558451600185015586516002850180546001600160a01b031916918a16919091179055895160038501558a51848d01558c516005850155885190815284518187015286518816818a0152895160608201528a5160808201528c5160a08201527f19a2a48ef8cfe24085fbbc4682a973e51639334e809537695d36a89b98c8dee29060c090a1005b634e487b7160e01b5f908152808c52fd5b8260418c634e487b7160e01b5f52525ffd5b8660418a634e487b7160e01b5f52525ffd5b85601c8560649386519362461bcd60e51b85528401528201527f5573696e672077726f6e672069647820746f207472616e736665722e000000006044820152fd5b85601b8560649386519362461bcd60e51b85528401528201527f4e6f7420656e6f75676820616d6f756e742072656d61696e65642e00000000006044820152fd5b8560198560649386519362461bcd60e51b85528401528201527f416d6f756e742073686f756c6420626520706f736974697665000000000000006044820152fd5b8560118560649386519362461bcd60e51b85528401528201527027379039bab1b4103a3930b739b332b91760791b6044820152fd5b84602188634e487b7160e01b5f52525ffd5b6106459150823d8411610301576102f28183610d8b565b5f61038f565b84513d5f823e3d90fd5b82346100f7575f3660031901126100f75760209060ff60035460a01c1690519015158152f35b9050346100f75760203660031901126100f75780359181548310156100f7576106a560c093610ce2565b5080549260018201549260018060a01b0360028401541690600560038501549385015494015494815196875260208701528501526060840152608083015260a0820152f35b82346100f7575f3660031901126100f7575f5490516001600160a01b039091168152602090f35b82346100f7575f3660031901126100f75760209060ff60035460a81c1690519015158152f35b82346100f7575f3660031901126100f7576020906001549051908152f35b82346100f7575f3660031901126100f75760209060ff60035460b01c1690519015158152f35b82346100f7575f3660031901126100f75760209060ff5f5460a01c165f146107b857638fb3603760e01b905b516001600160e01b03199091168152f35b5f906107a7565b82346100f75760203660031901126100f7576001600160a01b03823581811693908481036100f7575f54928316330361084b573b15610834576001600160a01b0319821684175f5582518481527f2f658b440c35314f52658ea8a740e05b284cdc84dc9ae01e891f21b8933e7cad90602090a1005b82516361798f2f60e11b8152908101849052602490fd5b835162d1953b60e31b81523381840152602490fd5b82346100f75760203660031901126100f7578135916005548310156100f75761088a60e093610c95565b5080549260018201549260018060a01b03806002850154169060038501541691840154926006600586015495015495815197885260208801528601526060850152608084015260a083015260c0820152f35b9050346100f757816003193601126100f757803560248035936108ff3633610e27565b60035460ff8160b01c16159161091483610d1b565b805163c19d93fb60e01b81526001600160a01b0393909260209190829085908a90829089165afa938415610c68575f94610c49575b506006841015610c3757610961600580951415610dc5565b8754871015610c02578815610bc057888461097b89610ce2565b50015410610b7e5761098c87610ce2565b506002015485163314610b3c5715610afb57825490836109ab88610ce2565b50016109b88a8254610e06565b90558460026109c689610ce2565b500154169160036109d689610ce2565b500154968451986109e68a610d5b565b8952828901918252848901938452606089019533875260808a0198895260a08a01998c8b5260c081019c8d528154600160401b811015610ae957806001610a2f92018455610c95565b939093610ad8575051808355835160018401558551600284018054918b166001600160a01b03199283161790558851600385018054918c169190921617905589519b83019b909b558951908201558a516006909101558351988952519088015251831690860152511660608401525160808301525160a0820152905160c08201527fd69eee1662e12e16eec6093e527e46acc4ac7124262b9b8b5e2a89e94b29ba869060e090a1005b634e487b7160e01b5f908152808e52fd5b8360418e634e487b7160e01b5f52525ffd5b6018858892606494519362461bcd60e51b85528401528201527f54686973205472616e7366657220697320636c6f7365642e00000000000000006044820152fd5b825162461bcd60e51b8152808901839052601b818801527f43616e6e6f74206163636570742066726f6d20796f757273656c6600000000006044820152606490fd5b825162461bcd60e51b8152808901839052601c818801527f4e6f7420656e6f7567682072656d61696e696e6720616d6f756e742e000000006044820152606490fd5b825162461bcd60e51b8152808901839052601a818801527f416d6f756e742073686f756c6420626520706f7369746976652e0000000000006044820152606490fd5b825162461bcd60e51b81528089018390526010818801526f27379039bab1b4103932b1b2b4b83a1760811b6044820152606490fd5b85602189634e487b7160e01b5f52525ffd5b610c61919450823d8411610301576102f28183610d8b565b925f610949565b83513d5f823e3d90fd5b346100f7575f3660031901126100f7576003546001600160a01b03168152602090f35b600554811015610cce5760079060055f52027f036b6384b5eca791c62761152d0c79bb0604c104a5fb6f4eb0703f3154bb3db001905f90565b634e487b7160e01b5f52603260045260245ffd5b600454811015610cce5760069060045f52027f8a35acfbc15ff81a39ae7d344fd709f28e8600b4aa8c65c6b64bfe7fe36bd19b01905f90565b15610d2257565b60405162461bcd60e51b815260206004820152601160248201527027b832b930ba34b7b7103330b4b632b21760791b6044820152606490fd5b60e0810190811067ffffffffffffffff821117610d7757604052565b634e487b7160e01b5f52604160045260245ffd5b90601f8019910116810190811067ffffffffffffffff821117610d7757604052565b908160209103126100f7575160068110156100f75790565b15610dcc57565b60405162461bcd60e51b81526020600482015260126024820152712330b4b6103a37903a32b936b4b730ba329760711b6044820152606490fd5b91908203918211610e1357565b634e487b7160e01b5f52601160045260245ffd5b5f8054909290916001600160a01b038084169291906004908382116100f7575f905f9460409586519360208086019463b700961360e01b86526024981694858988015230604488015263ffffffff60e01b5f351660648801526064875260a087019667ffffffffffffffff9781811089821117611053578b52515f918291908d5afa903d1561104a573d91878311611038578a90815193610ed184601f19601f8401160186610d8b565b84523d5f8486013e5b610fbe575b50505015610ef4575b50505050505050505050565b63ffffffff1615610fab5760ff60a01b19978816600160a01b175f55863b156100f7576064965f92838851998a80958194634a63ebf760e11b83528a8301528b8b8301528060448301528084848401378181018301849052601f01601f191681010301925af1801561064b57610f7e575b505050505081541690555f808080808080808080610ee8565b909192938095965011610f9a575050525f905f80808080610f65565b604190634e487b7160e01b5f52525ffd5b50845162d1953b60e31b81529283015250fd5b825192949193909291908383106110015750508390810103126100f757610fe788918301611065565b91015163ffffffff811681036100f757905b5f8089610edf565b93828193929694501015611018575b505050610ff9565b829350918192810103126100f7576110309101611065565b5f8080611010565b8960418a634e487b7160e01b5f52525ffd5b89606092610eda565b8a60418b634e487b7160e01b5f52525ffd5b519081151582036100f75756fea2646970667358221220dc57d5e75f1c47ed32b8fee8a3f9be11e9d3c468ab9a2b68c2c9c491735a7bd064736f6c63430008180033",
  "linkReferences": {},
  "deployedLinkReferences": {}
}